:10000000B0200020F91E000021600000E51E000065
:10001000E51E0000E51E0000E51E000000000000D7
:100020000000000000000000000000002D20000083
:10003000E51E000000000000D91F0000E51E0000C2
:1000400091210000912100009121000091210000E8
:1000500091210000912100009121000091210000D8
:1000600091210000912100009121000091210000C8
:1000700091210000912100009121000091210000B8
:1000800091210000912100009121000091210000A8
:100090009121000091210000912100009121000098
:1000A0009121000091210000912100009121000088
:1000B0009121000091210000912100009121000078
:1000C0009121000091210000912100009121000068
:1000D0009121000091210000912100009121000058
:1000E0009121000091210000912100009121000048
:1000F0009121000091210000912100009121000038
:10010000034613F8012B002AFBD1181A0138704757
:1001100073B50E4A0E480F4E0A23032105F0AFFEB9
:1001200001252C4665430A480095234632460321A3
:10013000013405F0AEFE0B2CF4D1074A044803212C
:1001400002B0BDE8704005F091BE00BF2874000009
:100150009471000057740000727400002DE9F041A2
:10016000454B84B000AF3A4603F10805B84618681D
:100170005968144603C40833AB422246F7D11868C5
:100180001B79206023713D4A3D48032105F06EFE36
:100190003C4A3B480223032105F071FE6E4688B0BD
:1001A0006C46394B63612546384BA361032345F800
:1001B000103F334800232A464FF4C85101F00AF893
:1001C000B546334A2E48022105F050FE314A2C48EC
:1001D000012105F04BFEA5462F4B63612F4BA36118
:1001E0004FF40073A3832E4B23612E4924484346CA
:1001F0002A4600F0EFFFB5462B4C204606F01CFCCB
:10020000002832D029484FF4D01105F0E4F8002836
:100210002BDB27484FF4803105F0DDF8002824DB84
:10022000A568AE696EB123691B6813F4006F14BF33
:100230004FF000734FF080634FF0A0720B21204607
:10024000B0471C4805F01FFA1B491C4B4B604FF48C
:1002500000638B60EB6913B11348012298470021BA
:100260004FF0967006F01CFDF9E74FF0FF301037A5
:10027000BD46BDE8F08100BFF07100008074000051
:10028000947100009D740000A97400004E75000078
:10029000CA740000EA740000087500000B750000C5
:1002A00003000001C01CD000886F0000087200002D
:1002B00010720000187500002808002011010000CD
:1002C0002DE9F04F91B08407009302F004030293EC
:1002D000C2F3C20303F10103DDF86880039205460F
:1002E0000E46059340F0BA81041D30B1072909D8A4
:1002F0006FF01B0011B0BDE8F08F01F00706344429
:10030000C6F10806009B4FF00009591E4FF0040A81
:100310004FF0FF330193CDF810904F46CB46534634
:100320000DB1009A22600598002800F3E8809848F3
:10033000009A824203D397488242C0F0E080039A39
:10034000A4EB050E92074FEA9E0000F103810F2FE8
:1003500000F2B180002D00F0058107F140020DEBA5
:10036000020C019A0CF8200C0CF8102C04980130A7
:100370000490E7E07A285DD84B280ED8472859D852
:1003800029282DD8252852D054D820287AD023388F
:10039000D0F1000B4BEB000B74E04C382E2849D801
:1003A000DFE800F07048484848484848484848480E
:1003B0004B484848484848484859484B4B59595970
:1003C000704B6D487048184B184848827F4B48481E
:1003D0004B487F0000204FF0000B4FF0040A38E03C
:1003E0002A38C0B2012202FA00F010EA0E0F49D1F9
:1003F00010F0625C2FD110EA020B43D06046013C42
:100400005444B4FBFAF40AFB04F4002D61D0A3EBCE
:10041000050CA444B4453FF66BAF002868D1042B0B
:1004200047D158F8043B2360043404232AE0019A9E
:10043000013A01924FF0000B24E011F8010C6C28F6
:1004400034D111F8023C00206C2B8346C5D14FF00B
:10045000080A5346D3E708F1070828F007080734CD
:10046000F8E802AB24F0070435B106982044B04206
:100470003FF63EAFC4E900AB08344FF0000B4FF03D
:10048000080A534611F8010F002878D0BBF1000F7D
:100490007FF470AF2528F5D1019B013301934FF014
:1004A000010B4FF0040AECE7584694E7002083461E
:1004B000A5E7082B02D06FF015001BE708F107082D
:1004C00028F00708F8E80223C4E9002308340823C9
:1004D000D8E768B9042B02D108F10408A4E7082B77
:1004E000E9D108F1070828F0070808F10808EDE746
:1004F000059A013A059258F8042B009210E7039AE6
:10050000900720D5A4EB050E4FEA9E004FF0010C9A
:10051000BEF5007FCFD20F2FCDD8F5B107F1400245
:100520000DEB020EC0B2019A0EF8200C0EF8102C42
:10053000BCF1000F3FF41AAF60F07F000EF8200C02
:1005400009F101090137C5F10802043406924FF69A
:10055000DA7E97E74FF0000CDAE7BCF1000F01D02C
:100560000136EFE7029802360028EBD10098CDE97A
:100570000631FFF7C5FDDDE906310644E2E7631BFE
:10058000B3F5806F97D23DB9A6F10804E018B1E643
:10059000E06E0000A47D0000029A28609B082B708A
:1005A0009DF81030C2B1EB7085F80290B9F1000FE0
:1005B00005D008A80022C5F1010C97420ED1C5F163
:1005C00001030DF120084FF0000A01930DF1300BEB
:1005D000574512D1601B8DE66B70E5E710F8013BC3
:1005E000190608D50CEB040EB64503F07F033FF661
:1005F0007FAE04F8013B0132DFE7B9F1000F03D011
:1006000098F90020002A17DB029BD3B11AF80B20BF
:1006100004F8012B0022019B18191044B0423FF648
:1006200067AE98F8000004F8010B00990392204689
:1006300006F0CAFB039A14440AF1010A08F1010802
:10064000C6E798F8002055F822300093029B45F841
:1006500022300098FFF754FD421CDCE76FF00D00DC
:1006600048E600BF2DE9F04F97B000AF90F802A028
:10067000D7F880B03B62CBF3C0030446FA62BB619B
:10068000894641B9457800780AEB800020444D4501
:1006900017D8A0EB0409E378FB61BAF1000F02D090
:1006A0001BF0010F16D1FB6953BBFB6A1BB13A6A01
:1006B0004946204698474D4628465C37BD46BDE82A
:1006C000F08F461C3046FFF71BFD0130304409F126
:1006D0000109DCE7237862687A62FA6A9900796135
:1006E00004EB8301002A40F000814D460E4601EBE9
:1006F0000A094FF000084E454CD101EB0A0610E004
:100700001BF0020FD1D023789A007A6162687A6276
:10071000FA6A04EB8301002A77D14D4601EB0A0601
:1007200090461BF0050F0CBF02230123FB62FB69FF
:1007300006EB430A0BF00203BB625645BCD016F829
:10074000021B16F8013C54F82390994B994502D3AB
:10075000984B994536D3BB69002B40D0786A04F09A
:100760006BFF00283BD0E9468AB06A46924B536142
:100770007B6AC2E906314FF4007313848F4B42F851
:10078000103F8F4800234FF4125100F023FD023D2B
:10079000CD46D2E716F8013BF96254F82300FFF783
:1007A000AFFCD7F88430F96A01304BB1D7F8883004
:1007B00098453EBFD7F8843023F8180008F10108A7
:1007C000054498E7BB6923B1786A04F035FF002837
:1007D000C9D11BF0010F05D1FB6AED1AADE7BB6A69
:1007E000002BAAD04846FFF78BFCD7F8843053B1D2
:1007F000D7F8883098453FBFD7F88420431C22F8AB
:10080000183008F10108054497E7BAF1000F72D0DB
:100810001BF0040672D0D046002607F1480052466D
:100820003B61B96206F0D0FAB96A3B6901EB0A0292
:10083000BA62FA69F9695200FA60BA6A02EB4102D7
:100840003A610BF00202BA603A69B96A8A4257D13A
:1008500062787A621BF0020F32440CBF4FEA5801F3
:1008600000211BF0010FD2B240F09F801BF0040F5B
:1008700014BF40460020BB616270A070E1703A6A0C
:100880007969FB6A20469847051EFFF615AFBB69DC
:1008900023707B6A6370FB69E37041463A6AFB6AC6
:1008A00084F802A007F148009847B0F10008C0F2B0
:1008B000BB807B693A6AA9EB0A01C91AFB68C91AAD
:1008C000D7E90A0398470028C0F2B080A84408EB93
:1008D00000054FF0000B07F1380AB34572D3002131
:1008E0003A6AFB6A08469847E6E656464FF0000823
:1008F00007F1380093E75646D04697E7B04695E7AC
:10090000BA6A12F8021BBA6212F8015C284A54F85B
:100910002500904202D3274A90421ED3BA6932B1D1
:10092000786A7B6004F088FE7B6800288CD1BA6806
:1009300002BB08F1280207F1300C08F101009444D1
:1009400007F1580252FA80F008F102080CF8101C66
:100950005FFA88F800F8105C76E7BA693AB1786A0D
:100960007B6004F069FE7B6800287FF46DAF1BF0AC
:10097000010F09D006F1280207F13000711C16188A
:1009800006F8205CCEB25FE71BF0040F3FF45CAFCB
:1009900008F1280207F1300008F1010102EB00081C
:1009A00008F8105C5FFA81F84EE7002063E700BFAB
:1009B000E06E0000A47D00005F75000004000001EF
:1009C0009C7100001BF80A3087F8373054F82390E8
:1009D000D7F884302BB3D7F888309B4521D2D7F88D
:1009E000843033F81B803A6AFB6A012107F1370033
:1009F000984700281ADB0544B8F1000F06D1484695
:100A0000FFF77EFB00F101081FFA88F83A6AFB6ADB
:100A1000414648469847002808DB05440BF1010B86
:100A20005BE74FF00008DEE7454645E6054643E64E
:100A3000014B1860704700BF0000002080B50546DC
:100A40000E461746984603F02BFD034606F03EFA85
:100A5000DFF81890044649F80030424630463946DF
:100A6000A84754F8090001F0A1FA00BF08000000EF
:100A70002DE9F047058B04462807904611D402293A
:100A800005F0070540F0CC80204605F073F878B1FA
:100A90000138218B042811D8DFE800F0C2106D85E1
:100AA000950001290CBF45F0100545F02005258370
:100AB00088F31188BFF36F8FBDE8F08701F0070A54
:100AC000AA4500F0A5800027B9463E46A368002B42
:100AD00000F0BC8041F00801218388F31188BFF346
:100AE0006F8FA168002900F0BA800D68002900F01E
:100AF000B680D1F80480334652462046C047002DC8
:100B000076D02B6829461D46F0E701F007035A1FEF
:100B1000012A1BD8002221F00701062B276889B281
:100B2000C4E9002209D13B4603E0628B01326283B3
:100B30001B68002BF9D141F002012183204605F00A
:100B400019F800287AD041F0200176E0042B0AD170
:100B500021F0070189B22183204605F00BF810B17E
:100B600041F020012183218B01F0070AAA454FD0D3
:100B70000027B946AAE7236921F0070141F00601E1
:100B8000062DD3F8009021832DD1B9F1000F3FD06D
:100B900041F00801218388F31188BFF36F8F3A4930
:100BA0002046C84729E021F00701236941F00401EC
:100BB00089B2042DD3F804902183E6D000273E4665
:100BC0004FF0040A82E721F00701236941F0050193
:100BD00089B2052DD3F808902183D6D000273E4650
:100BE0004FF0050A72E700273E464FF0060A6DE710
:100BF0002B4687E7B9F1000FD1D1EFF311882023FD
:100C000083F31288BFF36F8F238B23F008032383B2
:100C1000258BEA062ED525F01003238305F0070562
:100C20006669218B002EBFF670AF00232768C4E9E8
:100C3000003321F0070141F001012183218B01F0F4
:100C4000070AAA454FF000097FF440AF002F9CD05F
:100C500041F00801218388F31188BFF36F8F002FC3
:100C6000C8D03D68394633465246204604F0AEFFB0
:100C70002F46F4E7AB067FF51BAF25F02003238357
:100C800005F0070500E700BFF95B00002DE9F0471C
:100C9000DFF85880044607464FF0010914B938467A
:100CA000BDE8F08794FAA4F5B5FA85F509FA05F3DD
:100CB0002E0108EB05156FEA030A24EA03042B7BD7
:100CC000002BEBD058F806301B694BB94644042280
:100CD00073682846196807EA0A0705F057F8DDE740
:100CE000284698470028D9D1F0E700BFDC71000002
:100CF00030B51049104889B0002206F03DF80F4D7C
:100D00000F4900220023CDE9062300240E23CDE95C
:100D10000334CDE901440B4B00944FF44072284654
:100D200003F000F90849284605F024FF204609B0E1
:100D300030BD00BF4D0D000060060020E80100201E
:100D4000701000207910000013760000014803F0B5
:100D500057B800BFD80100202DE9F0478046214850
:100D60000F4604F0F3FF0646002833D0002528463E
:100D7000BDE8F087237B83B12368DB680BB1204695
:100D80009847636883F8069023681B69D3B9636842
:100D900004221968204604F0F9FF01361034544546
:100DA000E8D3B8F1000FE2D0002DDFD02846FFF7DE
:100DB0006DFF0546002FF7D000214FF4A47005F019
:100DC0006FFFF1E7204698470028E0D009FA06F3C4
:100DD0001D43E2E7044CDFF814A005464FF001097B
:100DE000DDE700BF44080020DC710000EC7100006A
:100DF000014B53F8200070472C72000008B50346E1
:100E000008462BB1044A136000F07AFC002008BDAC
:100E10006FF01500FBE700BF0400002010B5044C84
:100E2000237813B9034802F0EBFF0123237010BDB0
:100E300064100020D801002010B504460B4804F0CF
:100E400085FF5CB1BFF35B8F094B53E8001F01398D
:100E500043E80012002AF8D1BFF35B8F054805F084
:100E600097FF0548BDE8104002F0CABF3C080020CB
:100E70004008002060060020D80100200020064B1A
:100E8000BFF35B8F014653E8000F43E80012002ACE
:100E9000F9D1BFF35B8F70473C08002070B5FFF7B6
:100EA000EDFF084C084E0546B44200D370BD6368A0
:100EB0005B792BB123685B6813B1294620469847BC
:100EC0001034F1E7DC710000EC71000010B5044C47
:100ED0000449204604F0E7FC034B1C6010BD00BF32
:100EE0004C01002018720000340800200D4A0E4802
:100EF000002310B513700D4A13600D4A4FF40041E2
:100F00001360FFF77BFFFFF7E1FF0A4B0A49184622
:100F10008B4200D310BD1A1A5C6812110132227183
:100F20001033F5E765100020495D00003C08002003
:100F300040080020DC710000EC7100000146002236
:100F40000148002304F0D0BC4C010020014804F00B
:100F500069BD00BF4C010020024B0146186804F037
:100F6000B5BD00BF34080020014804F0EABD00BF51
:100F70004C01002070B5294B187800284DD0FFF7A0
:100F8000E5FF0546002845D1254B264C1B68002B64
:100F900019DD05F0EFFE4FF47A72A0FB020302FBAD
:100FA0000131C30BD4E9002043EA41439B1A4FEAC5
:100FB000D13140F2E93261EB0001934271F100015D
:100FC00001D3FFF76BFFD4E9003213F57A7342F1D6
:100FD0000002C4E90032BDE87040FFF7C5BF636896
:100FE0005B7923B1236829461B6820469847103453
:100FF000B442F4D32846FFF7AFFFBFF35B8F0A4B31
:1010000053E8001F013943E80012002AF8D1BFF36A
:101010005B8FB9E7054C064EEAE770BD641000200F
:101020003C0800205806002040080020DC71000029
:10103000EC71000070B50D4D297861B90120FFF702
:101040008BFE0B4C0B4EB44206D3FFF793FF0028E8
:10105000FBD101232B7070BD63685B791BB12368E2
:1010600020469B6898471034EDE700BF65100020CC
:10107000DC710000EC71000000212DE9F04708460A
:10108000FFF76AFE044658B340F267684FF0000964
:1010900005F01CFF1B4B1C4A1B58136033B11B4B44
:1010A0001B68092B02DD1A4802F0AAFE194FDFF86F
:1010B00060A0002544B12046FFF7E8FD044618B9BA
:1010C0004FF0FF384FF0FF39FFF754FF064628B9BD
:1010D000B5B942464B46504602F0C6FE3546E9E7F2
:1010E0004FF0FF384FF0FF39D2E72B689B691BB1F7
:1010F00000221146284698471035BD42F5D3E8E74F
:10110000054DFAE7080000003808002040080020DC
:10111000D8010020EC710000DC71000013B5184804
:1011200004F014FE174B1B7873B1EFF311842023E6
:1011300083F31288BFF36F8FFFF71CFF84F31188CE
:10114000BFF36F8F02B010BD0F4B1B68002BF9D09F
:1011500050B900220023CDE900230C484FF400428F
:10116000002303F087FCEDE70928EBD1074805F0E1
:101170000FFE074802B0BDE8104002F041BE00BFBC
:10118000400800206510002038080020600600207C
:10119000D801002010B5064B1B680446984721462D
:1011A000A060044804F01FFCBDE81040FFF7B6BF84
:1011B000040000204C010020044A054B9B1AB1EBAF
:1011C000D30F34BF52F831000020704794710000F3
:1011D000DC7100002DE9F04F8FB004AFC1F34A2855
:1011E000B8600D4691467B600C0DB8F1000F63D0DE
:1011F000002607F114034FF0040B4FF00A0AC7F85A
:101200000C80C7E907667E620193CDF808B0CDF87F
:1012100000A007F11C03F96832464846FFF722FA9E
:10122000B0F5006F03461CD36C468AB0D9F80410A1
:1012300004AB2648C3E9050140F2FF71D9611A46A3
:101240004FF400711984224B42F8103F2148334675
:101250004FF41251FFF7BEFFA5462C37BD46BDE83F
:10126000F08FC0F30A0804F11700184420F00700BB
:1012700080083B60FFF762FE68F35325044690B197
:101280003B68154AC7E9083600F1100107F114035D
:10129000F961CDE900A3CDF808B0F96807F11C03A6
:1012A0004846FFF7DFF968F353257B68B9682A469B
:1012B000204604F08BFDD0E704F1170020F0070072
:1012C0008008FFF73BFE0446EDE700BF28760000EC
:1012D00004000001AC7100009F5D00002DE9F04F9B
:1012E00087B0DDE91279DDE9105A0446039193468F
:1012F0009846BFB1CDF800903B46524610210020E1
:10130000CDF81490FEF7DCFFB0F5006F06460AD367
:10131000184A194840F2FF73022107B0BDE8F04FA8
:1013200004F0ADBD3E4605F11700304420F0070043
:1013300004F007048008FFF701FE0BF0070BE40040
:1013400044EA8B1444EA462444EA0554054640B175
:101350003FB1CDF800903B46524631461030FEF783
:10136000AFFF039943462246284607B0BDE8F04F39
:1013700004F02CBD67760000AC710000406820B11D
:10138000034BC01A40F3CF0070474FF0FF30704757
:10139000947100000EB403B503AB014653F8042B5F
:1013A0000448019300F006FF02B05DF804EB03B0BF
:1013B000704700BFE15E0000CA0605D48B064CBF33
:1013C00002490349FFF7E6BF704700BFA07600005F
:1013D0009F7600002DE9F04F89B09B46149B069341
:1013E0009DF84CA0159B0593169B179E04930446ED
:1013F0000D469046BAF1000F00F09D8006F4807310
:10140000079304F0C1FC06F00209024600283ED012
:1014100091492046FFF7BEFF0746B9F1000F08D0FB
:1014200016F0440F35D18D492A462046FFF7B2FF0A
:10143000074406F0010353B1894B8A4953F82A2027
:10144000894B2046002A08BF1A46FFF7A3FF06F47F
:101450008073002B49D006F00803002B63D1B8F14C
:10146000000F66D0814942462046FFF793FF0546AC
:10147000069B3D44002B6DD1049B002B73D1F307D9
:1014800000F1E48031462046FFF796FFD8E007469A
:10149000C3E7774B18680028CAD0764B4FF47A79A7
:1014A0001B68B5FBF3F54FF46163B5FBF0F100FB8E
:1014B000115509FB05F54FF03C0CB1FBF3F203FBB2
:1014C0001211B5FBF0FEB1FBFCF300FB1E550CFB4B
:1014D000131109FB05F50091B5FBF0F56649CDE95F
:1014E00001E52046FFF756FFA2E706F00803EBB13F
:1014F000624B634953F82A202046FFF74BFF05460D
:10150000B8F1000F05D0594942462046FFF742FF87
:101510000544BBF1000FABD05A495A462046FFF7AD
:1015200039FF0544A4E74FF0000BE1E706F008059A
:10153000E6E745469CE7BBF1010F069B06D1002B71
:1015400064D1049B002B7BD000250CE0002BF8D04D
:101550004D485CE04D48069B4D49224604F03BF85F
:10156000049B002B68D0DFF82C81DFF82C91049FBE
:101570003146102F204628BF1027FFF71DFF4FF0E0
:10158000000B5D4545DC059B49461A782046FFF770
:1015900001FF4FF0010B1BF0070F03D1414620461E
:1015A000FFF7F8FE5F453BD9059B494613F80B2032
:1015B0002046FFF7EFFE0BF1010BBBF1100FEAD154
:1015C000364920464FF0000BFFF7E4FE5A46059BD4
:1015D0009A5CA2F120015F2928BF2E2230492046C3
:1015E000FFF7D8FE0BF1010BBBF1100F1DD01BF064
:1015F000070F03D141462046FFF7CCFE5F455A4610
:10160000E5D841462046FFF7C5FEEBE71F485546A3
:10161000A1E741462046FFF7BDFE0BF1010BB0E705
:1016200020492046FFF7B6FEC5E7059B3B440593DE
:10163000049BDB1B04939AD1BAF1000F7FF41FAF18
:10164000204609B0BDE8F04F04F03DBC064A05490C
:101650002046FFF79FFE15E7A7760000AB76000057
:101660003C72000008750000A2760000D0760000F1
:101670004C08002048080020B4760000507200009A
:10168000D4760000DA760000175F0000E15E00000B
:10169000B5210000E7760000DF760000E976000063
:1016A000EB760000E576000073B542F20F738B42D3
:1016B00028BF0B4605680F4A04460521684603F01B
:1016C00001FC63680C495B6806460B22284604F05F
:1016D000ECFB63683246694628465B6804F0E5FB2C
:1016E000636806495B681B22284604F0DEFB02B0F3
:1016F00070BD00BFC17800000A770000EE760000E0
:10170000074A00210123904206D8064A01B9012365
:101710001360054B1860704740085B000121F2E739
:1017200040420F00480800204C080020F8B5074F41
:101730000D4604464618B44201D12846F8BD14F8B7
:10174000011BBB6801485B689847F4E7A86F00007D
:1017500008B5044803F097FFBDE80840024803F0CD
:1017600092BF00BF6077000095770000014803F04A
:1017700001BA00BF9872000038B5044618B90F4B83
:101780000F485B6898476168B1F5683F10D0B1F5C4
:10179000680F0DD00B4DA9420AD011F46861206882
:1017A00007D00146084805F082F9002323606560F0
:1017B00038BD142205F016FBF9E700BFE400002055
:1017C000C37700002C5F5CA9740D002008B520B31E
:1017D0004368B3F5683F10D101220368BFF35B8F04
:1017E00053E8001F002903D143E800200028F7D167
:1017F000BFF35B8F0DD1002008BD094A93420AD088
:1018000000684FF0FF324FF0FF3302F031FA00284A
:10181000F1D00448F0E70448EEE76FF4E040EBE76E
:101820002C5F5CA9E98FFFFFEA8FFFFF08B5D8B1F5
:101830004368B3F5683F10D100220368BFF35B8FA4
:1018400053E8001F012903D143E800200028F7D105
:10185000BFF35B8F0BD1002008BD074A934208D02D
:10186000006802F07DFAF6E76FF4E040F4E7034821
:10187000F2E70348F0E700BF2C5F5CA9E98FFFFFA8
:10188000EA8FFFFF10B5044618B91D4B1D485B6871
:1018900098476368B3F5683F2FD0B3F5680F2CD035
:1018A000194A934219D1236803BB18484FF0FF32FD
:1018B0004FF0FF33214602F0ADF908B923681BB998
:1018C0000F4B13485B68984720681422002105F0ED
:1018D00089FA4FF46863636008E0B3F5683F0DD898
:1018E0003A2B03D040F6BA629342DED1206805F06D
:1018F00028F9636843F03A03636010BD054AF3E7D3
:10190000E4000020C37700002C5F5CA9740D002068
:10191000E97700003A00003A08B506490648402336
:10192000142205F0B6F8BDE808400449044803F065
:1019300093B900BF74080020740D0020A07200004D
:10194000B472000008B50348034A0021121A04F0DB
:101950005FFB08BDE80100206C1000200748084A22
:10196000084908B5121A04F055FB0748074A084908
:10197000BDE80840121A04F04DBB00BF0000002073
:10198000E8010020A47D00000000002000000020ED
:10199000A47D00002DE9F047064600AF0C46002963
:1019A00036D0E9468AB0D1E90012A3686D462148D5
:1019B000A8464FF0050AC5E90501C5E9072348F81F
:1019C00010AF1D48424600234FF42151FFF702FC9F
:1019D000CD46D4E903126369AD461848C5F810A096
:1019E000C5E90501C5E907231348002342464FF422
:1019F0002151FFF7EFFBCD46E369114A0E48012163
:101A000004F03DFAA3690F4A0B48012104F037FAAC
:101A1000012E07D1EFF305830B4A0748103B3146EF
:101A200004F02DFA2146304601F05EFFBD46BDE8C8
:101A3000F08700BF16780000C471000045780000F0
:101A40007478000083780000B178000030BFFFF7A1
:101A5000FDBF00BF2DE9F0410B4EDFF8308006EBF3
:101A60000807CC1B054632460949204605F0ACF96B
:101A7000A01942460021083C05F0B4F96C6607F154
:101A80000800BDE8F08100BF000000000400000075
:101A9000EC710000054B5A699B689A421FBF044ACB
:101AA000536843F080535360704700BF600E0020BE
:101AB00000ED00E070B52A4C06460D4629482A493B
:101AC00004F0B5FAA36ADB0647D52648274904F097
:101AD000AEFA1120A36A1C0704D52248244904F059
:101AE000A6FA12201E4CA36A990712D521491D4857
:101AF00004F09DFA636BA26A120609D51E4A1948C2
:101B0000012104F0BCF91EB1A36A23F08003A36293
:101B10001320134CA36ADE0704D51248174904F0BA
:101B200086FA1420A36A9C0604D50E48144904F0D2
:101B30007EFA15200A4B9A6AD10658BF9A6A9A6AA9
:101B4000920642BF5A6A22F400525A629A6A42F0DE
:101B5000FF029A6200232B7070BD1020BAE700BF0D
:101B600000ED00E0C4710000C4780000DA780000E5
:101B70000D79000020790000387900004E790000CE
:101B80006D79000010B5204C2049214804F04FFA2F
:101B9000A36A990136D51E481E4904F048FA1E2052
:101BA000A36ADA0104D51A481B4904F040FA1F2041
:101BB000154CA36A1B0304D51548184904F037FADD
:101BC0002120A36A590304D51148154904F02FFABE
:101BD00022200D4CA36A9A0304D50D48114904F044
:101BE00026FA2320A36ADB0304D509480E4904F032
:101BF0001EFA2420044A936A6FEA03436FEA1343F0
:101C0000936210BD1D20CBE700ED00E09C79000041
:101C1000C4710000B4790000C7790000E1790000C8
:101C2000FF790000247A00003E7A000070B5294C4C
:101C300006460D462848294904F0F9F9A36AD90453
:101C40003CD52548264904F0F2F91720A36A1A0565
:101C500004D52148234904F0EAF918201D4CA36A51
:101C60009B0512D51C48204904F0E1F9A36BA26A38
:101C7000100409D51D4A1848012104F000F91EB1CD
:101C8000A36A23F40043A3621920124CA36A5905E6
:101C900004D51148164904F0CAF91A20A36ADA05D6
:101CA0000ED50D48134904F0C2F91B20094A936A66
:101CB00043F47F43936200232B7070BD1620C5E769
:101CC000A36A9B04F2D504480B4904F0B0F91C2028
:101CD000ECE700BF00ED00E0C4710000697A00008D
:101CE0007F7A00000D790000907A0000A97A000048
:101CF000BE7A0000D97A00006D7900002DE9F0412C
:101D0000654B8AB0D3F8048000AF0446C8F30805D9
:101D1000002686F31188BFF36F8F02F07F43B3F183
:101D20007F4F07D102F00C03082B12D15B495C48AE
:101D300004F07DF9002634460023FB71EB1E092BCD
:101D400000F28980DFE803F00A7F827B878787873C
:101D5000878510074CBF0C460126EDE751495048D6
:101D60004D4D04F064F90023FB71EB6A9A0705D529
:101D70004D494B4804F05BF9002331E0EB6A002B3E
:101D800001DA4A49F5E7EB6A5B00F5D54849444872
:101D900004F04DF96B69A26943F480736B61BFF382
:101DA0004F8FBFF36F8F6B6932F8022C23F480736F
:101DB0006B61BFF34F8FBFF36F8F4DF602739A4283
:101DC00007D0AB6ADBB26BB3F91D0120FFF772FEDF
:101DD00037E02368374A3248012104F050F823687D
:101DE000FA79DAB907F1080504F1200C2068616876
:101DF0002A4603C2083464451546F7D17A6A002E94
:101E000045D0C2F3080121B96FEA52226FEA42229B
:101E10007A6207F108011846FFF7BCFD2837BD4676
:101E2000BDE8F081AB6A13F47F4F04D0F91D0120A7
:101E3000FFF7FCFE05E0AB6AB3F5803F9CD3FFF7EC
:101E4000A1FE0346CCE7F91D0020BFE7F91D0020E5
:101E5000EEE719498DE7194A194B18F4F87FE8465F
:101E60008AB018BF13466A461649C2E905134FF4F3
:101E700000731384103D144BD56142F8103F08489D
:101E800000234FF41151FFF7A5F9C54674E722F47A
:101E9000FF7222F00102BBE700ED00E01F7B0000B3
:101EA000C47100004A7B0000617B0000827B00005F
:101EB000907B0000AF7B0000CB7B0000067B000026
:101EC000F17A0000EF7B000004000001044B5A6926
:101ED00042F010025A615A6922F008025A617047B2
:101EE00000ED00E0EFF30880EFF3098101B57246E1
:101EF000FFF704FF01BD00BF002080F31488BFF38B
:101F00006F8F0F4880F3088801F012F900200D4907
:101F10000860BFF34F8F00F019F8202080F311887C
:101F200009484FF40061401880F30988EFF31480EA
:101F30000221084380F31488BFF36F8F00F0CAF8C2
:101F4000B020002094ED00E07013002072B6002352
:101F500083F31388144B4FF0FF32C3F88020C3F88B
:101F60008420C3F88820C3F88C20C3F89020C3F8DD
:101F70009420C3F89820C3F89C20C3F88021C3F8AC
:101F80008421C3F88821C3F88C21C3F89021C3F8B9
:101F90009421C3F89821C3F89C2162B6BFF34F8FF8
:101FA000BFF36F8F704700BF00E100E0084B9B68F4
:101FB00083420BD1EFF3058343B1064B5A6842F0DD
:101FC00080525A605A6A22F400425A6202F06EBA93
:101FD000600E002000ED00E011498A684FF03000EB
:101FE0001044EFF3098C80E8F01F202080F3128862
:101FF000BFF36F8F0B4F4FF000664A698A603E60F7
:10200000506E094C2060906E0023936680F3118817
:1020100002F1300090E8F01F8CF30988704700004F
:10202000600E002004ED00E0900D00201EF0040F73
:102030000CBFEFF30880EFF30980816911F8021CEF
:102040000229FFD001B5724603F0E6FF01BD00BFD3
:1020500040B2002807DB044A4109012300F01F00B9
:10206000834042F82130704700E100E0054B42090F
:1020700000F01F0053F82220012303FA00F0104063
:10208000704700BF00E100E040B20028A8BF00F1A7
:10209000604001F10101B8BF064B4FEA4111ACBFEE
:1020A00000F5614000F00F00C9B2B4BF195480F8C8
:1020B0000013704714ED00E0044B054A23F07F0342
:1020C0009360BFF34F8FBFF36F8F70470000000026
:1020D00000ED00E008B5FFF7EFFF074AD2F88830BF
:1020E00023F47003C2F88830FFF72CFCFFF736FCAE
:1020F00000F042F801F018FD00ED00E042F8203C4D
:10210000009B42F81C3C0A49019B42F8183C029B88
:1021100042F8143C21F001014FF0807342F8043C76
:1021200042F8081C0023203A02658366704700BF0E
:102130003D0A000000B50B4B98600B4B1546426EF4
:102140001A600E462C4686F309880020034B9847F8
:102150002046002100220023014C2047456000005A
:102160003D0A0000600E0020900D0020014B10225F
:102170001A61704700ED00E0044800232021C218D6
:102180000133302B82F80013F9D1704700E100E0F1
:1021900008B5EFF30583064A103B02EBC30152F882
:1021A000330049688847BDE80840FFF773BC00BFAB
:1021B000C86F0000F0B587B007460E4614460021F0
:1021C000102268461D4604F00DFE02238DF80230F1
:1021D0002A46054B019321466846CDE9047602F074
:1021E0009DFE07B0F0BD00BF8B60000008B5024B3C
:1021F0001B689847002008BD940D0020034B044A3B
:102200001860937843F0020393707047940D002098
:102210003000002008B50649064821F00701C1F149
:10222000005202F5802203F07EF9002008BD00BFB5
:10223000B7200020980D00200E4A0123C2F8403537
:102240004FF080424FF08051C2F87835D1F830011C
:10225000082808D1D1F83411052904D80648415C72
:1022600009B1C2F838364FF080430122C3F8802507
:102270000020704700E00140027C000048B1054B9F
:10228000054A1B68B3FBF2F35843044B43F00103C8
:1022900018477047D000002040420F000072000035
:1022A00008B50448044A3F23C0E9002301F01EF8A2
:1022B000002008BDA40D0020FFFF0F00084B70B5E3
:1022C000C31A0D4607499B1004465943064840224D
:1022D00003F0EFFE2B4601462046BDE8704018474C
:1022E000C00D0020B76DDBB6486F000073B50C4C15
:1022F0000C4A4023041B00930D460B460A49A410C8
:1023000061430646094803F0FFFE011E05DA304628
:102310002B4602B0BDE87040184702B070BD00BF48
:10232000C00D002071610000B76DDBB6486F000082
:102330000022F8B5012105461046FFF7A5FE10481A
:1023400000F0FCFF0446B8B901F018F82F690D49F8
:10235000384603F05EFC031E09DB01263E642D694E
:10236000084905F11C0003F054FC031E02DA1C4668
:102370002046F8BDEE64FBE76FF00404F8E700BF09
:10238000B5240000C47200001FB500220123CDE96E
:102390000223094ACDF800D06B46CDF804D003F0F3
:1023A000E0FE002805DB4FF480420023684601F080
:1023B0005BFD05B05DF804FB8361000010B5EFF331
:1023C0001184202383F31288BFF36F8F074A1368A9
:1023D00023F00201DB07116002D4012004F018F899
:1023E00084F31188BFF36F8F10BD00BF100E002063
:1023F00030B4104B0C2202FB003301460020D3E91D
:102400000E529863EFF31180202484F31288BFF3F7
:102410006F8F1C6C04F0C00444F002041C6480F351
:102420001188BFF36F8F1DB12B46034830BC18478E
:1024300030BC7047C00D0020486F000010B4EFF3AF
:102440001182202383F31288BFF36F8F174801682E
:1024500041F002040460C80707D482F31188BFF377
:102460006F8F012010BC03F0CBBF4FF08041D1F83B
:102470000C04D1F80C14C907EFD5EFF3118083F3E6
:102480001288BFF36F8F0A490B6C03F0C00343F04F
:1024900002030B6480F31188BFF36F8F82F31188FE
:1024A000BFF36F8F002010BCFFF7A2BF100E0020FB
:1024B000C00D002010B1012804D07047034B1B6CE5
:1024C0005B0701D1FFF794BF704700BFC00D00202C
:1024D0002DE9F0413849BFF35B8F0746012251E8EF
:1024E000003F41E800200028F9D1BFF35B8F33B9EA
:1024F000324933484B60CB608A6003F09DFB7B1E02
:10250000012B2BD8012F07D14FF08043D3F81C3477
:1025100003F00303012B21D004F026FB0546F8B994
:10252000284B1B78E3B14FF080430222C3F8082305
:102530000646DFF894804FF08044D4F81824D4F88D
:102540001834D20315D503F00303012B01D0012F5A
:102550000FD155B386F31188BFF36F8FBDE8F081BB
:10256000EFF31186202383F31288BFF36F8F0125C9
:10257000DFE7ADB1304603F079FDD4F81835002B14
:10258000DBD1D4F80421002AD7D0C4F80431D4F820
:1025900004310123C4F81835C8F88031A360CCE7B2
:1025A0000021212004F07CFBE7E74FF0804302226A
:1025B000C3F80423D2E700BFBC0D0020AC0D0020FF
:1025C000DC0D00206910002000E100E008B507489C
:1025D00004F032FA38B10648FFF710FE0448FEF75F
:1025E00027FA002008BD6FF01200FBE7A86F00007B
:1025F000F52500000A2838B5074D044604D1AB681C
:102600000D215B6828469847AB6803485B68E1B2D8
:102610009847204638BD00BFA86F0000F0B5456858
:102620001646A8682A7C01F01F0487B044EA4214C9
:10263000002869D0B6F5001F04D1214604F0DEF968
:10264000002052E001AA0020B6F5800F01905060F2
:1026500037D1B3F1007F14BF052304238DF8043074
:102660000023CDE904230393EB6823FA01F111F071
:1026700001010DF103073AD1B6F1A07F37D104F083
:102680001F03620903F5E07326D0012A3FD1214AD6
:1026900052F82330DB072AD4A8683A46214604F0D2
:1026A00023F916301BD00297A86803AA214603F02D
:1026B000E7FF002819DBA8680122214604F04BF946
:1026C000BEE7B3F1C06F05D0B3F1007F14BF0123A3
:1026D0000223C3E70323C1E74FF0A042D8E7A8686D
:1026E000394600F0FDFF0028DDDA07B0F0BDA8682C
:1026F0003A46214604F0F8F80028D5D19DF8031099
:10270000A86800F0E7FFCFE76FF08500EDE751F82C
:102710002330FFDE00030050420970B5034602D0AB
:10272000012A17D070BD0D4E326951680029F9D0C9
:1027300003F01F0301250C689D400029F2D08A6830
:102740002A4002D04B68304698472CB12368214676
:102750001C46F2E7024EE7E72346F8E7886F0000E1
:10276000686F000038B54568A86890B104F0EBF8D0
:10277000014670B9A86804F0CAF8044658B9024680
:102780000649A86804F0ADF8224605210620FFF7A7
:102790007BFC002038BD6FF00400FBE71927000028
:1027A0002DE9F043476840F20636D0063B7C87B0FF
:1027B00002EA060654BFC2F3401C4FF0030C01F0BE
:1027C0001F05B6F5837F144645EA43158DF803C00F
:1027D00045D00DD8062E16D005D8A6B1022E40D071
:1027E0006FF0150038E0B6F5807FF9D101260AE0D8
:1027F00040F20222964236D0B6F5407F35D0B6F58B
:10280000007FEDD102260123220303FA01F12ED528
:102810007B68C3F80815B86890BB05F01F036D0905
:102820002BD0012D75D13D4A02EB830284F4803315
:10283000D2F80017C3F30043C4F3404444EA43040E
:1028400021F4E16144EA8C0421F0070144EA062303
:102850000B43C2F80037002007B0BDE8F08307261D
:10286000D1E70426CFE70526CDE70326CBE76303B0
:1028700044BF7B68C3F80C15CDE74FF0A042D3E707
:102880000DF10202294604F02FF814F4403F80466F
:102890000CD1B868294604F05CF8B8F1000FDAD121
:1028A0009DF80210B86800F015FFD4E74FF000095A
:1028B00001ABCDE90199CDE90439CDF80C90B868A8
:1028C00003AA294603F0DCFE4845C4DB14F40033B8
:1028D00014D084F480349DF803308DF80E30C4F3A6
:1028E00000448DF80C608DF80D40B8684B4603AA83
:1028F000294603F07DFF0028CFDAACE7CDE90433A9
:102900000DF103030393B86803AA294603F0B8FE48
:10291000F1E703F5E07350F82330FFDE00030050C9
:10292000036803F01F025B09026004D0012B034817
:1029300018BF002070474FF0A040704700030050C0
:102940002DE9F04FDFF8B4B185B01546824600EBB3
:10295000810840F2FF19D04503D1002005B0BDE841
:10296000F08FDAF800305804C3F3C321C3F308042E
:1029700000F1BD80624A4C45515C4FEA136312D0AE
:10298000222B1ED94E2B40F0B580C5F8144503A864
:102990000394FFF7C5FF039B012606FA03F3C0F873
:1029A0000835374654E0222B09D94E2B40F0A2803F
:1029B0004FF0FF33C5F814350AF1040ACBE74FF0A6
:1029C000FF34222B00F29680DFE803F012171D205F
:1029D0002329209494949439639494949494949493
:1029E0009494667174779494947A8285888B8E001F
:1029F000C5F80C45631CCAD1DEE7C5F81445621C56
:102A0000DAD00026CDE7C5F80845F3E7C5F810454C
:102A1000F5E7631CC5F80845CED0002604E0671C26
:102A2000C5F80C45C8D0012603A80394FFF778FF2A
:102A3000039B012707FA03F3C0F80C3508E0C5F83B
:102A400008450029DBD1661CB6D000263746062192
:102A5000DAF80030019303F40040002803A81CBFFB
:102A6000002701260394FFF75BFF039C019B00EB0B
:102A70008400C3F3412CD0F800470B0243EA8C03D7
:102A80003B4304EA0B04234343EA4603C0F8003700
:102A900092E7C5F80C45D4E7C5F86045601CDAF844
:102AA000003089D0C3F30043002BBCD06FE7C5F8DA
:102AB0006445F3E7C5F86845F0E7C5F86C45EDE710
:102AC000C5F82445621C3FF477AF00270126BFE715
:102AD000C5F828458EE7C5F83045F3E7C5F8344515
:102AE000F0E7C5F83845EDE7C5F83C4582E76FF0FB
:102AF000150033E76FF0850030E700BFF0F8FCFF0A
:102B0000517C00002DE9F041044647680D4604F071
:102B10002BF84FF0200888B9264B1B7873B1642638
:102B2000606803F0B9FBF0B9012003F016FC013E28
:102B3000F6D10021212004F0B3F8F0E7EFF311867D
:102B4000314688F31288BFF36F8F606803F0A4FBEF
:102B5000A8B986F31188BFF36F8FEFE786F311886A
:102B6000BFF36F8FE5E7EFF31186314688F31288E4
:102B7000BFF36F8F606803F08FFB0028EED0BB6956
:102B80001D706368BA691B680020C3F844250122E0
:102B9000C3F84825C3F82001D3F82041C3F85801F1
:102BA000D3F858019A6081F31188BFF36F8FBDE8A5
:102BB000F08100BF691000202DE9F0410022054698
:102BC00001210220FFF760FA0220FFF741FA6C684A
:102BD0000121E06803F091FB6B681A682369C2F871
:102BE0002435617D237D0B43A17D0B43C2F86C35F9
:102BF0006F68D7E9004313F0010346D0D5F8108081
:102C000004F10C0108F1080204F5907003F0E2FBF6
:102C1000061E07DA2A4A2B48012103F027F930461D
:102C2000BDE8F08198F8080000F074FB0823C4F8B0
:102C30000035BB69C4F844350023C4F84835012386
:102C4000A360D4F85831002BFBD00026C4F80065EF
:102C50006B683146D86803F050FB6D6831462C68CC
:102C6000E86803F04AFB0823C4F800352A7A52B911
:102C7000EB69C4F834350123C4F83835C4F81021A1
:102C8000D4F8102123600026C9E70822C4F80025E3
:102C9000BA69C4F84425C4F848350123A360D4F8C0
:102CA0002031002BFBD00023C4F82031D4F8203190
:102CB0000123E3604FF48073C4F80433C1E700BF1D
:102CC000597C0000D471000070B5012383400E4A86
:102CD000BFF35B8FDC4352E8001F01EA040542E8C2
:102CE0000056002EF7D1BFF35B8F4FF48032824045
:102CF0000648C0F80823BFF35F8FBFF36F8F0B4206
:102D000014BF0120002070BD3C0E002000100140C7
:102D100070B40E49D1E90034D01AC31844F100044C
:102D200022F07F46C1E90034A6F50013B3F5400F49
:102D300009D2074B1B681A0A1B069C19054B42F166
:102D40000005C3E9004570BC01F094BDA806002051
:102D5000400E0020B006002011B3BFF35B8F0123AB
:102D6000104A834052E800CF4CEA030C42E800C10D
:102D70000029F7D1BFF35B8F0B4A4FF480338340B8
:102D8000C2F80433094BBFF35B8F1B68BFF35B8F43
:102D9000C340DB0742BF064B4FF40032C3F80021AB
:102DA000704700BF3C0E002000100140380E00208C
:102DB00000E100E00D4B1868010A0006BFF35F8FC9
:102DC0000B4BD3F80435181841F10001B3F5801FFF
:102DD0000AD2084BD3E90023904271EB030303D2DC
:102DE00010F1807041F10001704700BF400E0020DB
:102DF00000100140B00600202DE9F04F85B01646C6
:102E00001F469DF840A00446FFF75EFF0190FFF7C4
:102E1000D1FFB04271EB070354D23E4B301A67EB3F
:102E20000101984271F100014FD23B4B03EB0413B7
:102E3000D3E902239F4208BF96425ED037494FF440
:102E4000803804F1500508FA04F8AD00C1F8488351
:102E50002046ADB203F063FA26F07F4B05F18045C2
:102E600004F5A87305F58835DC464FF00309029395
:102E7000029A2CF07F4341F82230C1F84483D1F804
:102E80000435274A6FF00200C01A604420F07F40EA
:102E9000904232D9286868B1D1F804350393A3EB86
:102EA0000B0020F07F40B0F5000F26D9204603F03C
:102EB00036FA039BBAF1000F07D109EB030C09F1B5
:102EC0000109D5E7BAF1000F09D06FF015052046CA
:102ED0000199FFF741FF284605B0BDE8F08F0123B7
:102EE000104ABFF35B8FA34052E8000F184342E83B
:102EF00000010029F8D1BFF35B8F07490E98230129
:102F000001EB0412C8500F9B5360C2E90267002511
:102F1000DDE700BF0100800098060020001001409E
:102F2000FDFF7F00380E00207FB51C4C1C4BC4F801
:102F30000833C4F848331B4B00254FF0FF304FF0E7
:102F4000FF31C4F80855C3E902014FF48033C4F8D7
:102F50000433154B02264FF400320121C4F80463F8
:102F60001120C3F880212A46FFF78EF81120FFF7C1
:102F70006FF80E4A0123A360236013600C4B0D4AC7
:102F80000093CDE9015500232846FFF735FF304671
:102F9000FFF79EFA284604B070BD00BF0010014044
:102FA00003000F009806002000E100E03C0E002026
:102FB000112D0000FFFF7F002DE9F7432F4CD4F8BF
:102FC000043399070BD5D4F8043143B12C4A0023BC
:102FD000C4F80431D4F80431136801331360D4F811
:102FE0000433DA0329D5BFF35B8F264B53E8002F58
:102FF00022F0010143E800100028F7D1BFF35B8FF6
:10300000D30702D4D4F84031BBB10025C4F84051F5
:10301000D4F84031FFF7CEFEEFF31182202383F383
:103020001288BFF36F8F184BD3E90267B042B941E2
:1030300006D282F31188BFF36F8F03B0BDE8F0832F
:103040004FF0FF384FF0FF39C3E90289D3E9001090
:103050001D604FF48033C4F84833C4F84051D4F8AD
:10306000403182F31188BFF36F8F0029E5D00090C3
:1030700032463B4628468847DFE700BF0010014044
:10308000400E0020380E00209806002030B5431C6A
:10309000124C85B005D08442A8BF0446012CB8BFAD
:1030A0000124FFF787FE0E4B0C4DD3E90013401AA5
:1030B000B0F5000F10D22218AA4228BF2A46521893
:1030C0004FF0000007490091CDE9010043F10003F2
:1030D000FFF792FE05B030BD2A46F0E7FFFF7F0004
:1030E000A8060020112D000008B5FFF763FE024B73
:1030F0001B68C01A08BD00BFA80600204FF080530F
:10310000D3F83021082A06D1D3F83431052B02D860
:10311000024AD05C70470020704700BF9C7C0000D2
:10312000024AD2F80034002BFBD0704700E0014087
:1031300010B54FF08053D3F83021082A4ED14FF00C
:1031400080420021C2F80C11C2F81011C2F83815E3
:1031500002F54042D3F80414C2F82015D3F808143D
:10316000C2F82415D3F80C14C2F82815D3F810149B
:10317000C2F82C15D3F81414C2F83015D3F818146B
:10318000C2F83415D3F81C14C2F84015D3F8201433
:10319000C2F84415D3F82414C2F84815D3F82814FB
:1031A000C2F84C15D3F82C14C2F85015D3F83014CB
:1031B000C2F85415D3F83414C2F86015D3F8381493
:1031C000C2F86415D3F83C14C2F86815D3F840145B
:1031D000C2F86C15D3F84434C2F87035FFF78EFF8F
:1031E00018B13A4B3A4AC3F88C26FFF787FF18B15B
:1031F000384BFB22C3F81825FFF780FF70B14FF062
:1032000080414FF08053D1F8E42ED3F8583222F0A9
:103210000F0203F00F031343C1F8E43EFFF76EFF04
:1032200020B12D4B4FF40072C3F840264FF080536D
:10323000D3F83031082B1AD14FF08043D3F8002453
:10324000D20744BF6FF00102C3F800244FF080534F
:10325000D3F83431052B02D8204AD35C3BB14FF070
:103260001023D3F808224FF08043C3F858254FF0BD
:103270001023D3F80022002A03DBD3F80432002BFA
:1032800022DA174901234FF01020C1F80435122427
:10329000FFF746FFC0F80042FFF742FFC0F80442C4
:1032A000FFF73EFF0023C1F80435FFF739FFBFF3F6
:1032B0004F8F0C490C4BCA6802F4E0621343CB6099
:1032C000BFF34F8F00BFFDE710BD00BF00500040AF
:1032D0004881030000F0004000900240967C00000E
:1032E00000E0014000ED00E00400FA05014B186029
:1032F000704700BF440E002010B5054B18681446F7
:1033000003F02DF80028A4BF2070002010BD00BFDE
:10331000440E0020024A01238340C2F8043570475E
:1033200000F00140014B00201B681847480E0020A8
:10333000014B1B68184700BF480E002010B50C4C0D
:10334000237993B9012323710A4B2060002818BF09
:10335000184600F05BF850B923680748002BBDE819
:10336000104008BF184600F0A1B86FF0770010BDFC
:10337000480E0020253300003133000008B5064B0D
:103380001B683BB10020FEF771FE18B9BDE808408C
:10339000FEF75EBE08BD00BF480E00204FF0805310
:1033A000D3F83021082A06D1D3F83431052B02D8BE
:1033B000024AD05C70470020704700BFA27C00002A
:1033C00038B54FF080440123C4F80833636000230C
:1033D000C4F80031D4F8003142F21075D4F80C244E
:1033E000D4F80C34D20307D5DB0705D5012002F051
:1033F000B4FF013DF2D138BDFFF7D0FF0028FAD06D
:10340000014B00225A71F6E7500E002010B5084912
:103410000C794CB9012308600B71FFF7BFFF08B9A5
:10342000002010BD4C71FBE76FF07700F9E700BF9B
:10343000500E00204FF080430022C3F80021D3F843
:103440000021094901221A60096811B1C3F8042357
:103450007047D3F80021002AFBD00022C3F80021D6
:10346000D3F80031704700BF500E002010B54FF068
:103470008043D3F80423D20715D5D3F8002192B1A5
:103480000022C3F800210121D3F80021C3F808135A
:10349000FFF784FF044B10B15A7922B95971BDE886
:1034A00010401B68184710BD500E0020074A1379C2
:1034B00043B90121106011714FF080421846C2F8E3
:1034C000183570476FF07700704700BF580E002026
:1034D00010B54FF080431D4CD3F81814D3F81824BE
:1034E00011F4803F19D002F00302012A03D00AB17F
:1034F00002F09FFF00224FF08043C3F818250022FE
:10350000C3F80421D3F8042101229A60226872B919
:10351000D3F80421002AFBD011E0D3F81424D107FA
:10352000E8D5D3F81C249207E2D422681AB102220B
:10353000C3F8042310BDD3F80421002AFBD00022D5
:10354000C3F80421D3F80431F4E700BF580E00207B
:10355000F8B54FF08043194FD3F80443012504F028
:103560001A04002604B9F8BDB4FA84F0C0F11F00B3
:10357000830003F580739BB203F1804305FA00F2E8
:10358000196824EA02040029ECD01E601B684FF081
:1035900080430128C3F808230CD1D3F81824D3F8AA
:1035A0001824920706D10222C3F81805C3F8042391
:1035B0009860D7E73B68C0B29847D3E7580E002021
:1035C000036803F01F025B09026004D0012B03486B
:1035D00018BF002070474FF0A04070470003005014
:1035E000034A430900F01F00D35C1844C0B270477F
:1035F000A87C0000034611F0010030B5CCB213D115
:10360000A207C4F3400020D5124AD2F82005586022
:103610004FF08053C2F82005D3F83031082B15D075
:10362000003818BF012010E04FF0A0414FF0805546
:10363000D1F820251A60C1F82025D5F83051082D81
:1036400008BFD1F82015002ADAD030BDD2F82035D5
:10365000E6E700BF00030050F7B504460846FFF751
:10366000BFFF06B204EB46060D46B38ADB072BD537
:10367000204602F0E2FF2946204602F04DFF58B1F5
:10368000204602F05FFF276800B207EB80030022AC
:10369000C3F81025C3F810252946204602F07BFF09
:1036A0000021B18201A80195FFF78AFF019B00EB81
:1036B0008300074BD0F80027134043F00203C0F803
:1036C0000037084603B0F0BD6FF01500FAE700BF01
:1036D000F0F8FCFF014802F060BE00BFD4000020FB
:1036E00010B504480C4602F03AFE0028A4BF207032
:1036F000002010BDD40000202DE9F04F804689B095
:1037000058F804ABDAF80413C9B28346082241F032
:103710000041504602F069FF051E2BDA0023032109
:1037200006A8CDE90633FFF765FF644B01930DF161
:1037300018090023019A009312F8013B6049019295
:10374000DA0803F007038A5C22FA03F3DA071AD4D3
:10375000009B09F10409A3B14FF00041002250463B
:1037600002F043FF032106A8FFF744FF0028DCD145
:1037700025F000450124002D40F08A8009B0BDE805
:10378000F08F0123D6E7009B4E4A13440293D9F8E9
:1037900000100029DCD0029B91FAA1F11C78B1FA4B
:1037A00081F141EA44142046FFF71AFF0BEB400079
:1037B0000594878AC808BB0819F80020039301F014
:1037C0000701012303FA01F122EA010209F80020AE
:1037D00005A8FFF7F5FE059A039B02F5E072C7F313
:1037E000820650F822205B073746C2F3014233D5E8
:1037F000D6B240463A46214602F0AEFE05A80594F0
:10380000FFF7DEFE059B03F5E07350F82330C3F3AA
:1038100001439E4207D10021204602F06EFE314650
:10382000204602F06AFE05A80594FFF7C9FE059B35
:10383000012202FA03F3C0F820354FF08053D3F889
:103840003031082B01BFD0F82035D0F82035D0F822
:103850002035D0F820359AE7022A0DD103212046E1
:1038600002F04BFE06F00503012BDCD13A4621465F
:10387000404602F071FED6E702212046039202F094
:103880003CFE032EF2D0039A032ACCD1022EECE7A1
:1038900095FAA5F3B3FA83F304FA03F225EA0205D5
:1038A00003F5A2720BEB43035AF82220B3F87C1005
:1038B000C2F30142404602F04FFE5CE7B87C0000D4
:1038C00070730000B87C000010B50446FDF7B2FB31
:1038D0000348044A012102F0C9FA204603F0B7F870
:1038E000C4710000BA7C00002DE9F843044600AF23
:1038F0000D46EFF31188202383F31288BFF36F8FF7
:103900000428294A98BF294B9668117C94BF53F824
:103910002030274BE9468AB06A462648C2E907317B
:1039200040F201339384244BC2E9050442F8103F6E
:10393000224800234FF43151FDF74CFCCD4645B1F0
:10394000EB69C3F3080323B11D4A1C48012102F0AF
:103950008DFA2EB1304603F010F908B1037803B99F
:103960001848E9468AB06A46174BD061C2E9053665
:1039700040F201331384154B42F8103F00230F48E7
:103980004FF41151FDF726FC2946CD462046FFF79E
:103990009BFF88F31188BFF36F8F3046FEF706FB5D
:1039A000BD46BDE8F88300BF600E002074730000C0
:1039B000C97C0000DF7C000005000001C47100002C
:1039C000077D0000D77C0000287D00000400000176
:1039D00038B50A4B53F82040013053F82050A54227
:1039E00000D838BD606830B1037FDB0701D403F035
:1039F0000BF80834F3E723689847FAE78873000068
:103A000070B52A4B2A4C2B4D012286B003201A7028
:103A1000FFF7DEFFFDF79CFE0420FFF7D9FF2646E7
:103A2000AE4204F1300410D300F046FC204C224E8C
:103A3000AC4226D300F054FCFCF790FB1F4A137BEA
:103A400023F00103137306B070BD54F80C3C0593CA
:103A500054F8103C049354F8143C039354F8183C65
:103A6000029354F81C3C019354F8203C009354E911
:103A70000A2354E90C0100F01DFA54F8303C5E654D
:103A8000CDE7D4E90A23B3F1FF3F08BFB2F1FF3F0E
:103A900005D052EA0301206803D100F0DDFC303488
:103AA000C6E73146183000F055FEF8E769100020EF
:103AB00048710000487100006D6C0000280700206C
:103AC00070B5144E144D1549702386B003FB006683
:103AD00001220023CDE904230F22CDE90232019314
:103AE000142303FB00554FF4A072044602FB00119F
:103AF0000B4B0095304600F0DDF9737B2C7423F0FE
:103B000004037373074BEE60013403EBC4236B6053
:103B100006B070BDB8060020600E0020701B0020AB
:103B20001D6B000070130020BFB50020FFF750FF91
:103B3000274B83F30888274C274F636943F40073AE
:103B400063610025E02384F82230E57725766576E9
:103B5000A57684F82050636A43F4E023636284F816
:103B60002350FEF7B3F9FEF701FB4FF0FF33A362DA
:103B7000E362FDF7BBF91948194C00F0FFF9012089
:103B8000FFF726FF0220FFF723FF00F0DDFB154BB8
:103B900015495C61154B05930123CDE903534FF49F
:103BA00080623B46CDE901550095204600F082F940
:103BB000627B064622F004022046627303F019F885
:103BC0002846FFF77DFF3A4631462046FEF7B2FA17
:103BD000701B002000ED00E0013A00009807002073
:103BE00028070020600E0020B01C00208A7D000005
:103BF00038B5064C064D0020AC4200D338BD2046F7
:103C000002F02DFF0028F9DB1C34F5E788010020C5
:103C10008801002073B50C46EFF31181202585F350
:103C20001288BFF36F8FC5685DB125602B68C360D4
:103C3000836901338361002081F31188BFF36F8FA3
:103C400011E052EA030603D125606FF00B00F3E7A1
:103C5000CDE900230246083000F074FA18B9034B8E
:103C60009B681B69236002B070BD00BF600E00201E
:103C70002DE9F341044617461E46EFF31188202331
:103C800083F31288BFF36F8FC368334A7BB18068B8
:103C90009168884219D057EA060318D188F3118831
:103CA000BFF36F8F6FF00F0002B0BDE8F081916835
:103CB00091F90E1021610133E3609368A36088F3EA
:103CC0001188BFF36F8F0020EEE72169F2E791F9C9
:103CD0000E1090F90E309942A8BF19466FF07E027F
:103CE0009142B8BF11468B422DDD02F022FF0546FE
:103CF000CDE9007619482246414600F023FA002813
:103D0000E1D0EFF31186202383F31288BFF36F8F86
:103D1000A068D0B1236821699C420AD04BB193F9C5
:103D20000E309942A8BF19466FF07E039942B8BF82
:103D3000194602F0FEFE40B10848314600F096FAFE
:103D40006FF00A00B0E70025D2E7002DF4D186F32A
:103D50001188BFF36F8FF3E7600E00206A10002018
:103D6000F8B583680546002B3FD0234A92689342FA
:103D70003ED1C368012B03D9013BC3600020F8BDCD
:103D8000EFF31187202383F31288BFF36F8F01694C
:103D9000806802F0CEFE2C68AC4207D10023C5E952
:103DA000023387F31188BFF36F8FE7E7002CF5D05C
:103DB000D4E9003213605A60637B002623F00203CB
:103DC0006373C4E90066A66004F1180002F0A6FF60
:103DD000AC6094F90E302B612046E66602F009FFD4
:103DE0000648394600F042FAC8E76FF01500C6E70A
:103DF0004FF0FF30C3E700BF600E00206A100020C4
:103E000070B5EFF31186202383F31288BFF36F8F11
:103E10000468A0421AD0CCB1D4E9003213605A60D1
:103E2000637B002523F002036373C4E90055A5609A
:103E300004F1180002F072FF2046E56602F0D9FE98
:103E400031460848BDE8704000F010BAD0E90232AF
:103E50009A4218BF0133836086F31188BFF36F8FD6
:103E600070BD00BF6A10002013B5EFF3118120244C
:103E700084F31288BFF36F8F846844B1013C84607F
:103E800081F31188BFF36F8F002002B010BD52EA9A
:103E9000030406D181F31188BFF36F8F6FF00F0019
:103EA000F3E7CDE900230246014800F04BF9ECE7C7
:103EB0006A1000202DE9FF41984600F15803D51DF6
:103EC000C0E916330E9B037325F007050423002673
:103ED00043730D440D9B83730F46C0E90666294664
:103EE0008660C6730446FDF7B5FD0C9B0293073050
:103EF0000B9B019320F007000A9B00932D1A434669
:103F00002A4639462046FEF7F9F8054B66659B6858
:103F100003B11B6E2366284604B0BDE8F08100BFE4
:103F2000600E0020F0B587B000250595109D049522
:103F30000F9D03950E9D0295DDE912760D9D01956D
:103F40000C9D00950446FFF7B5FFB6F1FF3F08BF93
:103F5000B7F1FF3F05D056EA070305D1204600F030
:103F60007BFA204607B0F0BD3A46334604F118000C
:103F7000014900F0EFFBF4E76D6C000040F2011323
:103F8000838100230366014B98607047600E002018
:103F9000094A93686FF00A01D966084998664B6828
:103FA00043F080534B60002383F31188BFF36F8F7E
:103FB0009368D86E704700BF600E002000ED00E0EF
:103FC00070B590F90D20437B002A36DBD90634D139
:103FD0001B4C63F07F032246437352F8183FE1699C
:103FE000934207D1C0E900210860E06111E09942E5
:103FF000F8D01B68002BF5D090F90E5093F90E60A5
:10400000B542F4D0AE42F2DD5968C0E90031086033
:104010005860A569954200D005B9E568A3685A7B48
:10402000D20604D1DA897F2A01D9AA6932B1AB421A
:1040300002D0284600F008FB656170BD6361FCE7B3
:10404000600E002038B590F90D20437B002A014610
:1040500004DA03F07F03437302F091FD0D4D2A460D
:10406000AB6852F8184F944200D004B9EC688B4208
:1040700007D05A7BD20604D1DA897F2A01D9A269F6
:104080002AB1A34202D0204600F0DEFA23466B613B
:1040900038BD00BF600E0020B3F1FF3F08BFB2F192
:1040A000FF3F03D00249183000F054BB704700BFF7
:1040B0006D6C000070B590F90D20437B002A01461D
:1040C00004DA03F07F03437302F059FD4B7B1C4C71
:1040D00063F07F0322464B7352F8183FE069934226
:1040E00007D1C1E900200160E16111E09842F8D0F8
:1040F0001B68002BF5D091F90E5093F90E60B54274
:10410000F4D0AE42F2DD5868C1E900300160596078
:10411000A569A368954200D005B9E5688B4207D030
:104120005A7BD20604D1DA897F2A01D9AA692AB139
:10413000AB4202D0284600F087FA2B46636170BD7F
:10414000600E0020F8B50E4B0C4611460D4A9868DB
:104150001060DDE90667EFF31182202282F31288F6
:10416000BFF36F8F9D68284602F01BFD284632463C
:104170003B46FFF791FF2046BDE8F840FFF708BF38
:10418000600E0020800E0020F8B50446EFF3118782
:10419000202383F31288BFF36F8F437B03F01F024A
:1041A000002A0CBF0126002649B239D103F07F0353
:1041B000437302F0E4FC2C4D437B817363F07F0377
:1041C0002A46437352F8183F934227D1E869C4E95D
:1041D00000200460EC610FE09842F8D01B68002BCF
:1041E000F5D093F90EC06145F6D08C45F4DD5968E1
:1041F000C4E900310C605C60AC69944200D004B941
:10420000EC68AB689C4202D0204600F01DFA6C615D
:1042100087F31188BFF36F8F3046F8BDE869DEE79A
:104220009B071ED5856802F0AAFC81732B689D420E
:1042300009D16B68C4E900531C606C60E8E76A68E8
:104240009342F6D01B68002BF3D093F90E209142D5
:10425000F5D08A42F3DD5A68C4E9003214605C602C
:10426000D6E78173D4E700BF600E002049B9EFF3B1
:10427000058030B9054B5A699B689A4201D0FFF717
:1042800087BE81F31188BFF36F8F7047600E0020E7
:10429000034648B9EFF3058232B9064A516992687C
:1042A000914201D0FFF774BE83F31188BFF36F8F83
:1042B000704700BF600E0020EFF31181202383F3CD
:1042C0001288BFF36F8F054B9A68D37B013BD37382
:1042D00081F31188BFF36F8F704700BF600E00201D
:1042E00070B5EFF31186202383F31288BFF36F8F2D
:1042F000144DAB68DA7B0132DA732A4652F8184F54
:10430000944200D004B9EC685A7BD20604D1DA8911
:104310007F2A01D9A2692AB1A34202D0204600F027
:1043200093F923466B6186F31188BFF36F8FEFF328
:104330001180202383F31288BFF36F8FBDE8704094
:10434000FFF7A6BF600E0020024B03F11802C3E97D
:1043500006227047600E002070B5EFF3118620230F
:1043600083F31288BFF36F8F1B4CA168E0690B6861
:10437000814214BF1A46002249680B605960A36845
:10438000E1692AB9154AC3E900210B60E3610CE039
:1043900093F90E0092F90E50A84218D0854216DD0E
:1043A0005168C3E900210B605360A5690B4B9D4226
:1043B00000D005B9E568A3689D4202D0284600F008
:1043C00043F965613046BDE87040FFF7E1BD8A42C0
:1043D000D8D01268D5E700BF600E0020780E00200C
:1043E000F8B550EA010306460C4603D1FFF7B4FFC7
:1043F0000020F8BDEFF31187202383F31288BFF369
:104400006F8F124D124BA8681860FFF71BFEA8684B
:10441000104923463246183000F09CF9AA68537BB5
:1044200043F00403537304463846FFF7B1FDAB680D
:10443000D3E90A23B3F1004F08BF002AD8D102F014
:1044400095FC201A20EAE070D3E700BF600E002040
:10445000800E00206D6C000038B50446EFF3118526
:10446000202383F31288BFF36F8F437B5B070FD545
:10447000183002F053FC637B23F00403204663737F
:10448000FFF79EFD29460548BDE83840FFF7EEBE20
:1044900085F31188BFF36F8F38BD00BF6A1000200D
:1044A000014B9868704700BF600E00202DE9F8436B
:1044B0000446077BEFF31185202383F31288BFF3B3
:1044C0006F8F437B190705D585F31188BFF36F8F75
:1044D000BDE8F883D90943F008025DD14273A368AF
:1044E00013B1204602F053FB04F1180002F016FC51
:1044F000A66D04F15808B04511D04FF0000976B10F
:10450000304602F044FB06F1180002F007FCC6F842
:104510006C903046FFF754FDA66DB045EFD1DFF843
:10452000C080D8F808309C423ED1EFF30589B9F13C
:10453000000918BF4FF00109D8F81860294A9642BF
:1045400000D00EB9D8F80C60B34202D0304600F06B
:104550007BF82046C8F8146001F071FDB9F1000F36
:1045600002D02148FFF70AFDD8F808309C4231D12B
:10457000EFF3058373BB227BD20718D42846FFF7DD
:1045800007FDFB07A4D5002383F31188BFF36F8FCA
:104590000423184602DF9BE703F07F0343F0080380
:1045A000437302F0ECFA9AE74FF00009C4E785F391
:1045B0001188BFF36F8F83F31188BFF36F8F0423CC
:1045C000184602DFEFF31180202383F31288BFF334
:1045D0006F8FD4E785F31188BFF36F8FD1E700BFEA
:1045E000600E0020780E002098070020044BC01AAF
:1045F000044BC0105843044B01221A54704700BFAB
:1046000008080020ABAAAAAA6A100020C3897F2B41
:1046100012D80A4B1B6863B1094B90F90E201B6836
:104620009A4209DB437BDB0606D1064BC31A18BF4F
:10463000012303F0010070470023FAE7D8000020AF
:10464000840E0020B806002070B50E4B0E4C1E7C68
:1046500006EB460304EBC3040546204602F05EFB6E
:104660000A4B002228469A55FFF7D0FF48B1084B65
:1046700008491A68013A2046D317BDE8704000F097
:1046800069B870BD600E0020080800206A10002084
:10469000D8000020ED45000038B5EFF31185202348
:1046A00083F31288BFF36F8F104B114A9C68106818
:1046B000A04206D1FFF7C8FF85F31188BFF36F8FC3
:1046C00038BD00211B7C11600A4AD35C002BF3D05B
:1046D0002046FFF79BFF0028EED0637BDB0602D16C
:1046E0002046FFF7E7FC2046E4E700BF600E00200D
:1046F000800E00206A100020024B1868984208BF04
:1047000000207047DC000020034B1B680BB9FEF74C
:10471000EBBC0020704700BF880E002030B570B1A0
:104720000B4B5B6898420AD0036843B1D3E904217C
:10473000D0E90445121941EB0501C3E90421D0E990
:10474000003213605A600023C0E9003330BD00BF5F
:10475000DC000020B3F1FF3F08BFB2F1FF3F2DE9BD
:10476000F84F0446994615461F467AD08160EFF30C
:104770001188202383F31288BFF36F8FB9F1000FE4
:10478000DFF8E4A020DBFFF7BFFFDAE900270135FF
:1047900049F100092D1849EBE073C4E90453AD1841
:1047A000064643EB07074FF00109FFF7A5FFDFF8C7
:1047B000BCE0DEF804A00346EBB9C4E900EACAF89D
:1047C0000040CEF8044028E0DAE900126FF001035F
:1047D0005B1A4FF0FF3161EB02025B1B62EB0902D7
:1047E000012B72F10001BCBF01230022C0E9043299
:1047F0004FF00009D9E7D3E9041CD4E904208A4228
:1048000070EB0C0B24DA891A5A686CEB0000C3E9D0
:104810000410C4E9003214605C60FFF76DFF84424D
:104820000ED1134B1B685BB9B9F1000F02D1FFF732
:104830006BFF0646304602F05AFA0021FEF726FCCE
:1048400088F31188BFF36F8F28463946BDE8F88F8B
:10485000521A60EB0C009A45C4E90420ADD01B68E5
:10486000AAE700252F46EFE720080020DC00002003
:10487000880E00202DE9F047EFF31185202383F304
:104880001288BFF36F8FDFF8A490DFF8A480C9F817
:104890000000FFF731FF00260027D9F80030D8E9E3
:1048A00000ECD91750B1D0E90442A34271EB020ADF
:1048B0001CDAE41A62EB0102C0E9044213EB0E03B6
:1048C0004FF000044CEB01012046C8E90031C9F863
:1048D000004002F00CFA2146FEF7D8FB85F3118860
:1048E000BFF36F8FBDE8F047FFF7D6BE14EB0E02A3
:1048F0004CEBE473C0E90467C8E90023FFF70EFF3F
:1049000085F31188BFF36F8F83689847EFF31185A4
:10491000202383F31288BFF36F8FD9F800301B1B5D
:10492000C9F80030FFF7E8FEB7E700BF880E0020A7
:104930002008002010B5EFF31184202383F31288A0
:10494000BFF36F8FFFF7E0FE054A0346D2E900018F
:10495000181841EBE37184F31188BFF36F8F10BD1A
:1049600020080020F8B50546EFF31187202383F3D4
:104970001288BFF36F8F036823B187F31188BFF3E9
:104980006F8FF8BDD0E90A46611C46F1000202298A
:1049900072F1000236D3012C76F10002BCBF012473
:1049A0001E46013C46F1FF3602F0E4F9013041F1C8
:1049B0000001001946EB0101012871F1000130DB13
:1049C00002F0D8F9013041F100016FF00203001943
:1049D00046EB010183426FF000438B4126DB02F07E
:1049E000C9F9013041F100016FF00102001946EBF5
:1049F0000103121A4FF0FF3161EB03031C492846F3
:104A0000FFF7A8FE2B6B01332B632B6A93B93C464F
:104A10002B4653F8185F9D4200D0D5B984F3118816
:104A2000ADE76FF001024FF0FF33E7E700224FF0F0
:104A30000043E3E787F31188BFF36F8F2B6A2846A3
:104A40009847EFF31184202383F31288BFF36F8F0D
:104A5000DEE7284602F0DCF80023EB6684F31188D9
:104A6000BFF36F8F2846BDE8F84002F0C2B800BF20
:104A7000654900002DE9F04105461C4690461F4659
:104A8000EFF31186202383F31288BFF36F8FB4F105
:104A9000FF3F08BFB2F1FF3F05D186F31188BFF396
:104AA0006F8FBDE8F081002C09DB012A74F100034F
:104AB000BCBF0122002412F1FF3844F1FF37284621
:104AC00002F02CF9DDE906010023C5E90A012B6398
:104AD00042463B4628460249FFF73CFEDDE700BF61
:104AE0006549000010B50A4C23681BB101232360FF
:104AF000002010BD00F0EAF80028F7D001380628A1
:104B000003D8044B53F8200010BD034810BD00BF6C
:104B10008C0E0020A0730000FE8FFFFFBFF34F8FAD
:104B20000549064BCA6802F4E0621343CB60BFF349
:104B30004F8F00BFFDE700BF00ED00E00400FA0565
:104B400010B4094B09490A4C4FF0FE32C3F8002457
:104B50004968C3F80424C3F80824C3F80C240023CC
:104B6000C4F8003510BC084700B00250E400002033
:104B700000A00250D0E90012014BC3E900127047B7
:104B8000E400002010B5044650B1636813F0685F7C
:104B900005D0064A934202D000232360626010BD14
:104BA000034B04485B689847EFE700BF2C5F5CA9A4
:104BB000E4000020BC730000C8B143680D4A934272
:104BC00013D013F0685F0ED0012350E8002F194670
:104BD00040E8001C9CF0000FF7D1012AF5D0BFF38C
:104BE0005F8F0020704704487047044870476FF497
:104BF000E04070472C5F5CA9E98FFFFFEA8FFFFF61
:104C000080B14368094A93420AD013F0685F05D027
:104C1000BFF35F8F00230360184670470448704756
:104C2000044870476FF4E040704700BF2C5F5CA9F8
:104C3000E98FFFFFEA8FFFFF10B5044620B1044B58
:104C400063600022226010BD0248FFF779FFF6E79B
:104C50003A00003AE473000070B5D0E90023174C25
:104C6000174D6360D0E90230C4E902302260486821
:104C7000D1F800C0134BC3E900C0D5F81801D1F832
:104C800008C0C3F808C010F0685FD1F80CC009690B
:104C9000C3F80CC0196110D00B49C5F8BC11002332
:104CA000C5E9453105F58A70C5F8B83190472368E4
:104CB00005F5DC70BDE87040184770BD00010020AC
:104CC000A40E0020EC0000202C5F5CA938B500F099
:104CD0002FF820B1032400F063F8204638BD00F01F
:104CE00031F898B900F0ACF898B90F4DD5F82839DB
:104CF0001B0EF02B08D1D5F8242A0C4B9A420AD06F
:104D0000072400F017F8E6E70624FAE70424204613
:104D100038BD0024F5E7012000F092F80446002891
:104D2000F7D1C5F80C0AD8E700B002500000E02027
:104D30000020704700207047014BC3F8040A7047F9
:104D400000B0025010B5114800F048F800B110BD95
:104D50000F4800F043F80028F9D10E4C204600F02F
:104D60003DF80028F3D10C4B0C481C6000F036F8DD
:104D700001460028EBD100F02DF8044608B120468A
:104D800010BD00F03FF82046FAE700BF40010020C8
:104D90003C010020380100203001002034010020B7
:104DA00008B5084800F024F8074800F021F8074843
:104DB00000F01EF8064800F01BF8BDE8084000F0BF
:104DC0000BB800BF400100203C010020380100204A
:104DD0003401002000207047704700BF08B5034B26
:104DE00002681B6810689847002008BD0001002079
:104DF00008B5034B02685B6810689847002008BD3F
:104E00000001002070B5094C094D2069AB68984736
:104E100018B1084B08485B689847084AEB68206956
:104E200000211160BDE87040184700BFEC00002071
:104E300000010020E400002008740000A00E002003
:104E4000F8B51A4D1A4E0446B26828699047E8B979
:104E5000184F3B684CB1A3B1012B19D0013B3B600B
:104E60002869F36898470020F8BD43B9124A012128
:104E7000C2F800151149D1F81029002AFBD10133DD
:104E80003B60F368286998470020F8BD0C48F8BDDE
:104E90000A4AD2F81039002BFBD1074A6FF07E4046
:104EA000C2F80035FFF748FF3B68D7E7EC00002069
:104EB00000010020A00E002000A0025000B002500F
:104EC000E98FFFFF0CB430B589B005460C461C22B3
:104ED000002101A801F086FF02238DF806300E4B59
:104EE0000293059523462CB1B4F1004F28BF4FF033
:104EF0000043013B1D440DAA0C99069501A80092A0
:104F000000F00CF814B1059B00221A7009B0BDE83E
:104F1000304002B0704700BFBB6E00002DE9F04F7B
:104F20008DB043680293837815469A07804640F116
:104F30000D8100240E78002E00F00A81252E0BD062
:104F40004B1C03930134029B41463046984700288E
:104F5000C0F2F6800399EDE74E788B1C252E039363
:104F6000F0D00027B946BB46BBF11F0F38D8A6F1D9
:104F70002003102B0AD8DFE803F02A0909300909B9
:104F8000092109090928092D09091F00A6F1300383
:104F9000092B33D92A2E37D11BF0400F55F8043B8B
:104FA00040F08280002BA7BF4BF0200B9946C3F145
:104FB00000094BF0280B01E04BF0010B039B13F8A9
:104FC000016B0393002ECFD130E04BF0020B4BF07E
:104FD000040BF3E74BF0080BF0E74BF0100BEDE799
:104FE000BBF17F0F19D8A6F13003092BD2D81BF0E3
:104FF000400F03D00A2101FB0737DFE70A2101FB3D
:1050000009394BF0200BD9E72E2E06D11BF0400FAB
:1050100040F09E804BF0400BD0E76C2E31D02BD867
:10502000682E36D06A2E3CD04C2E3AD0002F46F057
:105030002003B8BF2BF04002A3F16501BCBF1FFAEB
:1050400082FB0027022901D9612B2FD1073525F0DA
:105050000705DFF8ACA2083507271BF0080F66D05C
:105060000AEB070B56465E4563D1A4EB0A0A06EB32
:105070000A02A9EB07096FE1742E9FD07A2E9DD00A
:10508000D4E71BF0800F18BF4BF4007B4BF0800B74
:1050900094E71BF4807F18BF4BF4007B4BF4807BBC
:1050A0008CE74BF4207B89E71F4687E7A6F1630175
:1050B000122900F2F080DFE811F013004F00EE003B
:1050C000EE00EE00EE004F00EE00EE00EE00EE000F
:1050D000EE00FE00E900EE00EE001B00EE00AF0067
:1050E00055F8043B8DF8183001270DF1180AB4E784
:1050F00055F804AB834BBAF1000F08BF9A461BF07A
:10510000400F14BF39464FF0FF31504601F072FE98
:105110000746A2E7029B41462020984700280FDB64
:10512000013EB742F6D34C44A41BB14698E74E4625
:10513000F7E716F8010B029B41469847002892DAE0
:1051400098F8023043F0040388F802304FF0FF343F
:1051500020460DB0BDE8F08F1BF0800F34D01BF45B
:10516000007F2CD0073525F00705AA4669685AF854
:10517000080B2BF010050029ADB237DA404261EB85
:10518000410145F480650DF1180B0A235A4601F0E0
:105190003DFEA0EB0B0301936B0662D5019B25F04E
:1051A00001019F4289B240F3A180002E00F0998056
:1051B00015F0100240F09C80BB460D4623E0AA4645
:1051C0005AF8040BC117D4E7AA461BF4807F5AF89B
:1051D000041B01D10846F5E71BF4007F15BF48B258
:1051E00008B241F3C01141F3C031C2E750EA0103F4
:1051F000C9D11BF0400FC6D0002FC4D12BF0110233
:1052000095B2BB46019740F2064115EA01021CBF68
:105210000BF1010B00222CE02BF010021FFA82FB95
:105220000A231BF0800C49D01BF400711DBF073509
:1052300025F00705AA46AA461ABF5AF8080B69685E
:105240005AF8040B50EA010545D12BF016051BF066
:10525000400FADB242D0002F40D12BF0170295B2D3
:10526000019715F0100248D0019B002E42D103F1A6
:10527000010B29075AD4EB0706D5D9456FDD0199F3
:10528000A9EB0B035F18CB465B4649E04BF0100BD4
:1052900010237826C5E7782B04D1C6F1780343F0B4
:1052A0001003BEE7029B4146252098470028FFF6E1
:1052B00047AF023447E608230026B2E7AA461BF4AC
:1052C00080715AF8040BBDD01BF400711ABFC0B234
:1052D000614680B2B6E72BF0060295B20DF1180BCD
:1052E00054E725F01105ADB2BB468CE70D46B8E793
:1052F0003B460D4603F1020BBBE7DDF804B082E745
:10530000997D0000927D0000CDE904324146029B68
:10531000202098470028FFF613AF049B059A01331D
:105320009945F1DCA4EB0B01CC189B460AB3029B18
:105330004146302098470028FFF602AF8EB901346D
:105340002744019B391B994224DC1D465DBB019A11
:10535000A9EB0B09224455461446914435E0019FC0
:1053600092E7023441463046029B98470028E7DA2C
:10537000E6E640F206410D42E2D015F0020F14BFFE
:105380002B20202015F4806F04F10104414618BF42
:105390002D20E9E7029B414630209847002804F180
:1053A0000104CEDACCE606AB013D4146585D029BD6
:1053B00098470028CADAC3E6029B41462020984756
:1053C000002804F10104FFF6BBAEA9EB0403002B97
:1053D000F2DCBFE57047F0B403460A461979DB8872
:1053E00000681343DC028768066906D513F4402F72
:1053F00003D0DA0748BF83F44023346801258D4089
:1054000023F48012DB074CBF2C43AC4334603B6871
:10541000F0BC1847836800EBC101B3F5004F2CBF07
:1054200051F8220031F81200704700EBC10180688A
:10543000B0F5004F2CBF41F8223021F812307047F0
:1054400008B50122FFF7E6FFD04008BD8368B3F539
:10545000004F00EBC10108D34B681AB143F00103C0
:105460004B60704723F00103FAE74B881AB143F011
:1054700001034B80704723F00103FAE75300012238
:10548000FFF7D3BF8368B3F5004F34BF042308236D
:10549000481C0833A0EBD300B0FA80F0C0F11F0025
:1054A00070472DE9F0410D4686680446FFF7C8FFB6
:1054B000B6F5004F014601D3012832D02046FFF750
:1054C000E1FF04EB80010E6996B9E3680122824096
:1054D0001343E36002220D612B4629462046FFF765
:1054E000A4FF032229462046BDE8F041FFF79DBFF7
:1054F000022231462046FFF78DFF29460346074624
:105500002046FFF792FF0322334629462046FFF745
:105510008CFF39462B462046FFF787FF0222314693
:10552000E1E7BDE8F081B2F5802F2CBF082304230A
:10553000D21A2DE9F0418C18CD1D25F0070524F075
:105540000704641B0026E40805602146AC60EE6099
:105550002846FFF797FF421D9200013002F107072E
:105560004FEAD707A2F110023146B8BF324605F123
:10557000100001F037FC3A4631462846FFF77EFF1F
:105580003346324631462846FFF74FFFA4EB070863
:10559000284631460122FFF759FF42463946FFF7B8
:1055A0006DFF3B46324639462846FFF73EFF21460F
:1055B0002846FFF763FF4346324621462846FFF759
:1055C00034FF214628460122FFF740FF3946BDE857
:1055D000F041FFF766BF2DE9F04706460D46174636
:1055E00098462BB398F8004093F80190DB78A4001C
:1055F00004EB430498F802301C4444444FF0000A82
:10560000CA4509D3D8F8042008F1080339463046C2
:10561000AC46BDE8F047604714F8013B48F823402A
:105620002046FAF76DFD013004440AF1010AE7E76C
:105630006FF01500BDE8F08770B5002502462846DA
:10564000144614F8013B0BB9184609E098B18D4295
:1056500007D1702B04D0A3F140023A2A0BD80020C6
:1056600070BDA3F140063A2E05D853780135941C3D
:10567000002BE9D00020252B08BF80F00100224636
:10568000DEE7002070470FB407B504A951F8040BFA
:10569000019100F068FB03B05DF804EB04B07047C3
:1056A00010B50369024613F0080009D11368D468E5
:1056B0009C4297BF126AE31AD31A01200B6010BDF7
:1056C00000231846FAE713B501A90446FFF7E8FFDF
:1056D00020B1019BE268013B13440193206A019BC6
:1056E000C01A013802B010BD10B504465018226926
:1056F000236AD20702D5013B184010BD984228BF4B
:10570000C01AFAE710B504460A46C168FFF7ECFF75
:105710002369E06023F00803236110BD38B50D460E
:10572000C2698B00016843F0020342F8213004464D
:1057300001682A46FFF7D8FFE36861682060984255
:1057400002BF236943F0080323612A462046FFF77E
:10575000CBFF606038BD2DE9F74FC768C6699B462F
:1057600006EB8703009316F8273003F00303022BA0
:105770000446884691464FF000030BD01360CBF8E7
:10578000003023699B0713D44FF0000A504603B042
:10579000BDE8F08F56F8271013608908CBF8003069
:1057A000EFD0FFF7AFFFE368A3604FF0010AEDE72A
:1057B000A36906EB8700984716F8272012F0010A24
:1057C0000546E1D012F002021FD0B8F1000F03D05D
:1057D00041462046FFF7A2FF61682A462046FFF7B0
:1057E00083FFD4E902219142606006D12A46204617
:1057F000FFF77AFF4FF0000AA060A2682260E26023
:10580000226942F008022261C0E701462046019267
:10581000FFF778FFE368A360B8F1000F04D02168B8
:10582000E369019A43F8212005EB0802CBF8002038
:1058300021682046FFF758FF2369206043F00803E2
:10584000236116F827306FF3000306F82730009B1A
:10585000C9F80030A9E770B504461546FFF744FFC4
:105860002368834205D12369216023F00803236163
:1058700070BDE269AB0043F0020342F821302046DC
:1058800061682A46FFF730FF6060F1E738B50369C9
:105890005B07044606D5456AFFF715FF85422CBF16
:1058A0006562606238BD38B50D4604461C22002191
:1058B00001F098FAEB68A361AB6863612B68E36160
:1058C0006B682362002262622A6923B1591E194261
:1058D00008BF42F001022261012204F128000021E8
:1058E000BDE8384001F034B92DE9F04F87B000250C
:1058F0000093036A03958B4204460E469246059533
:10590000A94639D3EFF3118B202383F31288BFF319
:105910006F8F059AD8462AB129462046FFF79BFF8C
:105920000023059304A92046FFF7BAFE0499B1426B
:1059300007462AD32268E36913F8221021F00301F5
:1059400003F8221003EB8209216832462046FFF754
:10595000CBFEE3682060984212D0002788F31188BC
:10596000BFF36F8F039929B162690AB1204690474E
:1059700000230393002FC5D1484607B0BDE8F08F40
:10598000236943F008032361E7E718B12046FFF7D6
:10599000C5FEE3E7009B5AEA03021CD0019101F027
:1059A000E3F80199B8B9BBF1000F14D187F311885E
:1059B000BFF36F8F009B524604F12800FEF754FAA4
:1059C000EFF31188202383F31288BFF36F8FB0FAAF
:1059D00080F77F09C2E705AB03AA20462568FFF7D9
:1059E000BAFE0746BAE770B50446836908460D4615
:1059F00098470246EFF31186202383F31288BFF302
:105A00006F8F2B7843F001032B7061682046FFF7FE
:105A10006BFE60602046FFF739FF86F31188BFF305
:105A20006F8F70BD2DE9F04104462027EFF31186FA
:105A300087F31288BFF36F8F236913F0080FA368F1
:105A400002D16268934200D9226AE169D21A32B95E
:105A500086F31188BFF36F8F4FF0000833E011F821
:105A6000232012F0030001EB8308F1D0022803D1B8
:105A700051F82350AD0805D1D00712D4A369404690
:105A800098470546A1682A462046FFF72DFE29467D
:105A9000A0602046FFF736FE86F31188BFF36F8FB4
:105AA000C4E742F0020201F823204046A369A5683A
:105AB0009847294602462046FFF716FEA06086F367
:105AC0001188BFF36F8F4046BDE8F081F8B50446FA
:105AD000836908460D4698470646EFF31187202351
