:10000000A8190020910E0000854700007D0E000019
:100010007D0E00007D0E00007D0E0000000000003F
:10002000000000000000000000000000C50F0000FC
:100030007D0E000000000000710F00007D0E00002A
:1000400029110000291100002911000029110000C8
:1000500029110000291100002911000029110000B8
:1000600029110000291100002911000029110000A8
:100070002911000029110000291100002911000098
:100080002911000029110000291100002911000088
:100090002911000029110000291100002911000078
:1000A0002911000029110000291100002911000068
:1000B0002911000029110000291100002911000058
:1000C0002911000029110000291100002911000048
:1000D0002911000029110000291100002911000038
:1000E0002911000029110000291100002911000028
:1000F0002911000029110000291100002911000018
:1001000053B94AB9002908BF00281CBF4FF0FF317E
:100110004FF0FF3000F00CB8ADF1080C6DE904CEE3
:1001200000F008F8DDF804E0DDE9022304B07047D0
:10013000704700BF2DE9F04786468C460846089E6A
:10014000154674461946002B40F0C2808542B2FA2B
:1001500082F245D94AB1C2F1200300FA02FC2EFA1C
:1001600003F3954043EA0C0C94404FEA154EA8B2B5
:10017000BCFBFEF8230C0EFB18CC08FB00F943EA8D
:100180000C43994528D9EB1808F1FF3704D299455B
:1001900002D9A8F102072B44A3EB0903A4B2B3FBD5
:1001A000FEFC0EFB1C330CFB00F044EA0344A042AF
:1001B00014D92C190CF1FF3304D2A04202D9ACF1AE
:1001C00002032C44241A43EA07401EB1D440002302
:1001D00034607360BDE8F0874746DDE76346F1E7CA
:1001E00092BB431B01214FEA154EAFB2B3FBFEFC9D
:1001F000200C0EFB1C330CFB07F840EA0343984528
:1002000062D9EB180CF1FF3004D2984502D9ACF159
:1002100002002B44A3EB0803A4B2B3FBFEFC0EFBCD
:100220001C330CFB07F744EA0344A7424ED92C19B0
:100230000CF1FF3304D2A74202D9ACF102032C44E3
:10024000E41B43EA0040C0E7C2F1200320FA03F1B7
:10025000954090402EFA03F303434FEA154EAFB298
:10026000B1FBFEFC0EFB1C10190C0CFB07F841EA5D
:100270000041884504FA02F422D969180CF1FF30D4
:1002800004D2884502D9ACF102002944A1EB08014F
:100290009BB2B1FBFEFC0EFB1C110CFB07F743EA03
:1002A00001439F420ED9EB180CF1FF3104D29F425B
:1002B00002D9ACF102012B44DB1B41EA004192E779
:1002C0006046E3E76146F7E76046A3E76346B7E7C2
:1002D000834206D916B9002108467BE7C6E900E04B
:1002E000F9E7B3FA83F78FB9834201D3724508D88F
:1002F000BEEB020460EB030301209C461EB9002103
:1003000068E73846FAE7C6E9004CF8E7C7F1200C81
:10031000BB4022FA0CF41C432EFA0CF120FA0CF329
:10032000B84001434FEA14490EFA07F5B3FBF9F858
:100330001FFA84FE09FB18300B0C08FB0EFA43EA87
:1003400000439A4502FA07F240D9E31808F1FF305A
:1003500004D29A4502D9A8F102002344A3EB0A0370
:1003600089B2B3FBF9F809FB183308FB0EFE41EA2A
:1003700003418E452CD9611808F1FF3304D28E4514
:1003800002D9A8F10203214443EA0040A0FB0298ED
:10039000A1EB0E014145CE46434602D306D14D4561
:1003A00004D2B9EB020E68EB04030138002EA6D08C
:1003B000B5EB0E0261EB030101FA0CFC22FA07F324
:1003C0004CEA0303F940C6E9003198E74046C5E727
:1003D0004346D9E710B50A78022A0C4602D0052A0E
:1003E0002AD010BDCB68012B21D1D1E90123D35CE8
:1003F000312B02D1154803F0ECFFD4E90123D35C83
:10040000322B02D1124803F0E4FFD4E90123D35C7C
:10041000332B02D10F4803F0DCFFD4E90123D35C76
:10042000342BDED1BDE810400B4803F0D2BFBDE84D
:1004300010400A4804F0B8B883680949DC680A2209
:10044000A4466423BDE81040604700BFC05F0000C1
:10045000B85F0000B05F0000A85F000044610000CA
:10046000480C002038B5244805F0E2F920B92348AB
:1004700004F09AF8012038BD214C206805F0D8F925
:10048000002836D01F4803F08AFF002831DB1E48C1
:1004900003F085FF00282CDB1C4803F080FF0028B8
:1004A00027DB1B4803F07BFF002822DB20688368E2
:1004B0001B68002BDED01749002298470028D9D1AD
:1004C0002068836814495D686D224FF0FF33A847A8
:1004D0000028CFD1206883681049DC680A22642391
:1004E000A0470028C6D100214FF4004005F0C6FA0D
:1004F000F9E70020BFE700BF785D00007B610000E6
:1005000000000020C05F0000B85F0000B05F000086
:10051000A85F0000D50300004C010020480C00201B
:10052000014B1B68184700BF0400002030B585B0A0
:1005300004460D4610220021684605F05BFB0223AD
:100540008DF802302A46044B01932146684603F099
:10055000C9FC05B030BD00BF2105000080B50546CF
:100560000E461746984602F0ABFF034605F0AEFB79
:10057000DFF81890044649F80030424630463946C4
:10058000A84754F8090000F0DDFC00BF0800000097
:100590002DE9F047058B04462807904611D402291F
:1005A00005F0070540F0CC80204604F00AF878B149
:1005B0000138218B042811D8DFE800F0C2106D85C6
:1005C000950001290CBF45F0100545F02005258355
:1005D00088F31188BFF36F8FBDE8F08701F0070A39
:1005E000AA4500F0A5800027B9463E46A368002B27
:1005F00000F0BC8041F00801218388F31188BFF32B
:100600006F8FA168002900F0BA800D68002900F002
:10061000B680D1F80480334652462046C047002DAC
:1006200076D02B6829461D46F0E701F007035A1FD4
:10063000012A1BD8002221F00701062B276889B266
:10064000C4E9002209D13B4603E0628B0132628398
:100650001B68002BF9D141F002012183204603F0F1
:10066000B0FF00287AD041F0200176E0042B0AD1B7
:1006700021F0070189B22183204603F0A2FF10B1C7
:1006800041F020012183218B01F0070AAA454FD0B8
:100690000027B946AAE7236921F0070141F00601C6
:1006A000062DD3F8009021832DD1B9F1000F3FD052
:1006B00041F00801218388F31188BFF36F8F3A4915
:1006C0002046C84729E021F00701236941F00401D1
:1006D00089B2042DD3F804902183E6D000273E464A
:1006E0004FF0040A82E721F00701236941F0050178
:1006F00089B2052DD3F808902183D6D000273E4635
:100700004FF0050A72E700273E464FF0060A6DE7F4
:100710002B4687E7B9F1000FD1D1EFF311882023E1
:1007200083F31288BFF36F8F238B23F00803238397
:10073000258BEA062ED525F01003238305F0070547
:100740006669218B002EBFF670AF00232768C4E9CD
:10075000003321F0070141F001012183218B01F0D9
:10076000070AAA454FF000097FF440AF002F9CD044
:1007700041F00801218388F31188BFF36F8F002FA8
:10078000C8D03D68394633465246204603F045FFFF
:100790002F46F4E7AB067FF51BAF25F0200323833C
:1007A00005F0070500E700BF4746000008B504480C
:1007B00003F0FAFEBDE80840024803F0F5BE00BFB2
:1007C00095610000CA610000014803F0E3B900BF71
:1007D000C85F000038B5044618B90F4B0F485B6876
:1007E00098476168B1F5683F10D0B1F5680F0DD03A
:1007F0000B4DA9420AD011F46861206807D0014668
:10080000084805F053F800232360656038BD1422C2
:1008100005F0F0F9F9E700BFEC000020F8610000F6
:100820002C5F5CA96809002008B520B34368B3F5C4
:10083000683F10D101220368BFF35B8F53E8001FAC
:10084000002903D143E800200028F7D1BFF35B8FD4
:100850000DD1002008BD094A93420AD000684FF02C
:10086000FF324FF0FF3302F03FFA0028F1D0044886
:10087000F0E70448EEE76FF4E040EBE72C5F5CA99B
:10088000E98FFFFFEA8FFFFF08B5D8B14368B3F5E2
:10089000683F10D100220368BFF35B8F53E8001F4D
:1008A000012903D143E800200028F7D1BFF35B8F73
:1008B0000BD1002008BD074A934208D0006802F01F
:1008C0008BFAF6E76FF4E040F4E70348F2E70348F9
:1008D000F0E700BF2C5F5CA9E98FFFFFEA8FFFFF05
:1008E00010B5044618B91D4B1D485B6898476368EE
:1008F000B3F5683F2FD0B3F5680F2CD0194A934257
:1009000019D1236803BB18484FF0FF324FF0FF3373
:10091000214602F0BBF908B923681BB90F4B1348F5
:100920005B68984720681422002105F063F94FF4B2
:100930006863636008E0B3F5683F0DD83A2B03D0D5
:1009400040F6BA629342DED1206804F0F9FF636892
:1009500043F03A03636010BD054AF3E7EC00002062
:10096000F86100002C5F5CA9680900201E6200008D
:100970003A00003A08B5064906484023142204F01C
:1009800087FFBDE808400449044803F075B900BF7B
:100990006804002068090020D05F0000E45F0000C8
:1009A00008B50348034A0021121A03F0E3FE08BD0C
:1009B00018020020640C00200748084A084908B5BE
:1009C000121A03F0D9FE0748074A0849BDE8084053
:1009D000121A03F0D1BE00BF000000201402002054
:1009E000D86600000000002000000020D86600004B
:1009F00038B505460C4699B1D1E901230F4809687D
:100A000003F0D2FDD4E90423E1680D4803F0CCFDE6
:100A1000E1690C4803F0C8FDA1690B4803F0C4FD6F
:100A2000012D05D1EFF305810848103903F0BCFD15
:100A300021462846BDE8384001F0F0BF4B62000077
:100A40007B620000AB620000BB620000EA62000053
:100A500030BFFFF7FDBF00BF2DE9F0410B4EDFF8BF
:100A6000308006EB0807CC1B054632460949204674
:100A700005F098F8A01942460021083C05F0BAF8A4
:100A80006C6607F10800BDE8F08100BF00000000BF
:100A9000040000009C5F0000054B5A699B689A4265
:100AA0001FBF044A536843F080535360704700BF30
:100AB000440A002000ED00E010B51D4C1D4803F075
:100AC00073FDA36A990130D51B4803F06DFD1E200C
:100AD000A36ADA0103D5194803F066FD1F20144C00
:100AE000A36A1B0303D5164803F05EFD2120A36A09
:100AF000590303D5134803F057FD22200C4CA36A79
:100B00009A0303D5104803F04FFD2320A36ADB03AB
:100B100003D50E4803F048FD2420054A936A6FEA86
:100B200003436FEA1343936210BD1D20D0E700BF5B
:100B300000ED00E0FE620000176300002B63000080
:100B400046630000656300008B630000A66300003D
:100B500070B5244C064624480D4603F025FDA36AD3
:100B6000D90435D5214803F01FFD1720A36A1A05C3
:100B700003D51F4803F018FD18201A4CA36A9B05E3
:100B80000FD51C4803F010FDA16BA36A180407D50C
:100B9000194803F009FD1EB1A36A23F40043A362C0
:100BA0001920104CA36A590503D5144803F0FCFC26
:100BB0001A20A36ADA050DD5114803F0F5FC1B20B5
:100BC000084A936A43F47F43936200232B7070BDFD
:100BD0001620CBE7A36A9B04F2D50A4803F0E4FC95
:100BE0001C20EDE700ED00E0D2630000E9630000A7
:100BF000FB6300000F640000296400003F640000F4
:100C00005B6400007464000070B5264C06462648FC
:100C10000D4603F0C9FCA36AD80640D5234803F06B
:100C2000C3FC1120A36A190703D5214803F0BCFCBB
:100C300012201C4CA36A9A070FD51E4803F0B4FC7F
:100C4000616BA36A1B0607D51B4803F0ADFC1EB100
:100C5000A36A23F08003A3621320124CA36ADE0769
:100C600003D5164803F0A0FC1420A36A9C0603D504
:100C7000134803F099FC15200A4B9A6AD10658BF15
:100C80009A6A9A6A920642BF5A6A22F400525A62DB
:100C90009A6A42F0FF029A6200232B7070BD102006
:100CA000C0E700BF00ED00E0A4640000BB640000EA
:100CB000FB630000EF640000086500001F65000092
:100CC000746400002DE9F0415B4B5F688AB0044614
:100CD000C7F30806002585F31188BFF36F8F02F074
:100CE0007F43B3F17F4F06D102F00C03082B13D1E1
:100CF000524803F059FC00252C464FF00008F31E23
:100D00008DF80780092B00F28580DFE803F00A796F
:100D10007D7583838383838110074CBF0C46012537
:100D2000EBE74748444E03F03FFC8DF80780F36A39
:100D30009A0704D5434803F037FC00232FE0F36AF9
:100D4000002B01DA4048F6E7F36A5B00F5D53F482F
:100D500003F02AFC7369A26943F480737361BFF3E3
:100D60004F8FBFF36F8F736932F8022C23F48073B7
:100D70007361BFF34F8FBFF36F8F4DF602739A42CB
:100D800008D0B36ADBB24BB30DF107010120FFF7C6
:100D90003BFF33E021682E4803F006FC23689DF8F2
:100DA0000720C2B902AE04F120072068616832460C
:100DB00003C20834BC421646F7D1099AB5B3C2F350
:100DC000080121B96FEA52226FEA4222099202A970
:100DD0001846FFF70DFE0AB0BDE8F081B36A13F4C0
:100DE0007F4F05D00DF107010120FFF7B1FE05E0AF
:100DF000B36AB3F5803FA0D3FFF75EFE0346CEE7AC
:100E00000DF107010020C2E70DF107010020ECE71A
:100E1000104890E7104B1149114817F4F87FA6F1DC
:100E2000100218BF194603F0BFFB86E722F4FF72D9
:100E300022F00102CAE700BF00ED00E06D6500008E
:100E400099650000B1650000D3650000E26500000F
:100E5000026600001F660000546500003F65000048
:100E600044660000044B5A6942F010025A615A6904
:100E700022F008025A61704700ED00E0EFF30880AD
:100E8000EFF3098101B57246FFF71CFF01BD00BFFA
:100E9000002080F31488BFF36F8F0F4880F3088819
:100EA00001F0F0F900200D490860BFF34F8F00F00A
:100EB00019F8202080F3118809484FF40061401888
:100EC00080F30988EFF314800221084380F314882B
:100ED000BFF36F8F00F0CAF8A819002094ED00E06E
:100EE000680C002072B6002383F31388144B4FF074
:100EF000FF32C3F88020C3F88420C3F88820C3F8E9
:100F00008C20C3F89020C3F89420C3F89820C3F82D
:100F10009C20C3F88021C3F88421C3F88821C3F83A
:100F20008C21C3F89021C3F89421C3F89821C3F809
:100F30009C2162B6BFF34F8FBFF36F8F704700BF26
:100F400000E100E0084B9B6883420BD1EFF305837F
:100F500043B1064B5A6842F080525A605A6A22F4F2
:100F600000425A6202F0B2BA440A002000ED00E0EA
:100F700011498A684FF030001044EFF3098C80E883
:100F8000F01F202080F31288BFF36F8F0B4F4FF0BC
:100F900000664A698A603E60506E094C2060906E1F
:100FA0000023936680F3118802F1300090E8F01F6F
:100FB0008CF3098870470000440A002004ED00E02B
:100FC000840900201EF0040F0CBFEFF30880EFF33C
:100FD0000980816911F8021C0229FFD001B572460F
:100FE00003F0CCFB01BD00BF40B2002807DB044A80
:100FF0004109012300F01F00834042F8213070476F
:1010000000E100E0054B420900F01F0053F82220E8
:10101000012303FA00F01040704700BF00E100E038
:1010200040B20028A8BF00F1604001F10101B8BF43
:10103000064B4FEA4111ACBF00F5614000F00F00D4
:10104000C9B2B4BF195480F80013704714ED00E022
:10105000044B054A23F07F039360BFF34F8FBFF328
:101060006F8F70470000000000ED00E008B5FFF74B
:10107000EFFF074AD2F8883023F47003C2F88830B3
:10108000FFF78EFCFFF798FC00F042F801F08AFDB4
:1010900000ED00E042F8203C009B42F81C3C0A496D
:1010A000019B42F8183C029B42F8143C21F00101DC
:1010B0004FF0807342F8043C42F8081C0023203AA9
:1010C00002658366704700BF5D05000000B50B4BED
:1010D00098600B4B1546426E1A600E462C4686F3FE
:1010E00009880020034B9847204600210022002356
:1010F000014C2047A14700005D050000440A002084
:1011000084090020014B10221A61704700ED00E0B5
:10111000044800232021C2180133302B82F8001329
:10112000F9D1704700E100E008B5EFF30583064A06
:10113000103B02EBC30152F8330049688847BDE811
:101140000840FFF7A9BC00BFB85D000008B506491C
:10115000064821F00701C1F1005202F5802203F098
:10116000C9F9002008BD00BFAF1900208809002080
:101170000E4A0123C2F840354FF080424FF08051B3
:10118000C2F87835D1F83001082808D1D1F83411E7
:10119000052904D80648415C09B1C2F838364FF039
:1011A00080430122C3F880250020704700E0014001
:1011B0005866000048B1054B054A1B68B3FBF2F3C3
:1011C0005843044B43F0010318477047D8000020F0
:1011D00040420F00A05F000008B50448044A3F23C6
:1011E000C0E9002301F02CF9002008BD940900207B
:1011F000FFFF0F00084B70B5C31A0D4607499B103F
:10120000044659430648402203F0F6FA2B460146AD
:101210002046BDE870401847B0090020B76DDBB626
:10122000385D000073B50C4C0C4A4023041B00933E
:101230000D460B460A49A41061430646094803F0CF
:1012400007FB011E05DA30462B4602B0BDE87040B0
:10125000184702B070BD00BFB0090020BB480000B5
:10126000B76DDBB6385D00000022F8B501210546F8
:101270001046FFF7D5FE104801F00AF90446B8B948
:1012800001F026F92F690D49384603F0E9F9031EEC
:1012900009DB01263E642D69084905F11C0003F0B5
:1012A000DFF9031E02DA1C462046F8BDEE64FBE7B8
:1012B0006FF00404F8E700BFED130000F45F0000D6
:1012C0001FB500220123CDE90223094ACDF800D041
:1012D0006B46CDF804D003F0E9FA002805DB4FF4A3
:1012E00080420023684601F0FBFD05B05DF804FB79
:1012F000CD48000010B5EFF31184202383F312884A
:10130000BFF36F8F074A136823F00201DB071160F8
:1013100002D4012003F078FF84F31188BFF36F8FAC
:1013200010BD00BF000A002030B4104B0C2202FB9D
:10133000003301460020D3E90E529863EFF3118089
:10134000202484F31288BFF36F8F1C6C04F0C00458
:1013500044F002041C6480F31188BFF36F8F1DB149
:101360002B46034830BC184730BC7047B0090020FA
:10137000385D000010B4EFF31182202383F312884C
:10138000BFF36F8F1748016841F002040460C8077B
:1013900007D482F31188BFF36F8F012010BC03F0D4
:1013A0002BBF4FF08041D1F80C04D1F80C14C907C1
:1013B000EFD5EFF3118083F31288BFF36F8F0A49E3
:1013C0000B6C03F0C00343F002030B6480F311883D
:1013D000BFF36F8F82F31188BFF36F8F002010BCB3
:1013E000FFF7A2BF000A0020B009002010B10128B9
:1013F00004D07047034B1B6C5B0701D1FFF794BF10
:10140000704700BFB00900202DE9F0413849BFF313
:101410005B8F0746012251E8003F41E80020002889
:10142000F9D1BFF35B8F33B9324933484B60CB609E
:101430008A6003F028F97B1E012B2BD8012F07D1DE
:101440004FF08043D3F81C3403F00303012B21D069
:1014500004F07DFA0546F8B9284B1B78E3B14FF04C
:1014600080430222C3F808230646DFF894804FF039
:101470008044D4F81824D4F81834D20315D503F0D6
:101480000303012B01D0012F0FD155B386F311882F
:10149000BFF36F8FBDE8F081EFF31186202383F354
:1014A0001288BFF36F8F0125DFE7ADB1304603F03F
:1014B0008BF9D4F81835002BDBD1D4F80421002A9D
:1014C000D7D0C4F80431D4F804310123C4F8183556
:1014D000C8F88031A360CCE70021212004F0CEFAC7
:1014E000E7E74FF080430222C3F80423D2E700BFAE
:1014F000AC0900209C090020CC090020610C0020D0
:1015000000E100E0F0B545681646A8682A7C01F0C5
:101510001F0487B044EA4214002869D0B6F5001FC2
:1015200004D1214604F066F9002052E001AA00200F
:10153000B6F5800F0190506037D1B3F1007F14BF32
:10154000052304238DF804300023CDE904230393FD
:10155000EB6823FA01F111F001010DF103073AD113
:10156000B6F1A07F37D104F01F03620903F5E073E1
:1015700026D0012A3FD1214A52F82330DB072AD452
:10158000A8683A46214604F0ABF816301BD0029703
:10159000A86803AA214603F06FFF002819DBA8689A
:1015A0000122214604F0D3F8BEE7B3F1C06F05D0A5
:1015B000B3F1007F14BF01230223C3E70323C1E774
:1015C0004FF0A042D8E7A868394601F033F9002867
:1015D000DDDA07B0F0BDA8683A46214604F080F88D
:1015E0000028D5D19DF80310A86801F01DF9CFE7B8
:1015F0006FF08500EDE751F82330FFDE0003005067
:10160000420970B5034602D0012A17D070BD0D4EB5
:10161000326951680029F9D003F01F0301250C68D5
:101620009D400029F2D08A682A4002D04B6830469B
:1016300098472CB1236821461C46F2E7024EE7E7A3
:101640002346F8E7785D0000585D000038B545682E
:10165000A86890B104F073F8014670B9A86804F066
:1016600052F8044658B902460649A86804F035F80D
:10167000224605210620FFF7D3FC002038BD6FF07D
:101680000400FBE7011600002DE9F043476840F233
:101690000636D0063B7C87B002EA060654BFC2F38A
:1016A000401C4FF0030C01F01F05B6F5837F144674
:1016B00045EA43158DF803C045D00DD8062E16D047
:1016C00005D8A6B1022E40D06FF0150038E0B6F56F
:1016D000807FF9D101260AE040F20222964236D0FC
:1016E000B6F5407F35D0B6F5007FEDD10226012357
:1016F000220303FA01F12ED57B68C3F80815B868F8
:1017000090BB05F01F036D092BD0012D75D13D4A0B
:1017100002EB830284F48033D2F80017C3F3004352
:10172000C4F3404444EA430421F4E16144EA8C04F4
:1017300021F0070144EA06230B43C2F800370020DA
:1017400007B0BDE8F0830726D1E70426CFE70526DA
:10175000CDE70326CBE7630344BF7B68C3F80C15D2
:10176000CDE74FF0A042D3E70DF10202294603F086
:10177000B7FF14F4403F80460CD1B868294603F007
:10178000E4FFB8F1000FDAD19DF80210B86801F05B
:101790004BF8D4E74FF0000901ABCDE90199CDE951
:1017A0000439CDF80C90B86803AA294603F064FE0A
:1017B0004845C4DB14F4003314D084F480349DF81D
:1017C00003308DF80E30C4F300448DF80C608DF8B2
:1017D0000D40B8684B4603AA294603F005FF0028D0
:1017E000CFDAACE7CDE904330DF103030393B86816
:1017F00003AA294603F040FEF1E703F5E07350F831
:101800002330FFDE00030050036803F01F025B0972
:10181000026004D0012B034818BF002070474FF02E
:10182000A0407047000300502DE9F04FDFF8B4B13D
:1018300085B01546824600EB810840F2FF19D0457D
:1018400003D1002005B0BDE8F08FDAF8003058046D
:10185000C3F3C321C3F3080400F1BD80624A4C45C1
:10186000515C4FEA136312D0222B1ED94E2B40F04D
:10187000B580C5F8144503A80394FFF7C5FF039B83
:10188000012606FA03F3C0F80835374654E0222B48
:1018900009D94E2B40F0A2804FF0FF33C5F8143524
:1018A0000AF1040ACBE74FF0FF34222B00F29680B6
:1018B000DFE803F012171D20232920949494943913
:1018C0006394949494949494949466717477949497
:1018D000947A8285888B8E00C5F80C45631CCAD12A
:1018E000DEE7C5F81445621CDAD00026CDE7C5F85E
:1018F0000845F3E7C5F81045F5E7631CC5F808454A
:10190000CED0002604E0671CC5F80C45C8D00126DF
:1019100003A80394FFF778FF039B012707FA03F35B
:10192000C0F80C3508E0C5F808450029DBD1661C75
:10193000B6D0002637460621DAF80030019303F4CA
:101940000040002803A81CBF002701260394FFF7CE
:101950005BFF039C019B00EB8400C3F3412CD0F898
:1019600000470B0243EA8C033B4304EA0B04234386
:1019700043EA4603C0F8003792E7C5F80C45D4E7C0
:10198000C5F86045601CDAF8003089D0C3F3004325
:10199000002BBCD06FE7C5F86445F3E7C5F8684590
:1019A000F0E7C5F86C45EDE7C5F82445621C3FF447
:1019B00077AF00270126BFE7C5F828458EE7C5F8B1
:1019C0003045F3E7C5F83445F0E7C5F83845EDE7AD
:1019D000C5F83C4582E76FF0150033E76FF08500EE
:1019E00030E700BFF0F8FCFF89660000F8B5002280
:1019F000054601210220FFF713FB0220FFF7F4FA4E
:101A00006C680121E06803F0C1F86B681A6823690B
:101A1000C2F82435617D237D0B43A17D0B43C2F8C1
:101A20006C352C692068A0B16B6834491E680022AF
:101A3000083004F08FF82368DD6320683049002205
:101A4000683004F087F82368C3F89C502D4BC6F823
:101A500004336E68D6E9004313F0010333D02F69D5
:101A600004F10C0107F11C0204F5907003F0AEFBC9
:101A7000002827DB387F00F0F7FC0823C4F8003586
:101A8000336AC4F844350023C4F848350123A36001
:101A9000D4F85831002BFBD00023C4F800356B6814
:101AA000596811F004040CD1D868214603F06EF88F
:101AB0006B6821461D68D86803F068F80823C5F8EC
:101AC00000350020F8BD0822C4F80025326AC4F8A9
:101AD0004425C4F848350123A360D4F82031002BF5
:101AE000FBD00023C4F82031D4F820310123E36077
:101AF0004FF48073C4F80433CAE700BFC34C00003E
:101B00001951000014020A002DE9F8430446456803
:101B1000884603F01CFF6368A8B92E4A127892B178
:101B20001F684FF020096426606803F01FF8002842
:101B30003ED1012003F00DFB013EF5D10021212013
:101B400003F09CFFEFE721691F684FF02009EFF3D6
:101B5000118689F31288BFF36F8F606803F006F86F
:101B600008B30B6853B1D3F8A4203AB1D3F8B4202A
:101B7000002A03DAD7F84C25C3F8B4206B685B075A
:101B800044BF4FF48003C7F804332B6A83F8008006
:101B9000296A0122204603F05AF886F31188BFF320
:101BA0006F8FBDE8F88386F31188BFF36F8FCEE7A0
:101BB000EFF311810E4689F31288BFF36F8F6068CF
:101BC00002F0D4FF0028D9D181F31188BFF36F8FC1
:101BD000B4E700BF610C00202DE9F04F9946D0F822
:101BE00004A00369DAF800401D6885B00646029338
:101BF0009AF8083088461746002B40F0A88095F8E0
:101C00006130002B40F0A68095F8623003F0FF01B0
:101C1000002B40F09F80B9F1FF3F66D0B9F1040F6F
:101C200063DDDFF838E14E4A4FF400404FF0050C19
:101C300099FBFCFCCCFB00E100237046FEF760FA48
:101C40004FF0000BC5E915B0C5E91087C5E912BB17
:101C5000E965C5F850B0DAF80420520756D5EFF31D
:101C600011822021039281F31288BFF36F8F02212A
:101C7000304602F0DBFF039A82F31188BFF36F8FC7
:101C8000DAF80420530741D595F86060002E3DD066
:101C9000BE4228BF3E46DAF81C103246404603F0EA
:101CA00081FFBF1B2ED195F86020921BD2B285F820
:101CB0006020DAF81C00811903F082FF029BBFF359
:101CC0005B8F03F1180B5BE8003F43F004034BE824
:101CD0000032002AF7D1BFF35B8F44F30734002CA6
:101CE00006DA002005B0BDE8F08F00200146A7E726
:101CF00063091C4904F01F0401224033A24041F84B
:101D00002320EEE7B9F1FF3F12D1B0440023C4F81D
:101D10003485C4F83875C4F81031D4F81021C4F8EB
:101D20004C31D4F84C31012385F861302360D8E779
:101D3000C4F808B1D4F80831D5E9162300200021F1
:101D4000CDE9000105F1080001F0A4FEDDE76FF028
:101D50008500C7E76FF00F00C4E700BF3F420F00E8
:101D600040420F0000E100E0F7B5064605691C4659
:101D7000EFF31187202383F31288BFF36F8F2B6853
:101D8000D3F8A4C0BCF1000F07D087F31188BFF3CC
:101D90006F8F6FF00F0003B0F0BDC3F8A4202B6865
:101DA000C3F8A01001F06043B3F1005F2B6814D1B9
:101DB000C3F8A8102B68C3F8AC202946304602F0BF
:101DC0005FFF87F31188BFF36F8F73681B7D012B53
:101DD00001D1631C06D10020DDE7C3F8B0C002F0DA
:101DE000A6FEEAE70B480C4A2D6824EAE4744FF497
:101DF000004600210023C4FB0601FEF781F9683587
:101E000002460B4600200021CDE90001284601F0E2
:101E100041FEE0E73F420F0040420F0070B5012352
:101E200083400E4ABFF35B8FDC4352E8001F01EA98
:101E3000040542E80056002EF7D1BFF35B8F4FF444
:101E4000803282400648C0F80823BFF35F8FBFF39B
:101E50006F8F0B4214BF0120002070BD200A0020AC
:101E60000010014070B40E49D1E90034D01AC318F3
:101E700044F1000422F07F46C1E90034A6F50013C6
:101E8000B3F5400F09D2074B1B681A0A1B069C19B1
:101E9000054B42F10005C3E9004570BC01F0FABCF6
:101EA000E8020020240A0020F002002011B3BFF352
:101EB0005B8F0123104A834052E800CF4CEA030CA9
:101EC00042E800C10029F7D1BFF35B8F0B4A4FF402
:101ED00080338340C2F80433094BBFF35B8F1B6828
:101EE000BFF35B8FC340DB0742BF064B4FF40032AA
:101EF000C3F80021704700BF200A002000100140F5
:101F00001C0A002000E100E00D4B1868010A0006E1
:101F1000BFF35F8F0B4BD3F80435181841F1000164
:101F2000B3F5801F0AD2084BD3E90023904271EB2E
:101F3000030303D210F1807041F10001704700BF2C
:101F4000240A002000100140F00200202DE9F04F8B
:101F500085B016461F469DF840A00446FFF75EFF79
:101F60000190FFF7D1FFB04271EB070354D23E4B13
:101F7000301A67EB0101984271F100014FD23B4BDF
:101F800003EB0413D3E902239F4208BF96425ED0BD
:101F900037494FF4803804F1500508FA04F8AD00D1
:101FA000C1F848832046ADB203F0B9F826F07F4B64
:101FB00005F1804504F5A87305F58835DC464FF03A
:101FC00003090293029A2CF07F4341F82230C1F8B2
:101FD0004483D1F80435274A6FF00200C01A6044E8
:101FE00020F07F40904232D9286868B1D1F804359A
:101FF0000393A3EB0B0020F07F40B0F5000F26D930
:10200000204603F08CF8039BBAF1000F07D109EBCF
:10201000030C09F10109D5E7BAF1000F09D06FF0FF
:10202000150520460199FFF741FF284605B0BDE898
:10203000F08F0123104ABFF35B8FA34052E8000FDB
:10204000184342E800010029F8D1BFF35B8F07492C
:102050000E98230101EB0412C8500F9B5360C2E994
:1020600002670025DDE700BF01008000D8020020E4
:1020700000100140FDFF7F001C0A00207FB51C4CB2
:102080001C4BC4F80833C4F848331B4B00254FF0F1
:10209000FF304FF0FF31C4F80855C3E902014FF497
:1020A0008033C4F80433154B02264FF4003201216B
:1020B000C4F804631120C3F880212A46FEF7B0FF5C
:1020C0001120FEF791FF0E4A0123A36023601360E5
:1020D0000C4B0D4A0093CDE9015500232846FFF72C
:1020E00035FF3046FFF790F9284604B070BD00BFB9
:1020F0000010014003000F00D802002000E100E0C2
:10210000200A0020651E0000FFFF7F002DE9F74335
:102110002F4CD4F8043399070BD5D4F8043143B1CC
:102120002C4A0023C4F80431D4F804311368013375
:102130001360D4F80433DA0329D5BFF35B8F264B41
:1021400053E8002F22F0010143E800100028F7D1E6
:10215000BFF35B8FD30702D4D4F84031BBB1002565
:10216000C4F84051D4F84031FFF7CEFEEFF31182AE
:10217000202383F31288BFF36F8F184BD3E90267D4
:10218000B042B94106D282F31188BFF36F8F03B01A
:10219000BDE8F0834FF0FF384FF0FF39C3E9028903
:1021A000D3E900101D604FF48033C4F84833C4F8FD
:1021B0004051D4F8403182F31188BFF36F8F00296A
:1021C000E5D0009032463B4628468847DFE700BF0F
:1021D00000100140240A00201C0A0020D802002020
:1021E00030B5431C124C85B005D08442A8BF0446CC
:1021F000012CB8BF0124FFF787FE0E4B0C4DD3E92D
:102200000013401AB0F5000F10D22218AA4228BFBE
:102210002A4652184FF0000007490091CDE901000D
:1022200043F10003FFF792FE05B030BD2A46F0E708
:10223000FFFF7F00E8020020651E000008B5FFF7E1
:1022400063FE024B1B68C01A08BD00BFE8020020F5
:102250004FF08053D3F83021082A06D1D3F8343117
:10226000052B02D8024AD05C70470020704700BF9F
:10227000A5660000024AD2F80034002BFBD070475C
:1022800000E0014010B54FF08053D3F83021082A08
:102290004ED14FF080420021C2F80C11C2F810114B
:1022A000C2F8381502F54042D3F80414C2F82015DC
:1022B000D3F80814C2F82415D3F80C14C2F8281562
:1022C000D3F81014C2F82C15D3F81414C2F8301532
:1022D000D3F81814C2F83415D3F81C14C2F84015FA
:1022E000D3F82014C2F84415D3F82414C2F84815C2
:1022F000D3F82814C2F84C15D3F82C14C2F8501592
:10230000D3F83014C2F85415D3F83414C2F8601559
:10231000D3F83814C2F86415D3F83C14C2F8681521
:10232000D3F84014C2F86C15D3F84434C2F87035B1
:10233000FFF78EFF18B13A4B3A4AC3F88C26FFF7E5
:1023400087FF18B1384BFB22C3F81825FFF780FF31
:1023500070B14FF080414FF08053D1F8E42ED3F8A4
:10236000583222F00F0203F00F031343C1F8E43E8A
:10237000FFF76EFF20B12D4B4FF40072C3F84026DB
:102380004FF08053D3F83031082B1AD14FF08043EF
:10239000D3F80024D20744BF6FF00102C3F8002431
:1023A0004FF08053D3F83431052B02D8204AD35C48
:1023B0003BB14FF01023D3F808224FF08043C3F80D
:1023C00058254FF01023D3F80022002A03DBD3F85E
:1023D0000432002B22DA174901234FF01020C1F8F4
:1023E00004351224FFF746FFC0F80042FFF742FF12
:1023F000C0F80442FFF73EFF0023C1F80435FFF7A1
:1024000039FFBFF34F8F0C490C4BCA6802F4E062EE
:102410001343CB60BFF34F8F00BFFDE710BD00BF7C
:10242000005000404881030000F00040009002404E
:102430009F66000000E0014000ED00E00400FA05A6
:10244000014B1860704700BF280A002010B5054BEB
:102450001868144602F07FFE0028A4BF20700020F8
:1024600010BD00BF280A0020024A01238340C2F8A1
:102470000435704700F00140014B00201B681847ED
:102480002C0A0020014B1B68184700BF2C0A0020B3
:1024900010B50C4C237993B9012323710A4B2060AA
:1024A000002818BF184600F05BF850B923680748A9
:1024B000002BBDE8104008BF184600F0A1B86FF02F
:1024C000770010BD2C0A002079240000852400002C
:1024D00008B5064B1B683BB10020FEF793FD18B909
:1024E000BDE80840FEF780BD08BD00BF2C0A0020F3
:1024F0004FF08053D3F83021082A06D1D3F8343175
:10250000052B02D8024AD05C70470020704700BFFC
:10251000AB66000038B54FF080440123C4F808339F
:1025200063600023C4F80031D4F8003142F2107522
:10253000D4F80C24D4F80C34D20307D5DB0705D526
:10254000012002F006FE013DF2D138BDFFF7D0FFB9
:102550000028FAD0014B00225A71F6E7340A002015
:1025600010B508490C794CB9012308600B71FFF7CD
:10257000BFFF08B9002010BD4C71FBE76FF077007A
:10258000F9E700BF340A00204FF080430022C3F86F
:102590000021D3F80021094901221A60096811B10C
:1025A000C3F804237047D3F80021002AFBD000228F
:1025B000C3F80021D3F80031704700BF340A00206F
:1025C00010B54FF08043D3F80423D20715D5D3F8C4
:1025D000002192B10022C3F800210121D3F800218B
:1025E000C3F80813FFF784FF044B10B15A7922B9DE
:1025F0005971BDE810401B68184710BD340A00200F
:10260000074A137943B90121106011714FF08042DC
:102610001846C2F8183570476FF07700704700BF52
:102620003C0A002010B54FF080431D4CD3F818141D
:10263000D3F8182411F4803F19D002F00302012AC4
:1026400003D00AB102F0F1FD00224FF08043C3F83D
:1026500018250022C3F80421D3F8042101229A602E
:10266000226872B9D3F80421002AFBD011E0D3F814
:102670001424D107E8D5D3F81C249207E2D42268A9
:102680001AB10222C3F8042310BDD3F80421002A92
:10269000FBD00022C3F80421D3F80431F4E700BFD3
:1026A0003C0A0020F8B54FF08043194FD3F804439B
:1026B000012504F01A04002604B9F8BDB4FA84F028
:1026C000C0F11F00830003F580739BB203F18043C8
:1026D00005FA00F2196824EA02040029ECD01E6011
:1026E0001B684FF080430128C3F808230CD1D3F8AE
:1026F0001824D3F81824920706D10222C3F818052B
:10270000C3F804239860D7E73B68C0B29847D3E783
:102710003C0A0020036803F01F025B09026004D03A
:10272000012B034818BF002070474FF0A0407047AE
:1027300000030050034A430900F01F00D35C184413
:10274000C0B27047B1660000034611F0010030B519
:10275000CCB213D1A207C4F3400020D5124AD2F85C
:10276000200558604FF08053C2F82005D3F830316F
:10277000082B15D0003818BF012010E04FF0A04101
:102780004FF08055D1F820251A60C1F82025D5F8E2
:102790003051082D08BFD1F82015002ADAD030BDFD
:1027A000D2F82035E6E700BF00030050F7B5044635
:1027B0000846FFF7BFFF06B204EB46060D46B38A94
:1027C000DB072BD5204602F034FE2946204602F0D6
:1027D0009FFD58B1204602F0B1FD276800B207EB1B
:1027E00080030022C3F81025C3F81025294620468F
:1027F00002F0CDFD0021B18201A80195FFF78AFF0B
:10280000019B00EB8300074BD0F80027134043F0F7
:102810000203C0F80037084603B0F0BD6FF01500A2
:10282000FAE700BFF0F8FCFF014802F0B2BC00BFBD
:10283000DC00002010B504480C4602F08CFC002897
:10284000A4BF2070002010BDDC0000202DE9F04F57
:10285000804689B058F804ABDAF80413C9B283464D
:10286000082241F00041504602F0BBFD051E2BDA64
:102870000023032106A8CDE90633FFF765FF644B6B
:1028800001930DF118090023019A009312F8013BFE
:1028900060490192DA0803F007038A5C22FA03F325
:1028A000DA071AD4009B09F10409A3B14FF00041E3
:1028B0000022504602F095FD032106A8FFF744FFD1
:1028C0000028DCD125F000450124002D40F08A804D
:1028D00009B0BDE8F08F0123D6E7009B4E4A1344B0
:1028E0000293D9F800100029DCD0029B91FAA1F1E3
:1028F0001C78B1FA81F141EA44142046FFF71AFF2F
:102900000BEB40000594878AC808BB0819F8002023
:10291000039301F00701012303FA01F122EA010206
:1029200009F8002005A8FFF7F5FE059A039B02F5BC
:10293000E072C7F3820650F822205B073746C2F3E5
:10294000014233D5D6B240463A46214602F000FD58
:1029500005A80594FFF7DEFE059B03F5E07350F82C
:102960002330C3F301439E4207D10021204602F0E9
:10297000C0FC3146204602F0BCFC05A80594FFF7D8
:10298000C9FE059B012202FA03F3C0F820354FF07F
:102990008053D3F83031082B01BFD0F82035D0F860
:1029A0002035D0F82035D0F820359AE7022A0DD10D
:1029B0000321204602F09DFC06F00503012BDCD12B
:1029C0003A462146404602F0C3FCD6E702212046A3
:1029D000039202F08EFC032EF2D0039A032ACCD18C
:1029E000022EECE795FAA5F3B3FA83F304FA03F2A7
:1029F00025EA020503F5A2720BEB43035AF82220E5
:102A0000B3F87C10C2F30142404602F0A1FC5CE73F
:102A1000C1660000A0600000C166000038B5EFF399
:102A20001185202383F31288BFF36F8F064B9C68B8
:102A300002F011FF85F31188BFF36F8F2046BDE8C8
:102A40003840FEF77FBA00BF440A002038B50A4B71
:102A500053F82040013053F82050A54200D838BD2B
:102A6000606830B1037FDB0701D402F0C9FE08348F
:102A7000F3E723689847FAE7A460000070B52A4B93
:102A80002A4C2B4D012286B003201A70FFF7DEFF7F
:102A9000FDF78CFE0420FFF7D9FF2646AE4204F175
:102AA000300410D300F018FC204C224EAC4226D348
:102AB00000F026FCFDF7D6FC1F4A137B23F0010330
:102AC000137306B070BD54F80C3C059354F8103CD9
:102AD000049354F8143C039354F8183C029354F8AC
:102AE0001C3C019354F8203C009354E90A2354E918
:102AF0000C0100F01BFA54F8303C5E65CDE7D4E9D8
:102B00000A23B3F1FF3F08BFB2F1FF3F05D052EAFD
:102B10000301206803D100F0AFFC3034C6E7314632
:102B2000183000F027FEF8E7610C0020385F000045
:102B3000385F0000495A00006803002070B5144E49
:102B4000144D1549702386B003FB00660122002353
:102B5000CDE904230F22CDE902320193142303FBB4
:102B600000554FF4A072044602FB00110B4B009578
:102B7000304600F0DBF9737B2C7423F0040373738D
:102B8000074BEE60013403EBC4236B6006B070BDED
:102B9000F8020020440A0020681400201B5900009D
:102BA000680C0020BFB50020FFF750FF264B83F3D1
:102BB0000888264C264F636943F40073636100253F
:102BC000E02384F82230E57725766576A57684F8CB
:102BD0002050636A43F4E023636284F82350FEF7D5
:102BE00041F9FEF78FFA4FF0FF33A3621948E36211
:102BF00000F0D4F90120FFF729FF0220FFF726FF9C
:102C000000F0B2FB144B154C5C61154B059301238E
:102C100014490095CDE903534FF480623B46CDE95A
:102C20000155204600F082F9627B064622F004023C
:102C30002046627302F0CBFE2846FFF77FFF3A463C
:102C400031462046FEF742FA6814002000ED00E00D
:102C50007D2A0000D8030020440A002068030020D9
:102C6000C3660000A815002038B5064C064D0020AC
:102C7000AC4200D338BD204602F0F0FD0028F9DB5D
:102C80001C34F5E7C4010020C401002073B50C46D4
:102C9000EFF31181202585F31288BFF36F8FC5688C
:102CA0005DB125602B68C3608369013383610020B7
:102CB00081F31188BFF36F8F11E052EA030603D14D
:102CC00025606FF00B00F3E7CDE9002302460830E2
:102CD00000F048FA18B9034B9B681B69236002B0E7
:102CE00070BD00BF440A00202DE9F3410446174699
:102CF0001E46EFF31188202383F31288BFF36F8FF2
:102D0000C368334A7BB180689168884219D057EA1A
:102D1000060318D188F31188BFF36F8F6FF00F008F
:102D200002B0BDE8F081916891F90E102161013384
:102D3000E3609368A36088F31188BFF36F8F00206E
:102D4000EEE72169F2E791F90E1090F90E30994201
:102D5000A8BF19466FF07E029142B8BF11468B4260
:102D60002DDD02F0E5FD0546CDE900761948224645
:102D7000414600F0F7F90028E1D0EFF31186202357
:102D800083F31288BFF36F8FA068D0B123682169E5
:102D90009C420AD04BB193F90E309942A8BF194614
:102DA0006FF07E039942B8BF194602F0C1FD40B1F1
:102DB0000848314600F06AFA6FF00A00B0E70025D3
:102DC000D2E7002DF4D186F31188BFF36F8FF3E7BC
:102DD000440A0020620C0020F8B583680546002BE9
:102DE0003FD0234A926893423ED1C368012B03D956
:102DF000013BC3600020F8BDEFF31187202383F36C
:102E00001288BFF36F8F0169806802F091FD2C6812
:102E1000A54207D10023C5E9023387F31188BFF328
:102E20006F8FE7E7002CF5D0D4E9003213605A60C9
:102E3000637B002623F002036373C4E90066A66087
:102E400004F1180002F058FEAC6094F90E302B61CA
:102E50002046E66602F0BBFD0648394600F016FA49
:102E6000C8E76FF01500C6E74FF0FF30C3E700BFBB
:102E7000440A0020620C002070B5EFF31186202375
:102E800083F31288BFF36F8F0468A0421AD0CCB1CD
:102E9000D4E9003213605A60637B002523F00203FB
:102EA0006373C4E90055A56004F1180002F024FE24
:102EB0002046E56602F08BFD31460848BDE87040CB
:102EC00000F0E4B9D0E902329A4218BF01338360BE
:102ED00086F31188BFF36F8F70BD00BF620C0020B6
:102EE00013B5EFF31181202484F31288BFF36F8FA1
:102EF000846844B1013C846081F31188BFF36F8F13
:102F0000002002B010BD52EA030406D181F31188FB
:102F1000BFF36F8F6FF00F00F3E7CDE90023024698
:102F2000014800F01FF9ECE7620C00202DE9FF4199
:102F3000984600F15803D51DC0E916330E9B037364
:102F400025F007050423002643730D440D9B83736E
:102F50000F46C0E9066629468660C6730446FDF73B
:102F60007BFD0C9B029307300B9B019320F0070025
:102F70000A9B00932D1A43462A4639462046FEF7FF
:102F800089F8054B66659B6803B11B6E236628466E
:102F900004B0BDE8F08100BF440A002040F20113F4
:102FA000838100230366014B98607047440A002028
:102FB000094A93686FF00A01D966084998664B6818
:102FC00043F080534B60002383F31188BFF36F8F6E
:102FD0009368D86E704700BF440A002000ED00E0FF
:102FE00070B590F90D20437B002A36DBD90634D129
:102FF0001B4C63F07F032246437352F8183FE1698C
:10300000934207D1C0E900210860E06111E09942D4
:10301000F8D01B68002BF5D090F90E5093F90E6094
:10302000B542F4D0AE42F2DD5968C0E90031086023
:103030005860A569954200D005B9E568A3685A7B38
:10304000D20604D1DA897F2A01D9AA6932B1AB420A
:1030500002D0284600F008FB656170BD6361FCE7A3
:10306000440A002038B590F90D20437B002A014620
:1030700004DA03F07F03437302F06FFC0D4D2A4620
:10308000AB6852F8184F944200D004B9EC688B42F8
:1030900007D05A7BD20604D1DA897F2A01D9A269E6
:1030A0002AB1A34202D0204600F0DEFA23466B612B
:1030B00038BD00BF440A0020B3F1FF3F08BFB2F1A2
:1030C000FF3F03D00249183000F054BB704700BFE7
:1030D000495A000070B590F90D20437B002A014643
:1030E00004DA03F07F03437302F037FC4B7B1C4C84
:1030F00063F07F0322464B7352F8183FE069934216
:1031000007D1C1E900200160E16111E09842F8D0E7
:103110001B68002BF5D091F90E5093F90E60B54263
:10312000F4D0AE42F2DD5868C1E900300160596068
:10313000A569A368954200D005B9E5688B4207D020
:103140005A7BD20604D1DA897F2A01D9AA692AB129
:10315000AB4202D0284600F087FA2B46636170BD6F
:10316000440A0020F8B50E4B0C4611460D4A9868EB
:103170001060DDE90667EFF31182202282F31288E6
:10318000BFF36F8F9D68284602F0F9FB2846324650
:103190003B46FFF791FF2046BDE8F840FFF708BF28
:1031A000440A0020640A0020F8B50446EFF31187B2
:1031B000202383F31288BFF36F8F437B03F01F023A
:1031C000002A0CBF0126002649B239D103F07F0343
:1031D000437302F0C2FB2C4D437B817363F07F038A
:1031E0002A46437352F8183F934227D1E869C4E94D
:1031F00000200460EC610FE09842F8D01B68002BBF
:10320000F5D093F90EC06145F6D08C45F4DD5968D0
:10321000C4E900310C605C60AC69944200D004B930
:10322000EC68AB689C4202D0204600F01DFA6C614D
:1032300087F31188BFF36F8F3046F8BDE869DEE78A
:103240009B071ED5856802F088FB81732B689D4221
:1032500009D16B68C4E900531C606C60E8E76A68D8
:103260009342F6D01B68002BF3D093F90E209142C5
:10327000F5D08A42F3DD5A68C4E9003214605C601C
:10328000D6E78173D4E700BF440A002049B9EFF3C1
:10329000058030B9054B5A699B689A4201D0FFF707
:1032A00087BE81F31188BFF36F8F7047440A0020F7
:1032B000034648B9EFF3058232B9064A516992686C
:1032C000914201D0FFF774BE83F31188BFF36F8F73
:1032D000704700BF440A0020EFF31181202383F3DD
:1032E0001288BFF36F8F054B9A68D37B013BD37372
:1032F00081F31188BFF36F8F704700BF440A00202D
:1033000070B5EFF31186202383F31288BFF36F8F1C
:10331000144DAB68DA7B0132DA732A4652F8184F43
:10332000944200D004B9EC685A7BD20604D1DA8901
:103330007F2A01D9A2692AB1A34202D0204600F017
:1033400093F923466B6186F31188BFF36F8FEFF318
:103350001180202383F31288BFF36F8FBDE8704084
:10336000FFF7A6BF440A0020024B03F11802C3E98D
:1033700006227047440A002070B5EFF3118620231F
:1033800083F31288BFF36F8F1B4CA168E0690B6851
:10339000814214BF1A46002249680B605960A36835
:1033A000E1692AB9154AC3E900210B60E3610CE029
:1033B00093F90E0092F90E50A84218D0854216DDFE
:1033C0005168C3E900210B605360A5690B4B9D4216
:1033D00000D005B9E568A3689D4202D0284600F0F8
:1033E00043F965613046BDE87040FFF7E1BD8A42B0
:1033F000D8D01268D5E700BF440A00205C0A00203C
:10340000F8B550EA010306460C4603D1FFF7B4FFB6
:103410000020F8BDEFF31187202383F31288BFF358
:103420006F8F124D124BA8681860FFF71BFEA8683B
:10343000104923463246183000F09CF9AA68537BA5
:1034400043F00403537304463846FFF7B1FDAB68FD
:10345000D3E90A23B3F1004F08BF002AD8D102F004
:1034600073FB201A20EAE070D3E700BF440A002073
:10347000640A0020495A000038B50446EFF311856C
:10348000202383F31288BFF36F8F437B5B070FD535
:10349000183002F031FB637B23F004032046637392
:1034A000FFF79EFD29460548BDE83840FFF7EEBE10
:1034B00085F31188BFF36F8F38BD00BF620C002009
:1034C000014B9868704700BF440A00202DE9F8437B
:1034D0000446077BEFF31185202383F31288BFF3A3
:1034E0006F8F437B190705D585F31188BFF36F8F65
:1034F000BDE8F883D90943F008025DD14273A3689F
:1035000013B1204602F031FA04F1180002F0F4FA87
:10351000A66D04F15808B04511D04FF0000976B1FE
:10352000304602F022FA06F1180002F0E5FAC6F879
:103530006C903046FFF754FDA66DB045EFD1DFF833
:10354000C080D8F808309C423ED1EFF30589B9F12C
:10355000000918BF4FF00109D8F81860294A9642AF
:1035600000D00EB9D8F80C60B34202D0304600F05B
:103570007BF82046C8F8146001F00FF9B9F1000F8C
:1035800002D02148FFF70AFDD8F808309C4231D11B
:10359000EFF3058373BB227BD20718D42846FFF7CD
:1035A00007FDFB07A4D5002383F31188BFF36F8FBA
:1035B0000423184602DF9BE703F07F0343F0080370
:1035C000437302F0CAF99AE74FF00009C4E785F3A4
:1035D0001188BFF36F8F83F31188BFF36F8F0423BC
:1035E000184602DFEFF31180202383F31288BFF324
:1035F0006F8FD4E785F31188BFF36F8FD1E700BFDA
:10360000440A00205C0A0020D8030020044BC01AA2
:10361000044BC0105843044B01221A54704700BF9A
:1036200048040020ABAAAAAA620C0020C3897F2B01
:1036300012D80A4B1B6863B1094B90F90E201B6826
:103640009A4209DB437BDB0606D1064BC31A18BF3F
:10365000012303F0010070470023FAE7E000002097
:10366000680A0020F802002070B50E4B0E4C1E7C3C
:1036700006EB460304EBC3040546204602F03CFA81
:103680000A4B002228469A55FFF7D0FF48B1084B55
:1036900008491A68013A2046D317BDE8704000F087
:1036A00069B870BD440A002048040020620C002064
:1036B000E00000200D36000038B5EFF3118520231F
:1036C00083F31288BFF36F8F104B114A9C68106808
:1036D000A04206D1FFF7C8FF85F31188BFF36F8FB3
:1036E00038BD00211B7C11600A4AD35C002BF3D04B
:1036F0002046FFF79BFF0028EED0637BDB0602D15C
:103700002046FFF7E7FC2046E4E700BF440A00201C
:10371000640A0020620C0020024B1868984208BF1F
:1037200000207047E4000020034B1B680BB9FEF734
:1037300085BD0020704700BF6C0A002030B570B115
:103740000B4B5B6898420AD0036843B1D3E904216C
:10375000D0E90445121941EB0501C3E90421D0E980
:10376000003213605A600023C0E9003330BD00BF4F
:10377000E4000020B3F1FF3F08BFB2F1FF3F2DE9A5
:10378000F84F0446994615461F467AD08160EFF3FC
:103790001188202383F31288BFF36F8FB9F1000FD4
:1037A000DFF8E4A020DBFFF7BFFFDAE900270135EF
:1037B00049F100092D1849EBE073C4E90453AD1831
:1037C000064643EB07074FF00109FFF7A5FFDFF8B7
:1037D000BCE0DEF804A00346EBB9C4E900EACAF88D
:1037E0000040CEF8044028E0DAE900126FF001034F
:1037F0005B1A4FF0FF3161EB02025B1B62EB0902C7
:10380000012B72F10001BCBF01230022C0E9043288
:103810004FF00009D9E7D3E9041CD4E904208A4217
:1038200070EB0C0B24DA891A5A686CEB0000C3E9C0
:103830000410C4E9003214605C60FFF76DFF84423D
:103840000ED1134B1B685BB9B9F1000F02D1FFF722
:103850006BFF0646304602F038F90021FEF7C0FC47
:1038600088F31188BFF36F8F28463946BDE8F88F7B
:10387000521A60EB0C009A45C4E90420ADD01B68D5
:10388000AAE700252F46EFE760040020E4000020AF
:103890006C0A00202DE9F047EFF31185202383F314
:1038A0001288BFF36F8FDFF8A490DFF8A480C9F807
:1038B0000000FFF731FF00260027D9F80030D8E9D3
:1038C00000ECD91750B1D0E90442A34271EB020ACF
:1038D0001CDAE41A62EB0102C0E9044213EB0E03A6
:1038E0004FF000044CEB01012046C8E90031C9F853
:1038F000004002F0EAF82146FEF772FC85F31188D9
:10390000BFF36F8FBDE8F047FFF7D6BE14EB0E0292
:103910004CEBE473C0E90467C8E90023FFF70EFF2E
:1039200085F31188BFF36F8F83689847EFF3118594
:10393000202383F31288BFF36F8FD9F800301B1B4D
:10394000C9F80030FFF7E8FEB7E700BF6C0A0020B7
:103950006004002010B5EFF31184202383F3128854
:10396000BFF36F8FFFF7E0FE054A0346D2E900017F
:10397000181841EBE37184F31188BFF36F8F10BD0A
:1039800060040020F8B50546EFF31187202383F388
:103990001288BFF36F8F036823B187F31188BFF3D9
:1039A0006F8FF8BDD0E90A46611C46F1000202297A
:1039B00072F1000236D3012C76F10002BCBF012463
:1039C0001E46013C46F1FF3602F0C2F8013041F1DB
:1039D0000001001946EB0101012871F1000130DB03
:1039E00002F0B6F8013041F100016FF00203001956
:1039F00046EB010183426FF000438B4126DB02F06E
:103A0000A7F8013041F100016FF00102001946EB07
:103A10000103121A4FF0FF3161EB03031C492846E2
:103A2000FFF7A8FE2B6B01332B632B6A93B93C463F
:103A30002B4653F8185F9D4200D0D5B984F3118806
:103A4000ADE76FF001024FF0FF33E7E700224FF0E0
:103A50000043E3E787F31188BFF36F8F2B6A284693
:103A60009847EFF31184202383F31288BFF36F8FFD
:103A7000DEE7284601F0BAFF0023EB6684F31188E5
:103A8000BFF36F8F2846BDE8F84001F0A0BF00BF2C
:103A9000853900002DE9F04105461C4690461F4639
:103AA000EFF31186202383F31288BFF36F8FB4F1F5
:103AB000FF3F08BFB2F1FF3F05D186F31188BFF386
:103AC0006F8FBDE8F081002C09DB012A74F100033F
:103AD000BCBF0122002412F1FF3844F1FF37284611
:103AE00002F00AF8DDE906010023C5E90A012B63AB
:103AF00042463B4628460249FFF73CFEDDE700BF51
:103B00008539000010B50A4C23681BB101232360DE
:103B1000002010BD00F0EAF80028F7D00138062890
:103B200003D8044B53F8200010BD034810BD00BF5C
:103B3000700A0020BC600000FE8FFFFFBFF34F8FB4
:103B40000549064BCA6802F4E0621343CB60BFF339
:103B50004F8F00BFFDE700BF00ED00E00400FA0555
:103B600010B4094B09490A4C4FF0FE32C3F8002447
:103B70004968C3F80424C3F80824C3F80C240023BC
:103B8000C4F8003510BC084700B00250EC0000201B
:103B900000A00250D0E90012014BC3E900127047A7
:103BA000EC00002010B5044650B1636813F0685F64
:103BB00005D0064A934202D000232360626010BD04
:103BC000034B04485B689847EFE700BF2C5F5CA994
:103BD000EC000020D8600000C8B143680D4A934251
:103BE00013D013F0685F0ED0012350E8002F194660
:103BF00040E8001C9CF0000FF7D1012AF5D0BFF37C
:103C00005F8F0020704704487047044870476FF486
:103C1000E04070472C5F5CA9E98FFFFFEA8FFFFF50
:103C200080B14368094A93420AD013F0685F05D017
:103C3000BFF35F8F00230360184670470448704746
:103C4000044870476FF4E040704700BF2C5F5CA9E8
:103C5000E98FFFFFEA8FFFFF10B5044620B1044B48
:103C600063600022226010BD0248FFF779FFF6E78B
:103C70003A00003A0061000070B5D0E90023174C0B
:103C8000174D6360D0E90230C4E902302260486811
:103C9000D1F800C0134BC3E900C0D5F81801D1F822
:103CA00008C0C3F808C010F0685FD1F80CC00969FB
:103CB000C3F80CC0196110D00B49C5F8BC11002322
:103CC000C5E9453105F58A70C5F8B83190472368D4
:103CD00005F5DC70BDE87040184770BD0801002094
:103CE000880A0020F40000202C5F5CA938B500F0A1
:103CF0002FF820B1032400F063F8204638BD00F00F
:103D000031F898B900F0ACF898B90F4DD5F82839CA
:103D10001B0EF02B08D1D5F8242A0C4B9A420AD05E
:103D2000072400F017F8E6E70624FAE70424204603
:103D300038BD0024F5E7012000F092F80446002881
:103D4000F7D1C5F80C0AD8E700B002500000E02017
:103D50000020704700207047014BC3F8040A7047E9
:103D600000B0025010B5114800F048F800B110BD85
:103D70000F4800F043F80028F9D10E4C204600F01F
:103D80003DF80028F3D10C4B0C481C6000F036F8CD
:103D900001460028EBD100F02DF8044608B120467A
:103DA00010BD00F03FF82046FAE700BF48010020B0
:103DB0004401002040010020380100203C01002087
:103DC00008B5084800F024F8074800F021F8074833
:103DD00000F01EF8064800F01BF8BDE8084000F0AF
:103DE0000BB800BF48010020440100204001002022
:103DF0003C01002000207047704700BF08B5034B0E
:103E000002681B6810689847002008BD0801002060
:103E100008B5034B02685B6810689847002008BD2E
:103E20000801002070B5094C094D2069AB6898471E
:103E300018B1084B08485B689847084AEB68206946
:103E400000211160BDE87040184700BFF400002059
:103E500008010020EC00002024610000840A0020FA
:103E6000F8B51A4D1A4E0446B26828699047E8B969
:103E7000184F3B684CB1A3B1012B19D0013B3B60FB
:103E80002869F36898470020F8BD43B9124A012118
:103E9000C2F800151149D1F81029002AFBD10133CD
:103EA0003B60F368286998470020F8BD0C48F8BDCE
:103EB0000A4AD2F81039002BFBD1074A6FF07E4036
:103EC000C2F80035FFF748FF3B68D7E7F400002051
:103ED00008010020840A002000A0025000B0025017
:103EE000E98FFFFF2DE9F04F8DB04368029383788F
:103EF00015469A07804640F10D8100240E78002E69
:103F000000F00A81252E0BD04B1C03930134029B39
:103F10004146304698470028C0F2F6800399EDE705
:103F20004E788B1C252E0393F0D00027B946BB4654
:103F3000BBF11F0F38D8A6F12003102B0AD8DFE8F9
:103F400003F02A0909300909092109090928092D5D
:103F500009091F00A6F13003092B33D92A2E37D1C6
:103F60001BF0400F55F8043B40F08280002BA7BFA8
:103F70004BF0200B9946C3F100094BF0280B01E0F0
:103F80004BF0010B039B13F8016B0393002ECFD171
:103F900030E04BF0020B4BF0040BF3E74BF0080B57
:103FA000F0E74BF0100BEDE7BBF17F0F19D8A6F14E
:103FB0003003092BD2D81BF0400F03D00A2101FB9C
:103FC0000737DFE70A2101FB09394BF0200BD9E75E
:103FD0002E2E06D11BF0400F40F09E804BF0400B80
:103FE000D0E76C2E31D02BD8682E36D06A2E3CD03C
:103FF0004C2E3AD0002F46F02003B8BF2BF04002E1
:10400000A3F16501BCBF1FFA82FB0027022901D979
:10401000612B2FD1073525F00705DFF8ACA2083555
:1040200007271BF0080F66D00AEB070B56465E45C4
:1040300063D1A4EB0A0A06EB0A02A9EB07096FE1B8
:10404000742E9FD07A2E9DD0D4E71BF0800F18BF1E
:104050004BF4007B4BF0800B94E71BF4807F18BF80
:104060004BF4007B4BF4807B8CE74BF4207B89E79F
:104070001F4687E7A6F16301122900F2F080DFE80E
:1040800011F013004F00EE00EE00EE00EE004F00C6
:10409000EE00EE00EE00EE00EE00FE00E900EE00A5
:1040A000EE001B00EE00AF0055F8043B8DF8183011
:1040B00001270DF1180AB4E755F804AB834BBAF1A8
:1040C000000F08BF9A461BF0400F14BF39464FF04F
:1040D000FF31504601F096FD0746A2E7029B41469C
:1040E0002020984700280FDB013EB742F6D34C440E
:1040F000A41BB14698E74E46F7E716F8010B029B62
:1041000041469847002892DA98F8023043F00403B9
:1041100088F802304FF0FF3420460DB0BDE8F08F34
:104120001BF0800F34D01BF4007F2CD0073525F016
:104130000705AA4669685AF8080B2BF010050029F4
:10414000ADB237DA404261EB410145F480650DF1D3
:10415000180B0A235A4601F061FDA0EB0B030193F3
:104160006B0662D5019B25F001019F4289B240F3A5
:10417000A180002E00F0998015F0100240F09C8084
:10418000BB460D4623E0AA465AF8040BC117D4E7F4
:10419000AA461BF4807F5AF8041B01D10846F5E7B4
:1041A0001BF4007F15BF48B208B241F3C01141F3C0
:1041B000C031C2E750EA0103C9D11BF0400FC6D09D
:1041C000002FC4D12BF0110295B2BB46019740F2EB
:1041D000064115EA01021CBF0BF1010B00222CE085
:1041E0002BF010021FFA82FB0A231BF0800C49D02F
:1041F0001BF400711DBF073525F00705AA46AA4626
:104200001ABF5AF8080B69685AF8040B50EA0105FE
:1042100045D12BF016051BF0400FADB242D0002F58
:1042200040D12BF0170295B2019715F0100248D03B
:10423000019B002E42D103F1010B29075AD4EB0751
:1042400006D5D9456FDD0199A9EB0B035F18CB4665
:104250005B4649E04BF0100B10237826C5E7782B1E
:1042600004D1C6F1780343F01003BEE7029B414638
:10427000252098470028FFF647AF023447E6082379
:104280000026B2E7AA461BF480715AF8040BBDD091
:104290001BF400711ABFC0B2614680B2B6E72BF0C2
:1042A000060295B20DF1180B54E725F01105ADB2D9
:1042B000BB468CE70D46B8E73B460D4603F1020BC3
:1042C000BBE7DDF804B082E7CF660000C8660000F7
:1042D000CDE904324146029B202098470028FFF692
:1042E00013AF049B059A01339945F1DCA4EB0B0154
:1042F000CC189B460AB3029B4146302098470028C1
:10430000FFF602AF8EB901342744019B391B994255
:1043100024DC1D465DBB019AA9EB0B0922445546DE
:104320001446914435E0019F92E7023441463046FD
:10433000029B98470028E7DAE6E640F206410D4284
:10434000E2D015F0020F14BF2B20202015F4806F4F
:1043500004F10104414618BF2D20E9E7029B4146C4
:1043600030209847002804F10104CEDACCE606ABF1
:10437000013D4146585D029B98470028CADAC3E6D2
:10438000029B414620209847002804F10104FFF6D3
:10439000BBAEA9EB0403002BF2DCBFE57047F0B421
:1043A000034600681979DB88066987683468DA078C
:1043B00054BF43F4D01383F4B01301258D4023F48C
:1043C0008012DB074CBF2C43AC4334603B68F0BC2D
:1043D0001847034601211B790068994083685B698F
:1043E0001847836800EBC101B3F5004F2CBF51F8AB
:1043F000220031F81200704700EBC1018068B0F56F
:10440000004F2CBF41F8223021F81230704708B518
:104410000122FFF7E6FFD04008BD8368B3F5004FE7
:1044200000EBC10108D34B681AB143F001034B60A4
:10443000704723F00103FAE74B881AB143F00103F8
:104440004B80704723F00103FAE753000122FFF786
:10445000D3BF8368B3F5004F34BF04230823481C3F
:104460000833A0EBD300B0FA80F0C0F11F00704712
:104470002DE9F0410D4686680446FFF7C8FFB6F502
:10448000004F014601D3012832D02046FFF7E1FF5B
:1044900004EB80010E6996B9E36801228240134360
:1044A000E36002220D612B4629462046FFF7A4FF58
:1044B000032229462046BDE8F041FFF79DBF0222B6
:1044C00031462046FFF78DFF294603460746204622
:1044D000FFF792FF0322334629462046FFF78CFF61
:1044E00039462B462046FFF787FF02223146E1E797
:1044F000BDE8F081B2F5802F2CBF08230423D21A27
:104500002DE9F0418C18CD1D25F0070524F0070496
:10451000641B0026E40805602146AC60EE60284676
:10452000FFF797FF421D9200013002F107074FEAA3
:10453000D707A2F110023146B8BF324605F110008C
:1045400001F058FB3A4631462846FFF77EFF3346D6
:10455000324631462846FFF74FFFA4EB07082846AE
:1045600031460122FFF759FF42463946FFF76DFFFA
:104570003B46324639462846FFF73EFF214628464D
:10458000FFF763FF4346324621462846FFF734FFD4
:10459000214628460122FFF740FF3946BDE8F04199
:1045A000FFF766BF002070470FB407B504A951F8A4
:1045B000040B0191FBF7BAFF03B05DF804EB04B004
:1045C0007047038B13F0070305D10368002B0CBF62
:1045D000002003207047022B05D1408BB0FA80F0F9
:1045E000400980007047012B05D10368002B0CBFE8
:1045F0000020052070470020704710B50C4600B120
:1046000011B96FF0150010BD081D00F093F80028D7
:10461000F9D1A368032BF6D9F3E72DE9F0410D4654
:1046200007461946281D90461E4600F094F8044699
:1046300038B13346424629463846A446BDE8F041E3
:104640006047BDE8F08110B4EFF31182202484F3B9
:104650001288BFF36F8F416110BC0121FBF798BF37
:1046600038B50C46054658B151B10B6843B14B689B
:1046700033B11C22002101F0BDFA2C61002038BDAD
:104680006FF01500FBE770B505460E46FFF7B5FF66
:10469000041E14DBEFF31182202383F31288BFF38F
:1046A0006F8F6B8B2C8B4FF6FF718B4204F00704DE
:1046B00007D182F31188BFF36F8F6FF00A04204691
:1046C00070BD022C0CD101336B8382F31188BFF3D0
:1046D0006F8F0023224631462846FFF79EFFEEE704
:1046E000062C14D8DFE804F004131313041A040092
:1046F000002333606B683BB9C5E90066ACB90221A1
:104700002846FBF745FFDAE71E606E60F6E782F3A6
:104710001188BFF36F8F6FF00404D0E782F3118824
:10472000BFF36F8F6FF08504C9E782F31188BFF381
:104730006F8FC4E7034658B1426802F00302012AB2
:1047400003D0032A04D1026812B100209860704798
:104750006FF0150070474268816002F00302032A7F
:104760004FF0000203460CBF006810465A607047C5
:104770007047FEE701F03EBA01F014BA0146006846
:10478000FCF736B908B5FCF763F9BDE80840FCF75B
:1047900083B900210120FCF72BB96FF08500704729
:1047A00061B662B680F31188BFF36F8F704772B63F
:1047B000002383F31188BFF36F8FBFF34F8F30BF98
:1047C00062B6BFF36F8F704772B6002383F3118810
:1047D000BFF36F8FBFF34F8F20BF80F31188BFF3FC
:1047E0006F8F62B670470369C9B20C2201FB0233B6
:1047F000186C00F00700704770B5C9B20369EFF399
:104800001185202484F31288BFF36F8F0C2606FBDA
:104810000134246C14F0C00408D0A24206D085F301
:104820001188BFF36F8F4FF0FF3070BD06FB01336F
:1048300001221A6485F31188BFF36F8F436803EB7D
:10484000C1035B6898470020EFE78022FFF7D4BFE1
:10485000F8B5069F0469C9B2EFF31186202585F3E8
:104860001288BFF36F8F0C2505FB0144256C05F002
:10487000070CBCF1010F0CD1276486F31188BFF33C
:104880006F8FC4E90E23436853F8313098470020F6
:10489000F8BD05F0C005AF4286F31188BFF36F8FF6
:1048A0000CBF6FF077004FF0FF30F1E713B58024B5
:1048B0000094FFF7CDFF02B010BD10B40069CBB279
:1048C0001C2403FB0400002110BC10471046FEF717
:1048D000D3BA00F0C3BCFDF7A5BE43685B68D3F84C
:1048E00010350B600020704743685B6802EA0100E6
:1048F00021EA0201C3F80805C3F80C15002070472F
:1049000043685B680020C3F80815704743685B681C
:104910000020C3F80C15704743685A68D2F8043574
:1049200021EA03000B40C2F80805C2F80C3500204C
:10493000704710B503695868F8B1884219D19C686E
:1049400008685860A14200D19860002008602AB130
:104950005A680A609A68596002B99960002010E0AC
:10496000814206D10868206098688142EDD19C6040
:10497000EBE7044600680028F2D1002AE8D16FF086
:10498000150010BDFDF762BF30B543681360057AAE
:10499000446804EBC504A34202D36FF0010030BDAC
:1049A0005C798C4201D00833F0E70020F7E74368D8
:1049B0001B68D3F88004C3F88004704703691A6841
:1049C00013680BB152681847704730B587B004467A
:1049D0000D461422002101A801F00CF904230DEB6F
:1049E000030120468DF804300295FFF7E7FF07B07A
:1049F00030BD70B586B0066904460D46142200210C
:104A000001A801F0F7F802238DF8043033681B6C1D
:104A1000029333689B6C01A92046CDE90335FFF76B
:104A2000CDFF06B070BD30B503691C6843681B68D4
:104A3000EFF31185202080F31288BFF36F8F206C75
:104A4000A8B1E06CB0B9C4E91312042AC3F8341554
:104A5000C3F8382582BFD3F8002242F02002C3F801
:104A60000022002085F31188BFF36F8F30BD6FF0F7
:104A70000C00F7E76FF00F00F4E70369186820B146
:104A800001601B6800205A6070476FF08500704716
:104A900010B5426800691368006860B9D3F8104126
:104AA00064B1526A12780A70C3F81001D3F8102169
:104AB00001221A6010BD6FF08500FBE74FF0FF3058
:104AC000F8E770B503691D6843680E461C6805F178
:104AD000080001F04BF8EFF31182202383F31288D2
:104AE000BFF36F8FEB6C53B1D4F8003223F0200387
:104AF000C4F800320023C4F84C31D4F84C31002300
:104B000085F8613001230EB185F86230636082F36D
:104B10001188BFF36F8F002070BD03691B681B6C89
:104B200013B10121FFF7CDBF6FF00D00704710B535
:104B300003691968D1F8A420D1F8B040121B13D032
:104B4000082A28BF08224068C1F8AC20196880698B
:104B5000C1F8A8001B68D3F8A010D3F8B0301944EE
:104B600001F020F8012010BD1046FCE70268034662
:104B7000D2F8580140B95B68DB0706D4D2F82001AF
:104B8000003818BF012070470120704713B501AAF3
:104B90000446FFF7F9FE002805DB019B226819791E
:104BA0001868FCF741FE02B010BD10B402694468F9
:104BB000936923EA0101916111F0030108D143686F
:104BC0001B68C3F80015E06810BC0121FFF7DEBFC9
:104BD00010BC704770B5036945681E6886B004460E
:104BE0001422002101A801F005F805238DF80430F6
:104BF000002386F861306B685B070ED5EFF31185F3
:104C0000202383F31288BFF36F8F02212046FFF722
:104C1000CCFF85F31188BFF36F8F01A92046FFF702
:104C2000CDFE06B070BD6FF08500704710B502690B
:104C300093691943916113F0030107D143681C681C
:104C4000D868FFF7A3FF0823C4F8003510BD10B5DE
:104C500043681C68C4F84415C4F848250022C4F809
:104C60002021D4F82011C4F858215B68D4F85821C9
:104C70005B0702D50121FFF7D9FF0123A36010BD17
:104C800010B543681B684FF48002C3F80423044640
:104C90004068FFF76BFF0B6818B9012283F8B82052
:104CA00010BD002283F8B8200B684FF0FF32C3F824
:104CB000B4200B682046D3E92A12BDE81040FFF764
:104CC000C6BF37B5426B536812691B681068D3F8CA
:104CD00008217AB10022C3F80821D3F808314265CF
:104CE000D0E9162300240025CDE900450830FEF761
:104CF000D1FE06E0426D0132042A4265F0D1012264
:104D00005A6003B030BD2DE9F04F436807691D6854
:104D1000D7F80080D5F80463D5F8083189B0044687
:104D2000DBB1720719D50022C5F808214168D5F812
:104D300008310369D1F8009019684A651868D0E90C
:104D400016234FF0000A4FF0000BCDE900AB0830FE
:104D5000FEF7A0FE0423C9F80833D5F8243163B365
:104D6000B3052AD50021C5F82411D5F8243163688C
:104D7000D3F800A0DAF88094142203A800F03AFFD8
:104D8000062319F0010F8DF80C3040F0418119F025
:104D9000020F40F03F8119F0040F40F03D8109F00F
:104DA00008038DF8103003A92046CAF88094FFF755
:104DB00005FE00212046FFF784FED5F81031002BB8
:104DC00059D0F00657D54FF0000BC5F810B1D5F803
:104DD0001031C5F810B1D5F810312369D3F800901F
:104DE0006368D3F800A009F1080000F0BFFE99F84D
:104DF0006010D9F84830DAF83C2589F860B0C91A53
:104E00001144594502DD2046FFF7F3FDD9F8401063
:104E10002046FFF7DAFDD9F84C30C9F84030D9F810
:104E20005030C9F844300023C9E91333C9F8483079
:104E300099F86130FBB1EFF31182202383F31288DC
:104E4000BFF36F8FD9F84030002B00F0E780DAF81D
:104E50004C3133B90121CAF80010CAF84431DAF8EC
:104E60004431DAF8003223F02003CAF8003282F32A
:104E70001188BFF36F8F31031FD5D5F84C31E3B1E3
:104E8000D5F81011C9B9C5F84C11142203A8D5F8EA
:104E90004C3100F0AFFE03238DF80C3023691A6803
:104EA000D2E9163213431FBF63681B680422C3F89C
:104EB000042303A92046FFF781FDB2032AD5D5F8C4
:104EC00044313BB3D5F810A1BAF1000F22D1C5F897
:104ED00044A1D5F844312369D4F804B0D3F8009044
:104EE000D9F8401021B12046FFF76FFDC9F840A066
:104EF00099F86230002B00F09580002389F8623029
:104F000063681B680022C3F808212046D3F80831E3
:104F1000FFF760FEF00519D5D5F82031B3B163680D
:104F20001B68EFF31182202181F31288BFF36F8F8A
:104F3000D3F8201131B10021C3F82011D3F820118A
:104F40000121D96082F31188BFF36F8F71023DD5C3
:104F5000D5F85831002B39D063682569D3F8009013
:104F6000EFF3118A202282F31288BFF36F8F2A6831
:104F70005B68D2F8B4100029ACBFD2F8B460D9F89D
:104F80004C655A0707D54FF48003C9F8083301214F
:104F90002046FFF70AFE8AF31188BFF36F8F2B6854
:104FA000D3F8A02092B193F8B81000295ED0EFF3A7
:104FB0001186202383F31288BFF36F8F2946204682
:104FC000FFF75EFE86F31188BFF36F8F1837BFF3CC
:104FD0005B8F57E8003F23F0040247E800210029D7
:104FE000F7D1BFF35B8F5B077DD5D8F8441020461F
:104FF000FFF7FFFC2046D8F84010FFF7E6FC00233F
:105000002046C8E9103309B0BDE8F04FFFF7E2BD14
:105010000123C6E60223C4E60423C2E60123CAF83C
:10502000043024E7DBF804305B077FF569AF626882
:105030001368D269C3F834250522C3F83825012244
:10504000DA62D3F81021002AFBD00021C3F8101136
:10505000D3F81021D3F84C212AB1C3F84C11D3F85E
:105060004C21D3F83C2589F8602049E7D3F8A810F3
:105070008A4210D0D3F8AC10D3F8B020B1423244F9
:105080002FD1C3F8B0202046FFF751FD00288ED164
:105090002B68D3F8B0602868683000F067FD1422F0
:1050A000002103A800F0A6FD2B68D3F8A030CDE9BD
:1050B00004362B68D3F8A4309E421CBF01238DF820
:1050C0000C304FF48003C9F808332A680023C2F873
:1050D000A0302A6803A9C2F8A4302046FFF76EFC6E
:1050E00074E71646D7E709B0BDE8F08F38B54268D7
:1050F000036915681A68D2F8A01051B1002482F82B
:10510000B8401868683000F031FD0123EB6020469C
:1051100038BD6FF00D00FBE7406BFFF7E7BF00F114
:1051200050039B009BB203F1804303F588330022B8
:105130001A601B687047FEF7E5BC08B5FBF744FB37
:10514000FBF718FCBDE80840FEF7DCBC0346002076
:10515000184700F051BB10B502461168B1B1BFF35A
:105160005B8FB1FA81F3C3F11F000123834021EA71
:10517000030352E8004F8C4204D142E8003CBCF1EA
:10518000000FF6D1BFF35B8FE7D110BD6FF00B00BE
:10519000FBE710B50368CB40DB0714D401238B4039
:1051A0000268BFF35B8F43EA020150E8004F94426C
:1051B00004D140E8001CBCF1000FF6D1BFF35B8FB7
:1051C000EED1002010BD6FF01500FBE770B50C4666
:1051D0000021054608461646FDF738F900280ADB87
:1051E0003378DB0003F1804303F5F8330020C3F884
:1051F0001055C3F8144570BD10B1012802D0704796
:10520000FDF710BAFDF7C0B918B1012803D100F0BD
:105210000AB800F023B8704708B5FDF7D1F9BDE82A
:105220000840FDF73FBAFDF775B938B54FF0804437
:105230000223C4F808330123E3600023C4F80431D7
:10524000D4F8043142F21075D4F81834DB0304D5D5
:105250000120FFF77EFF013DF6D138BDFFF7E5BF26
:10526000F7B5019001A8DDE9084716461D46FDF790
:1052700051FA019BB6F1000C18BF4FF0010C00EB86
:1052800083000B1E18BF0123002D43EA4C0314BFFB
:105290004FF00C0C4FF0000C002C43EA0C0314BF31
:1052A0004FF4E06C4FF0000C002F43EA0C03D0F8F1
:1052B000002714BF4FF4403C4FF0000C43EA0C03AE
:1052C00022EA030301B109780EB13678760019435A
:1052D0000DB12D78AD0031430CB12478240229435F
:1052E0000FB13F783F040C433C43C0F8004703B084
:1052F000F0BD1FB50DF10F03019300238DF80F10C2
:1053000000931A461946FFF7ABFF05B05DF804FBA2
:1053100010B504460846FDF70DFA04EB4004A08AD8
:10532000C0F3401010BD10B504460846FDF702FA60
:1053300004EB4004A08AC0F3400010BD10B5044641
:105340000846FDF7F7F904EB4004A08A400B10BDB6
:1053500070B5044608461646FDF7ECF908300D46D0
:1053600034F81030DA0509D5C3F3432304EBC30244
:10537000314654F83330526828469847A3682BB119
:10538000E26831462846BDE87040184770BD10B548
:1053900004460846FDF7CEF900B204EB4000838ACC
:1053A000DA051DD5C3F3432123F4F853838204F1B6
:1053B000120204F1720032F8023F13F4807F03D02E
:1053C000C3F3432399420BD08242F4D104EBC103CF
:1053D00000225A6004F17800BDE81040FFF7D9BE02
:1053E00010BDF0B5034600F5807400200546012786
:1053F000844695420AD1D3F87C2132B10022C3F809
:105400007C21D3F87C3140F00040F0BD25F04046CF
:1054100007FA06F6314209D0D4F800E0BEF1000FD9
:1054200004D0C4F800C0D4F800E03043013504349F
:10543000DFE738B504460D46FFF76AFFB0B12046F6
:10544000FFF771FF90B92046FFF778FF226801232C
:105450008340C2F80833236800B203EB8003D3F81B
:10546000102522F00302C3F8102538BD284600217C
:10547000BDE83840FFF73DBF2DE9F043174685B042
:1054800004460846FDF756F9D7F800800E46054653
:10549000B8F1000F1FD02046FFF745FF18B1204696
:1054A000FFF736FF30BB0023CDE900338DF80E3017
:1054B0008DF80F300DF10F0243460DF10E0130460D
:1054C000FFF7CEFE2AB204EB4202938A23F00203D6
:1054D00043F0010393827B68002B34D03146204691
:1054E00093F80080D3F80490FFF71DFF28B1B9F1BD
:1054F000000F1FD06FF0150028E028B204EB400029
:10550000838A23F4604323F020038382B9F1000FE0
:1055100010D0B8F1030FEDD87B6821685B6893F871
:1055200000C001EB8C01B8F1000F12D1C1F8108559
:10553000C1F810852AB204EB4202938A23F01C03BF
:1055400043EA88039382BB684BBB002005B0BDE8EB
:10555000F083D1F8102522F00302C1F8102522684B
:1055600002EB8C03D3F8102522F44F3222F4407260
:10557000C3F810253202D3F8101502F47C5242EA27
:1055800008420A43C3F8102504EB4C03A3F87C60DF
:10559000838A43EA4C3343F020038382CAE7D3E98A
:1055A000007831462046FFF7F2FE002FCDD0636829
:1055B0009F4206D004F17800FFF7CDFD002804DA01
:1055C000C4E7A3689845F5D1002004EBC003C3E904
:1055D00001782DB204EB4505C0B2AB8A43EA402303
:1055E00043F48073AB82B0E72DE9F043054685B004
:1055F000084617461E46FDF79DF80C46804637B311
:105600002846FFF790FE18B92846FFF781FE28BB11
:105610000FFA88F905EB4909B9F8143013F01C0F9B
:1056200002D07B78012B19D001238DF80F30002395
:10563000CDE900737A1CBB1C0DF10F012046FFF76A
:105640000FFEB9F8143043F00303A9F81430002E0C
:1056500041D021462846FFF766FE20B96FF01500BD
:1056600005B0BDE8F08337782B6803EB8703002291
:10567000C3F81025C3F810250FFA88F205EB420293
:105680004FEA870C938A23F4604323F0200393822C
:10569000707800B32968B67861440004D1F81035F9
:1056A00023F4991323F4F853C1F81035230200F4BE
:1056B000403003F47C5303433005D1F8105500F417
:1056C000801003432B43C1F81035938A43EA4733D4
:1056D00043F0200393820020C2E7C0E90312704721
:1056E00070B504461546FFF713FE48B10846FDF7AE
:1056F00021F804EB40040020A38A5B0B2B7070BDE3
:105700006FF01500FBE738B590F88C4005469CB962
:1057100060222146143000F06DFA2868C0F87C4100
:10572000D0F87C3140F30730FBF75EFC012385F8AD
:105730008C30AB67204638BD6FF07700FBE790F800
:105740008C00003818BF01207047FDF72FB82DE9F5
:10575000F34104461746FFF7DBFD0D46266800B30C
:105760002046FFF7E0FD8046D8B92046FFF7E6FD6A
:1057700005B2AD0005F5807246F802802168B25886
:105780002944D1F8102542F00102C1F810252FB1AB
:105790002168012202FA00F3C1F8043302B0BDE827
:1057A000F081D6F80433002BA4BF4FF00043C6F8B5
:1057B00004332846FCF7BEFF04EB4004A38AC3F37E
:1057C0008203042B12D0052B12D001A80195FCF7FF
:1057D000A1FF019BD0F81015D94001F00101023161
:1057E000284602B0BDE8F041FFF783BD0321F7E78B
:1057F0000221F5E7FFF71DBE08B1FBF7DBBC7047E0
:1058000010B5436904463BB90020E268537843F081
:1058100001035370404210BD98470028F4D000287F
:10582000B8BF4042E368FF28A8BFFF201870ECE72C
:1058300040B1C368587810F001001EBF1878B0FA64
:1058400080F040097047EFF31183202383F312881F
:10585000BFF36F8FFEE708B5FFF7F5FF4169826878
:1058600042EA010313F003030FD1C3600369013B54
:1058700003FB0122002B01DA00207047C168116090
:105880004169C260013B521AF4E76FF0150070479E
:1058900010B5C0E904320023816083610446FFF73C
:1058A000DDFF0028A8BFC4E9004410BD2DE9F04188
:1058B00005460F46EFF31188202383F31288BFF3C8
:1058C0006F8FC668F6B90468A0421BD0D4B1D4E982
:1058D000003213605A60637BA66023F00203637397
:1058E000C4E9006604F1180000F006F92046E666F7
:1058F000276100F06CF8414605F10800BDE8F04171
:10590000FDF7C4BC3E60AB69EF60013BAB6188F35F
:105910001188BFF36F8FBDE8F08108B52024EFF345
:10592000118384F31288BFF36F8FFEF740FFF6E711
:1059300090F90E308B4201D0FDF736BC0020704745
:1059400003460020C3E90200C3E900337047EFF3C8
:105950000580003818BF01207047D0E9003213607D
:105960005A600023C0E90033704708B5FFF7F5FF20
:10597000437B23F0020343730023836008BD38B5E3
:1059800004460D46FDF76EFB637B43F00203637331
:10599000E5B1A5602B689D4209D16B68C4E900534D
:1059A0001C606C6012E06A689A42F6D01B68002B9B
:1059B000F3D094F90E2093F90E108A42F3D091425D
:1059C000F1DD5A68C4E9003214605C6038BD10B57E
:1059D000EFF31184202383F31288BFF36F8FFDF759
:1059E000FFFA84F31188BFF36F8F10BD08B5EFF392
:1059F0001181202282F31288BFF36F8F83680BB16D
:105A0000FFF7B3FF81F31188BFF36F8F08BD10B5A7
:105A10000146EFF31184202383F31288BFF36F8FC5
:105A2000437B13F0280F0AD183680BB1FFF79DFF6A
:105A30004B7B23F004034B730846FDF7D1FA84F344
:105A40001188BFF36F8F10BD01211838FFF7DFBF3A
:105A500008B50346EFF31181202282F31288BFF3C9
:105A60006F8F0068834207D008B1FFF77EFF81F394
:105A70001188BFF36F8F08BD0020F8E738B50446E2
:105A80000D46FDF7BDFCB5F1FF3F08BFB4F1FF3F88
:105A90000246204618D000204FF47A7447F6FF7370
:105AA0000146C2FB0431B3F5004F71F100020BD384
:105AB0006FF400429A4243F6FF728A4126BFD80B28
:105AC00040EA41406FF0004038BD08B50246FDF79E
:105AD00023FE70B1D0E904319B1A61EBE272B3F19D
