:1000000060180020490B0000B33F0000350B0000D2
:10001000350B0000350B0000350B00000000000020
:100020000000000000000000000000007D0C000047
:10003000350B000000000000290C0000350B00000B
:10004000E10D0000E10D0000E10D0000E10D0000F8
:10005000E10D0000E10D0000E10D0000E10D0000E8
:10006000E10D0000E10D0000E10D0000E10D0000D8
:10007000E10D0000E10D0000E10D0000E10D0000C8
:10008000E10D0000E10D0000E10D0000E10D0000B8
:10009000E10D0000E10D0000E10D0000E10D0000A8
:1000A000E10D0000E10D0000E10D0000E10D000098
:1000B000E10D0000E10D0000E10D0000E10D000088
:1000C000E10D0000E10D0000E10D0000E10D000078
:1000D000E10D0000E10D0000E10D0000E10D000068
:1000E000E10D0000E10D0000E10D0000E10D000058
:1000F000E10D0000E10D0000E10D0000E10D000048
:1001000070B50A480A4E0A2103F065FE012425460F
:10011000654321462A463046013403F05CFE0B2C31
:10012000F6D1BDE87040034803F055BEAC52000064
:10013000DC520000F852000070B51E4C204604F05E
:10014000B0FC002832D01C484FF4D01103F041FD20
:1001500000282BDB19484FF4803103F03AFD0028CA
:1001600024DBA568AE696EB123691B6813F4006FC8
:1001700014BF4FF000734FF080634FF0A0720B215B
:100180002046B0470E4803F026FE0E490E4B4B604A
:100190004FF400638B60EB6913B106480122984766
:1001A00000214FF0967004F07BFDF9E74FF0FF302F
:1001B00070BD00BF144F00002851000030510000F6
:1001C000075300002003002001010000014B1B68C1
:1001D000184700BF00000020014B1860704700BFA7
:1001E0000000002030B585B004460D4610220021E5
:1001F000684604F0CDFD02238DF802302A46044BF8
:1002000001932146684603F087FA05B030BD00BF70
:10021000CD01000080B505460E461746984602F00F
:1002200029FE034604F020FEDFF81890044649F842
:100230000030424630463946A84754F8090000F0DD
:10024000DDFC00BF080000002DE9F047058B0446E7
:100250002807904611D4022905F0070540F0CC800C
:10026000204603F0C5FD78B10138218B042811D850
:10027000DFE800F0C2106D85950001290CBF45F044
:10028000100545F02005258388F31188BFF36F8F93
:10029000BDE8F08701F0070AAA4500F0A580002715
:1002A000B9463E46A368002B00F0BC8041F008012F
:1002B000218388F31188BFF36F8FA168002900F0B4
:1002C000BA800D68002900F0B680D1F8048033466A
:1002D00052462046C047002D76D02B6829461D4641
:1002E000F0E701F007035A1F012A1BD8002221F072
:1002F0000701062B276889B2C4E9002209D13B46D1
:1003000003E0628B013262831B68002BF9D141F05C
:1003100002012183204603F06BFD00287AD041F0D2
:10032000200176E0042B0AD121F0070189B2218354
:10033000204603F05DFD10B141F020012183218BA7
:1003400001F0070AAA454FD00027B946AAE723695A
:1003500021F0070141F00601062DD3F8009021831A
:100360002DD1B9F1000F3FD041F00801218388F36E
:100370001188BFF36F8F3A492046C84729E021F022
:100380000701236941F0040189B2042DD3F80490D8
:100390002183E6D000273E464FF0040A82E721F091
:1003A0000701236941F0050189B2052DD3F80890B2
:1003B0002183D6D000273E464FF0050A72E700277A
:1003C0003E464FF0060A6DE72B4687E7B9F1000F6E
:1003D000D1D1EFF31188202383F31288BFF36F8FFD
:1003E000238B23F008032383258BEA062ED525F0E3
:1003F0001003238305F007056669218B002EBFF6E5
:1004000070AF00232768C4E9003321F0070141F0F1
:1004100001012183218B01F0070AAA454FF0000951
:100420007FF440AF002F9CD041F00801218388F376
:100430001188BFF36F8F002FC8D03D68394633460F
:100440005246204603F000FD2F46F4E7AB067FF549
:100450001BAF25F02003238305F0070500E700BF4D
:10046000753E000008B5044803F0B5FCBDE808403F
:10047000024803F0B0BC00BF3D53000072530000BF
:10048000014802F0A1BF00BF3851000038B5044652
:1004900018B90F4B0F485B6898476168B1F5683F22
:1004A00010D0B1F5680F0DD00B4DA9420AD011F450
:1004B0006861206807D00146084804F030FB00233B
:1004C0002360656038BD142204F062FCF9E700BFC8
:1004D000D8000020A05300002C5F5CA92C0800204D
:1004E00008B520B34368B3F5683F10D10122036813
:1004F000BFF35B8F53E8001F002903D143E80020BE
:100500000028F7D1BFF35B8F0DD1002008BD094A49
:1005100093420AD000684FF0FF324FF0FF3302F0F1
:10052000BDF80028F1D00448F0E70448EEE76FF486
:10053000E040EBE72C5F5CA9E98FFFFFEA8FFFFF4C
:1005400008B5D8B14368B3F5683F10D100220368FD
:10055000BFF35B8F53E8001F012903D143E800205C
:100560000028F7D1BFF35B8F0BD1002008BD074AED
:10057000934208D0006802F009F9F6E76FF4E04012
:10058000F4E70348F2E70348F0E700BF2C5F5CA9FB
:10059000E98FFFFFEA8FFFFF10B5044618B91D4B26
:1005A0001D485B6898476368B3F5683F2FD0B3F583
:1005B000680F2CD0194A934219D1236803BB1848FD
:1005C0004FF0FF324FF0FF33214602F039F808B9FF
:1005D00023681BB90F4B13485B68984720681422A7
:1005E000002104F0D5FB4FF46863636008E0B3F5C5
:1005F000683F0DD83A2B03D040F6BA629342DED161
:10060000206804F0D6FA636843F03A03636010BDD3
:10061000054AF3E7D8000020A05300002C5F5CA936
:100620002C080020C65300003A00003A08B50649DD
:1006300006484023142204F064FABDE80840044947
:10064000044802F033BF00BF2C0300202C08002018
:10065000405100005451000008B50348034A0021EE
:10066000121A03F09EFC08BD90010020200B002010
:100670000748084A084908B5121A03F094FC0748CD
:10068000074A0849BDE80840121A03F08CBC00BFB5
:100690000000002090010020805800000000002091
:1006A000000000208058000038B505460C4699B17E
:1006B000D1E901230F48096803F08DFBD4E9042335
:1006C000E1680D4803F087FBE1690C4803F083FB08
:1006D000A1690B4803F07FFB012D05D1EFF30581E4
:1006E0000848103903F077FB21462846BDE838401A
:1006F00001F06EBEF3530000235400005354000079
:10070000635400009254000030BFFFF7FDBF00BFEC
:100710002DE9F0410B4EDFF8308006EB0807CC1BCB
:10072000054632460949204604F024FBA0194246FA
:100730000021083C04F02CFB6C6607F10800BDE8C2
:10074000F08100BF00000000040000002051000004
:10075000054B5A699B689A421FBF044A536843F08D
:1007600080535360704700BF1809002000ED00E07F
:1007700010B51D4C1D4803F02EFBA36A990130D51E
:100780001B4803F028FB1E20A36ADA0103D5194891
:1007900003F021FB1F20144CA36A1B0303D516484A
:1007A00003F019FB2120A36A590303D5134803F072
:1007B00012FB22200C4CA36A9A0303D5104803F0C5
:1007C0000AFB2320A36ADB0303D50E4803F003FBD7
:1007D0002420054A936A6FEA03436FEA1343936246
:1007E00010BD1D20D0E700BF00ED00E0A6540000C2
:1007F000BF540000D3540000EE5400000D5500001B
:10080000335500004E55000070B5244C0646244870
:100810000D4603F0E0FAA36AD90435D5214803F068
:10082000DAFA1720A36A1A0503D51F4803F0D3FA92
:1008300018201A4CA36A9B050FD51C4803F0CBFA6D
:10084000A16BA36A180407D5194803F0C4FA1EB1B6
:10085000A36A23F40043A3621920104CA36A59052C
:1008600003D5144803F0B7FA1A20A36ADA050DD5A8
:10087000114803F0B0FA1B20084A936A43F47F43FF
:10088000936200232B7070BD1620CBE7A36A9B04F4
:10089000F2D50A4803F09FFA1C20EDE700ED00E0D6
:1008A0007A55000091550000A3550000B75500008F
:1008B000D1550000E7550000035600001C5600000B
:1008C00070B5264C064626480D4603F084FAA36A06
:1008D000D80640D5234803F07EFA1120A36A1907F1
:1008E00003D5214803F077FA12201C4CA36A9A071B
:1008F0000FD51E4803F06FFA616BA36A1B0607D57C
:100900001B4803F068FA1EB1A36A23F08003A362B8
:100910001320124CA36ADE0703D5164803F05BFAD6
:100920001420A36A9C0603D5134803F054FA15203B
:100930000A4B9A6AD10658BF9A6A9A6A920642BFCF
:100940005A6A22F400525A629A6A42F0FF029A628C
:1009500000232B7070BD1020C0E700BF00ED00E049
:100960004C56000063560000A35500009756000047
:10097000B0560000C75600001C5600002DE9F0419B
:100980005B4B5F688AB00446C7F30806002585F311
:100990001188BFF36F8F02F07F43B3F17F4F06D111
:1009A00002F00C03082B13D1524803F014FA00256F
:1009B0002C464FF00008F31E8DF80780092B00F23B
:1009C0008580DFE803F00A797D75838383838381E3
:1009D00010074CBF0C460125EBE74748444E03F097
:1009E000FAF98DF80780F36A9A0704D5434803F0B3
:1009F000F2F900232FE0F36A002B01DA4048F6E712
:100A0000F36A5B00F5D53F4803F0E5F97369A26925
:100A100043F480737361BFF34F8FBFF36F8F7369BC
:100A200032F8022C23F480737361BFF34F8FBFF34E
:100A30006F8F4DF602739A4208D0B36ADBB24BB3A4
:100A40000DF107010120FFF73BFF33E021682E483D
:100A500003F0C1F923689DF80720C2B902AE04F182
:100A6000200720686168324603C20834BC4216463B
:100A7000F7D1099AB5B3C2F3080121B96FEA52223E
:100A80006FEA4222099202A91846FFF70DFE0AB04A
:100A9000BDE8F081B36A13F47F4F05D00DF1070173
:100AA0000120FFF7B1FE05E0B36AB3F5803FA0D3A4
:100AB000FFF75EFE0346CEE70DF107010020C2E717
:100AC0000DF107010020ECE7104890E7104B1149A9
:100AD000114817F4F87FA6F1100218BF194603F069
:100AE0007AF986E722F4FF7222F00102CAE700BF1A
:100AF00000ED00E015570000415700005957000075
:100B00007B5700008A570000AA570000C757000013
:100B1000FC560000E7560000EC570000044B5A69F1
:100B200042F010025A615A6922F008025A61704775
:100B300000ED00E0EFF30880EFF3098101B57246A4
:100B4000FFF71CFF01BD00BF002080F31488BFF336
:100B50006F8F0F4880F3088801F06EF800200D4970
:100B60000860BFF34F8F00F019F8202080F3118840
:100B700009484FF40061401880F30988EFF31480AE
:100B80000221084380F31488BFF36F8F00F0CAF886
:100B90006018002094ED00E0200B002072B60023C6
:100BA00083F31388144B4FF0FF32C3F88020C3F84F
:100BB0008420C3F88820C3F88C20C3F89020C3F8A1
:100BC0009420C3F89820C3F89C20C3F88021C3F870
:100BD0008421C3F88821C3F88C21C3F89021C3F87D
:100BE0009421C3F89821C3F89C2162B6BFF34F8FBC
:100BF000BFF36F8F704700BF00E100E0084B9B68B8
:100C000083420BD1EFF3058343B1064B5A6842F0A0
:100C100080525A605A6A22F400425A6202F030B995
:100C20001809002000ED00E011498A684FF03000FB
:100C30001044EFF3098C80E8F01F202080F3128825
:100C4000BFF36F8F0B4F4FF000664A698A603E60BA
:100C5000506E094C2060906E0023936680F31188DB
:100C600002F1300090E8F01F8CF309887047000013
:100C70001809002004ED00E0480800201EF0040FD1
:100C80000CBFEFF30880EFF30980816911F8021CB3
:100C90000229FFD001B5724603F087F901BD00BFFC
:100CA00040B2002807DB044A4109012300F01F007D
:100CB000834042F82130704700E100E0054B4209D3
:100CC00000F01F0053F82220012303FA00F0104027
:100CD000704700BF00E100E040B20028A8BF00F16B
:100CE000604001F10101B8BF064B4FEA4111ACBFB2
:100CF00000F5614000F00F00C9B2B4BF195480F88C
:100D00000013704714ED00E0044B054A23F07F0305
:100D10009360BFF34F8FBFF36F8F704700000000E9
:100D200000ED00E008B5FFF7EFFF074AD2F8883082
:100D300023F47003C2F88830FFF78EFCFFF798FCAD
:100D400000F042F801F008FC00ED00E042F8203C21
:100D5000009B42F81C3C0A49019B42F8183C029B4C
:100D600042F8143C21F001014FF0807342F8043C3A
:100D700042F8081C0023203A02658366704700BFD2
:100D80001502000000B50B4B98600B4B1546426EE8
:100D90001A600E462C4686F309880020034B9847BC
:100DA0002046002100220023014C2047CF3F0000B5
:100DB000150200001809002048080020014B1022ED
:100DC0001A61704700ED00E0044800232021C2189A
:100DD0000133302B82F80013F9D1704700E100E0B5
:100DE00008B5EFF30583064A103B02EBC30152F846
:100DF000330049688847BDE80840FFF7A9BC00BF39
:100E0000544F000008B5024B1B689847002008BDEE
:100E10004C080020034B044A1860937843F0020307
:100E2000937070474C0800202400002008B5064944
:100E3000064821F00701C1F1005202F5802202F0BC
:100E400070FF002008BD00BF671800205008002078
:100E50000E4A0123C2F840354FF080424FF08051D6
:100E6000C2F87835D1F83001082808D1D1F834110A
:100E7000052904D80648415C09B1C2F838364FF05C
:100E800080430122C3F880250020704700E0014024
:100E90000058000048B1054B054A1B68B3FBF2F34C
:100EA0005843044B43F0010318477047C400002027
:100EB00040420F002051000008B50448044A3F2377
:100EC000C0E9002300F096FF002008BD5C08002068
:100ED000FFFF0F00084B70B5C31A0D4607499B1062
:100EE000044659430648402203F0A2F82B46014627
:100EF0002046BDE87040184778080020B76DDBB683
:100F0000D44E000073B50C4C0C4A4023041B0093D4
:100F10000D460B460A49A41061430646094803F0F2
:100F2000B3F8011E05DA30462B4602B0BDE870402A
:100F3000184702B070BD00BF78080020F3400000E1
:100F4000B76DDBB6D44E00000022F8B5012105468E
:100F50001046FFF7C1FE104800F074FF0446B8B910
:100F600000F090FF2F690D49384602F090FF031EF4
:100F700009DB01263E642D69084905F11C0002F0D9
:100F800086FF031E02DA1C462046F8BDEE64FBE72E
:100F90006FF00404F8E700BFCD10000064510000BA
:100FA0001FB500220123CDE90223094ACDF800D064
:100FB0006B46CDF804D003F095F8002805DB4FF41C
:100FC00080420023684601F065FC05B05DF804FB33
:100FD0000541000010B5EFF31184202383F312883C
:100FE000BFF36F8F074A136823F00201DB0711601C
:100FF00002D4012003F041FA84F31188BFF36F8F0C
:1010000010BD00BFC808002030B4104B0C2202FBFA
:10101000003301460020D3E90E529863EFF31180AC
:10102000202484F31288BFF36F8F1C6C04F0C0047B
:1010300044F002041C6480F31188BFF36F8F1DB16C
:101040002B46034830BC184730BC70477808002056
:10105000D44E000010B4EFF31182202383F31288E2
:10106000BFF36F8F1748016841F002040460C8079E
:1010700007D482F31188BFF36F8F012010BC03F0F7
:10108000F4B94FF08041D1F80C04D1F80C14C90721
:10109000EFD5EFF3118083F31288BFF36F8F0A4906
:1010A0000B6C03F0C00343F002030B6480F3118860
:1010B000BFF36F8F82F31188BFF36F8F002010BCD6
:1010C000FFF7A2BFC80800207808002010B101284F
:1010D00004D07047034B1B6C5B0701D1FFF794BF33
:1010E000704700BF780800202DE9F0413849BFF370
:1010F0005B8F0746012251E8003F41E800200028AD
:10110000F9D1BFF35B8F33B9324933484B60CB60C1
:101110008A6002F0CFFE7B1E012B2BD8012F07D156
:101120004FF08043D3F81C3403F00303012B21D08C
:1011300003F046FD0546F8B9284B1B78E3B14FF0A4
:1011400080430222C3F808230646DFF894804FF05C
:101150008044D4F81824D4F81834D20315D503F0F9
:101160000303012B01D0012F0FD155B386F3118852
:10117000BFF36F8FBDE8F081EFF31186202383F377
:101180001288BFF36F8F0125DFE7ADB1304602F063
:1011900032FFD4F81835002BDBD1D4F80421002A13
:1011A000D7D0C4F80431D4F804310123C4F8183579
:1011B000C8F88031A360CCE70021212003F070FD46
:1011C000E7E74FF080430222C3F80423D2E700BFD1
:1011D0007408002064080020940800201E0B0020E2
:1011E00000E100E008B5074803F05BFC38B10648B1
:1011F000FFF710FE0448FEF7EFFF002008BD6FF078
:101200001200FBE7344F00000D1200000A2838B529
:10121000074D044604D1AB680D215B68284698470A
:10122000AB6803485B68E1B29847204638BD00BF11
:10123000344F0000F0B545681646A8682A7C01F0D6
:101240001F0487B044EA4214002869D0B6F5001F95
:1012500004D1214603F007FC002052E001AA00203F
:10126000B6F5800F0190506037D1B3F1007F14BF05
:10127000052304238DF804300023CDE904230393D0
:10128000EB6823FA01F111F001010DF103073AD1E6
:10129000B6F1A07F37D104F01F03620903F5E073B4
:1012A00026D0012A3FD1214A52F82330DB072AD425
:1012B000A8683A46214603F04CFB16301BD0029733
:1012C000A86803AA214603F010FA002819DBA868D1
:1012D0000122214603F074FBBEE7B3F1C06F05D0D5
:1012E000B3F1007F14BF01230223C3E70323C1E747
:1012F0004FF0A042D8E7A868394600F075FF0028F3
:10130000DDDA07B0F0BDA8683A46214603F021FBBC
:101310000028D5D19DF80310A86800F05FFFCFE743
:101320006FF08500EDE751F82330FFDE0003005039
:10133000420970B5034602D0012A17D070BD0D4E88
:10134000326951680029F9D003F01F0301250C68A8
:101350009D400029F2D08A682A4002D04B6830466E
:1013600098472CB1236821461C46F2E7024EE7E776
:101370002346F8E7144F0000F44E000038B54568E6
:10138000A86890B103F014FB014670B9A86803F097
:10139000F3FA044658B902460649A86803F0D6FA9B
:1013A000224605210620FFF797FC002038BD6FF08C
:1013B0000400FBE7311300002DE9F043476840F2D9
:1013C0000636D0063B7C87B002EA060654BFC2F35D
:1013D000401C4FF0030C01F01F05B6F5837F144647
:1013E00045EA43158DF803C045D00DD8062E16D01A
:1013F00005D8A6B1022E40D06FF0150038E0B6F542
:10140000807FF9D101260AE040F20222964236D0CE
:10141000B6F5407F35D0B6F5007FEDD10226012329
:10142000220303FA01F12ED57B68C3F80815B868CA
:1014300090BB05F01F036D092BD0012D75D13D4ADE
:1014400002EB830284F48033D2F80017C3F3004325
:10145000C4F3404444EA430421F4E16144EA8C04C7
:1014600021F0070144EA06230B43C2F800370020AD
:1014700007B0BDE8F0830726D1E70426CFE70526AD
:10148000CDE70326CBE7630344BF7B68C3F80C15A5
:10149000CDE74FF0A042D3E70DF10202294603F059
:1014A00058FA14F4403F80460CD1B868294603F03E
:1014B00085FAB8F1000FDAD19DF80210B86800F093
:1014C0008DFED4E74FF0000901ABCDE90199CDE9DC
:1014D0000439CDF80C90B86803AA294603F005F941
:1014E0004845C4DB14F4003314D084F480349DF8F0
:1014F00003308DF80E30C4F300448DF80C608DF885
:101500000D40B8684B4603AA294603F0A6F9002807
:10151000CFDAACE7CDE904330DF103030393B868E8
:1015200003AA294603F0E1F8F1E703F5E07350F868
:101530002330FFDE00030050036803F01F025B0945
:10154000026004D0012B034818BF002070474FF001
:10155000A0407047000300502DE9F04FDFF8B4B110
:1015600085B01546824600EB810840F2FF19D04550
:1015700003D1002005B0BDE8F08FDAF80030580440
:10158000C3F3C321C3F3080400F1BD80624A4C4594
:10159000515C4FEA136312D0222B1ED94E2B40F020
:1015A000B580C5F8144503A80394FFF7C5FF039B56
:1015B000012606FA03F3C0F80835374654E0222B1B
:1015C00009D94E2B40F0A2804FF0FF33C5F81435F7
:1015D0000AF1040ACBE74FF0FF34222B00F2968089
:1015E000DFE803F012171D202329209494949439E6
:1015F000639494949494949494946671747794946A
:10160000947A8285888B8E00C5F80C45631CCAD1FC
:10161000DEE7C5F81445621CDAD00026CDE7C5F830
:101620000845F3E7C5F81045F5E7631CC5F808451C
:10163000CED0002604E0671CC5F80C45C8D00126B2
:1016400003A80394FFF778FF039B012707FA03F32E
:10165000C0F80C3508E0C5F808450029DBD1661C48
:10166000B6D0002637460621DAF80030019303F49D
:101670000040002803A81CBF002701260394FFF7A1
:101680005BFF039C019B00EB8400C3F3412CD0F86B
:1016900000470B0243EA8C033B4304EA0B04234359
:1016A00043EA4603C0F8003792E7C5F80C45D4E793
:1016B000C5F86045601CDAF8003089D0C3F30043F8
:1016C000002BBCD06FE7C5F86445F3E7C5F8684563
:1016D000F0E7C5F86C45EDE7C5F82445621C3FF41A
:1016E00077AF00270126BFE7C5F828458EE7C5F884
:1016F0003045F3E7C5F83445F0E7C5F83845EDE780
:10170000C5F83C4582E76FF0150033E76FF08500C0
:1017100030E700BFF0F8FCFF315800002DE9F04140
:10172000044647680D4603F04BFA4FF0200888B98D
:10173000264B1B7873B16426606802F06EFDF0B929
:10174000012002F03FFE013EF6D10021212003F0EE
:10175000A7FAF0E7EFF31186314688F31288BFF35A
:101760006F8F606802F059FDA8B986F31188BFF346
:101770006F8FEFE786F31188BFF36F8FE5E7EFF325
:101780001186314688F31288BFF36F8F606802F0CC
:1017900044FD0028EED0BB691D706368BA691B6800
:1017A0000020C3F844250122C3F84825C3F82001CE
:1017B000D3F82041C3F85801D3F858019A6081F357
:1017C0001188BFF36F8FBDE8F08100BF1E0B0020B2
:1017D00070B5012383400E4ABFF35B8FDC4352E8B0
:1017E000001F01EA040542E80056002EF7D1BFF3BE
:1017F0005B8F4FF4803282400648C0F80823BFF365
:101800005F8FBFF36F8F0B4214BF0120002070BDAC
:10181000F40800200010014070B40E49D1E90034F2
:10182000D01AC31844F1000422F07F46C1E9003405
:10183000A6F50013B3F5400F09D2074B1B681A0A2F
:101840001B069C19054B42F10005C3E9004570BC1D
:1018500001F0FABCA0010020F8080020A801002037
:1018600011B3BFF35B8F0123104A834052E800CFCE
:101870004CEA030C42E800C10029F7D1BFF35B8FAB
:101880000B4A4FF480338340C2F80433094BBFF353
:101890005B8F1B68BFF35B8FC340DB0742BF064B08
:1018A0004FF40032C3F80021704700BFF408002055
:1018B00000100140F008002000E100E00D4B186826
:1018C000010A0006BFF35F8F0B4BD3F804351818DD
:1018D00041F10001B3F5801F0AD2084BD3E9002380
:1018E000904271EB030303D210F1807041F10001CB
:1018F000704700BFF808002000100140A801002038
:101900002DE9F04F85B016461F469DF840A00446CD
:10191000FFF75EFF0190FFF7D1FFB04271EB0703C5
:1019200054D23E4B301A67EB0101984271F100012D
:101930004FD23B4B03EB0413D3E902239F4208BF72
:1019400096425ED037494FF4803804F1500508FACA
:1019500004F8AD00C1F848832046ADB202F018FD8E
:1019600026F07F4B05F1804504F5A87305F5883511
:10197000DC464FF003090293029A2CF07F4341F8B2
:101980002230C1F84483D1F80435274A6FF00200B1
:10199000C01A604420F07F40904232D9286868B174
:1019A000D1F804350393A3EB0B0020F07F40B0F592
:1019B000000F26D9204602F0EBFC039BBAF1000F82
:1019C00007D109EB030C09F10109D5E7BAF1000FC2
:1019D00009D06FF0150520460199FFF741FF284611
:1019E00005B0BDE8F08F0123104ABFF35B8FA34021
:1019F00052E8000F184342E800010029F8D1BFF374
:101A00005B8F07490E98230101EB0412C8500F9B0E
:101A10005360C2E902670025DDE700BF01008000D6
:101A20009001002000100140FDFF7F00F008002021
:101A30007FB51C4C1C4BC4F80833C4F848331B4B0F
:101A400000254FF0FF304FF0FF31C4F80855C3E9CF
:101A500002014FF48033C4F80433154B02264FF4CF
:101A600000320121C4F804631120C3F880212A4602
:101A7000FFF732F91120FFF713F90E4A0123A36093
:101A8000236013600C4B0D4A0093CDE901550023F0
:101A90002846FFF735FF3046FFF726FB284604B0FF
:101AA00070BD00BF0010014003000F009001002036
:101AB00000E100E0F408002019180000FFFF7F009B
:101AC0002DE9F7432F4CD4F8043399070BD5D4F8FC
:101AD000043143B12C4A0023C4F80431D4F8043152
:101AE000136801331360D4F80433DA0329D5BFF344
:101AF0005B8F264B53E8002F22F0010143E80010D2
:101B00000028F7D1BFF35B8FD30702D4D4F840315C
:101B1000BBB10025C4F84051D4F84031FFF7CEFEE8
:101B2000EFF31182202383F31288BFF36F8F184BDA
:101B3000D3E90267B042B94106D282F31188BFF3FC
:101B40006F8F03B0BDE8F0834FF0FF384FF0FF39DF
:101B5000C3E90289D3E900101D604FF48033C4F853
:101B60004833C4F84051D4F8403182F31188BFF3B0
:101B70006F8F0029E5D0009032463B4628468847C3
:101B8000DFE700BF00100140F8080020F008002047
:101B90009001002030B5431C124C85B005D0844222
:101BA000A8BF0446012CB8BF0124FFF787FE0E4BE7
:101BB0000C4DD3E90013401AB0F5000F10D22218D3
:101BC000AA4228BF2A4652184FF000000749009148
:101BD000CDE9010043F10003FFF792FE05B030BDEF
:101BE0002A46F0E7FFFF7F00A0010020191800003F
:101BF00008B5FFF763FE024B1B68C01A08BD00BFA3
:101C0000A00100204FF08053D3F83021082A06D1DC
:101C1000D3F83431052B02D8024AD05C704700203B
:101C2000704700BF4D580000024AD2F80034002B24
:101C3000FBD0704700E0014010B54FF08053D3F85F
:101C40003021082A4ED14FF080420021C2F80C11F9
:101C5000C2F81011C2F8381502F54042D3F8041446
:101C6000C2F82015D3F80814C2F82415D3F80C14C0
:101C7000C2F82815D3F81014C2F82C15D3F8141490
:101C8000C2F83015D3F81814C2F83415D3F81C1460
:101C9000C2F84015D3F82014C2F84415D3F8241420
:101CA000C2F84815D3F82814C2F84C15D3F82C14F0
:101CB000C2F85015D3F83014C2F85415D3F83414C0
:101CC000C2F86015D3F83814C2F86415D3F83C1480
:101CD000C2F86815D3F84014C2F86C15D3F8443430
:101CE000C2F87035FFF78EFF18B13A4B3A4AC3F885
:101CF0008C26FFF787FF18B1384BFB22C3F8182555
:101D0000FFF780FF70B14FF080414FF08053D1F862
:101D1000E42ED3F8583222F00F0203F00F031343DE
:101D2000C1F8E43EFFF76EFF20B12D4B4FF4007277
:101D3000C3F840264FF08053D3F83031082B1AD126
:101D40004FF08043D3F80024D20744BF6FF0010264
:101D5000C3F800244FF08053D3F83431052B02D858
:101D6000204AD35C3BB14FF01023D3F808224FF048
:101D70008043C3F858254FF01023D3F80022002ADF
:101D800003DBD3F80432002B22DA174901234FF08A
:101D90001020C1F804351224FFF746FFC0F80042B6
:101DA000FFF742FFC0F80442FFF73EFF0023C1F8EF
:101DB0000435FFF739FFBFF34F8F0C490C4BCA684E
:101DC00002F4E0621343CB60BFF34F8F00BFFDE727
:101DD00010BD00BF005000404881030000F00040EB
:101DE000009002404758000000E0014000ED00E094
:101DF0000400FA05014B1860704700BFFC08002082
:101E000010B5054B1868144602F0DEFA0028A4BF8E
:101E10002070002010BD00BFFC080020024A0123F2
:101E20008340C2F80435704700F00140014B0020A8
:101E30001B68184700090020014B1B68184700BFAA
:101E40000009002010B50C4C237993B901232371AC
:101E50000A4B2060002818BF184600F05BF850B904
:101E600023680748002BBDE8104008BF184600F063
:101E7000A1B86FF0770010BD000900202D1E0000F2
:101E8000391E000008B5064B1B683BB10020FEF769
:101E900015FF18B9BDE80840FEF702BF08BD00BF36
:101EA000000900204FF08053D3F83021082A06D1D2
:101EB000D3F83431052B02D8024AD05C7047002099
:101EC000704700BF5358000038B54FF080440123DD
:101ED000C4F8083363600023C4F80031D4F800313B
:101EE00042F21075D4F80C24D4F80C34D20307D580
:101EF000DB0705D5012002F065FA013DF2D138BDBE
:101F0000FFF7D0FF0028FAD0014B00225A71F6E704
:101F10000809002010B508490C794CB90123086064
:101F20000B71FFF7BFFF08B9002010BD4C71FBE734
:101F30006FF07700F9E700BF080900204FF08043F9
:101F40000022C3F80021D3F80021094901221A60B8
:101F5000096811B1C3F804237047D3F80021002A9F
:101F6000FBD00022C3F80021D3F80031704700BF36
:101F70000809002010B54FF08043D3F80423D2079E
:101F800015D5D3F8002192B10022C3F80021012118
:101F9000D3F80021C3F80813FFF784FF044B10B1F6
:101FA0005A7922B95971BDE810401B68184710BD15
:101FB00008090020074A137943B901211060117103
:101FC0004FF080421846C2F8183570476FF077001E
:101FD000704700BF1009002010B54FF080431D4C22
:101FE000D3F81814D3F8182411F4803F19D002F054
:101FF0000302012A03D00AB102F050FA00224FF086
:102000008043C3F818250022C3F80421D3F8042123
:1020100001229A60226872B9D3F80421002AFBD009
:1020200011E0D3F81424D107E8D5D3F81C24920783
:10203000E2D422681AB10222C3F8042310BDD3F8F7
:102040000421002AFBD00022C3F80421D3F8043174
:10205000F4E700BF10090020F8B54FF08043194F96
:10206000D3F80443012504F01A04002604B9F8BD8E
:10207000B4FA84F0C0F11F00830003F580739BB2B3
:1020800003F1804305FA00F2196824EA02040029EA
:10209000ECD01E601B684FF080430128C3F8082372
:1020A0000CD1D3F81824D3F81824920706D10222B1
:1020B000C3F81805C3F804239860D7E73B68C0B29B
:1020C0009847D3E710090020036803F01F025B095B
:1020D000026004D0012B034818BF002070474FF066
:1020E000A040704700030050034A430900F01F005E
:1020F000D35C1844C0B2704759580000034611F031
:10210000010030B5CCB213D1A207C4F3400020D5F2
:10211000124AD2F8200558604FF08053C2F82005CB
:10212000D3F83031082B15D0003818BF012010E04B
:102130004FF0A0414FF08055D1F820251A60C1F82A
:102140002025D5F83051082D08BFD1F82015002AD8
:10215000DAD030BDD2F82035E6E700BF00030050EA
:10216000F7B504460846FFF7BFFF06B204EB460684
:102170000D46B38ADB072BD5204602F093FA294699
:10218000204602F0FEF958B1204602F010FA276806
:1021900000B207EB80030022C3F81025C3F8102516
:1021A0002946204602F02CFA0021B18201A80195AF
:1021B000FFF78AFF019B00EB8300074BD0F8002755
:1021C000134043F00203C0F80037084603B0F0BDE7
:1021D0006FF01500FAE700BFF0F8FCFF014802F0CD
:1021E00011B900BFC800002010B504480C4602F029
:1021F000EBF80028A4BF2070002010BDC80000200C
:102200002DE9F04F804689B058F804ABDAF8041392
:10221000C9B28346082241F00041504602F01AFA42
:10222000051E2BDA0023032106A8CDE90633FFF7AC
:1022300065FF644B01930DF118090023019A009387
:1022400012F8013B60490192DA0803F007038A5C47
:1022500022FA03F3DA071AD4009B09F10409A3B1A7
:102260004FF000410022504602F0F4F9032106A885
:10227000FFF744FF0028DCD125F000450124002DA4
:1022800040F08A8009B0BDE8F08F0123D6E7009BBB
:102290004E4A13440293D9F800100029DCD0029B67
:1022A00091FAA1F11C78B1FA81F141EA4414204677
:1022B000FFF71AFF0BEB40000594878AC808BB089C
:1022C00019F80020039301F00701012303FA01F13B
:1022D00022EA010209F8002005A8FFF7F5FE059A99
:1022E000039B02F5E072C7F3820650F822205B07D9
:1022F0003746C2F3014233D5D6B240463A4621466C
:1023000002F05FF905A80594FFF7DEFE059B03F5D3
:10231000E07350F82330C3F301439E4207D10021FC
:10232000204602F01FF93146204602F01BF905A8AD
:102330000594FFF7C9FE059B012202FA03F3C0F8DA
:1023400020354FF08053D3F83031082B01BFD0F83F
:102350002035D0F82035D0F82035D0F820359AE750
:10236000022A0DD10321204602F0FCF806F00503F5
:10237000012BDCD13A462146404602F022F9D6E74D
:1023800002212046039202F0EDF8032EF2D0039AC8
:10239000032ACCD1022EECE795FAA5F3B3FA83F326
:1023A00004FA03F225EA020503F5A2720BEB4303DC
:1023B0005AF82220B3F87C10C2F30142404602F0E2
:1023C00000F95CE7695800000852000069580000F5
:1023D00038B5EFF31185202383F31288BFF36F8F95
:1023E000064B9C6802F070FB85F31188BFF36F8F7A
:1023F0002046BDE83840FEF701BC00BF18090020A8
:1024000038B50A4B53F82040013053F82050A5420C
:1024100000D838BD606830B1037FDB0701D402F01B
:1024200028FB0834F3E723689847FAE70C520000CA
:1024300070B52A4B2A4C2B4D012286B003201A700E
:10244000FFF7DEFFFEF70EF80420FFF7D9FF264660
:10245000AE4204F1300410D300F018FC204C224EA0
:10246000AC4226D300F026FCFDF766FE1F4A137B24
:1024700023F00103137306B070BD54F80C3C0593B0
:1024800054F8103C049354F8143C039354F8183C4B
:10249000029354F81C3C019354F8203C009354E9F7
:1024A0000A2354E90C0100F01BFA54F8303C5E6535
:1024B000CDE7D4E90A23B3F1FF3F08BFB2F1FF3FF4
:1024C00005D052EA0301206803D100F0AFFC30349C
:1024D000C6E73146183000F027FEF8E71E0B002053
:1024E000D4500000D4500000994C0000200200207D
:1024F00070B5144E144D1549702386B003FB006669
:1025000001220023CDE904230F22CDE902320193F9
:10251000142303FB00554FF4A072044602FB001184
:102520000B4B0095304600F0DBF9737B2C7423F0E5
:1025300004037373074BEE60013403EBC4236B6039
:1025400006B070BDB0010020180900202013002043
:102550008D4B0000200B0020BFB50020FFF750FF7F
:10256000264B83F30888264C264F636943F4007397
:1025700063610025E02384F82230E57725766576CF
:10258000A57684F82050636A43F4E023636284F8FC
:102590002350FEF7C3FAFEF711FC4FF0FF33A3629E
:1025A0001948E36200F0D4F90120FFF729FF022067
:1025B000FFF726FF00F0B2FB144B154C5C61154B86
:1025C0000593012314490095CDE903534FF480622C
:1025D0003B46CDE90155204600F082F9627B064674
:1025E00022F004022046627302F02AFB2846FFF71D
:1025F0007FFF3A4631462046FEF7C4FB20130020F9
:1026000000ED00E0312400009002002018090020B5
:10261000200200206B5800006014002038B5064CE2
:10262000064D0020AC4200D338BD204602F04FFAE0
:102630000028F9DB1C34F5E74001002040010020B0
:1026400073B50C46EFF31181202585F31288BFF393
:102650006F8FC5685DB125602B68C36083690133E6
:102660008361002081F31188BFF36F8F11E052EA7C
:10267000030603D125606FF00B00F3E7CDE90023DB
:102680000246083000F048FA18B9034B9B681B69F2
:10269000236002B070BD00BF180900202DE9F3418E
:1026A000044617461E46EFF31188202383F3128851
:1026B000BFF36F8FC368334A7BB1806891688842EB
:1026C00019D057EA060318D188F31188BFF36F8F2A
:1026D0006FF00F0002B0BDE8F081916891F90E1023
:1026E00021610133E3609368A36088F31188BFF32D
:1026F0006F8F0020EEE72169F2E791F90E1090F953
:102700000E309942A8BF19466FF07E029142B8BFC1
:1027100011468B422DDD02F044FA0546CDE90076E4
:1027200019482246414600F0F7F90028E1D0EFF3BE
:102730001186202383F31288BFF36F8FA068D0B176
:10274000236821699C420AD04BB193F90E3099421B
:10275000A8BF19466FF07E039942B8BF194602F030
:1027600020FA40B10848314600F06AFA6FF00A00DA
:10277000B0E70025D2E7002DF4D186F31188BFF32E
:102780006F8FF3E7180900201F0B0020F8B583684E
:102790000546002B3FD0234A926893423ED1C3683E
:1027A000012B03D9013BC3600020F8BDEFF3118773
:1027B000202383F31288BFF36F8F0169806802F0D2
:1027C000F0F92C68A54207D10023C5E9023387F34D
:1027D0001188BFF36F8FE7E7002CF5D0D4E9003202
:1027E00013605A60637B002623F002036373C4E91D
:1027F0000066A66004F1180002F090FAAC6094F94B
:102800000E302B612046E66602F01AFA0648394679
:1028100000F016FAC8E76FF01500C6E74FF0FF307A
:10282000C3E700BF180900201F0B002070B5EFF3AD
:102830001186202383F31288BFF36F8F0468A042B0
:102840001AD0CCB1D4E9003213605A60637B002502
:1028500023F002036373C4E90055A56004F1180076
:1028600002F05CFA2046E56602F0EAF931460848D3
:10287000BDE8704000F0E4B9D0E902329A4218BFD6
:102880000133836086F31188BFF36F8F70BD00BF83
:102890001F0B002013B5EFF31181202484F312885D
:1028A000BFF36F8F846844B1013C846081F3118869
:1028B000BFF36F8F002002B010BD52EA030406D1AF
:1028C00081F31188BFF36F8F6FF00F00F3E7CDE94D
:1028D00000230246014800F01FF9ECE71F0B00201F
:1028E0002DE9FF41984600F15803D51DC0E9163384
:1028F0000E9B037325F007050423002643730D4444
:102900000D9B83730F46C0E9066629468660C67331
:102910000446FDF7FDFE0C9B029307300B9B0193D1
:1029200020F007000A9B00932D1A43462A46394699
:102930002046FEF70BFA054B66659B6803B11B6EDC
:102940002366284604B0BDE8F08100BF18090020C6
:1029500040F20113838100230366014B98607047A6
:1029600018090020094A93686FF00A01D9660849DE
:1029700098664B6843F080534B60002383F31188C3
:10298000BFF36F8F9368D86E704700BF180900209F
:1029900000ED00E070B590F90D20437B002A36DB96
:1029A000D90634D11B4C63F07F032246437352F89F
:1029B000183FE169934207D1C0E900210860E06156
:1029C00011E09942F8D01B68002BF5D090F90E5019
:1029D00093F90E60B542F4D0AE42F2DD5968C0E919
:1029E000003108605860A569954200D005B9E568D6
:1029F000A3685A7BD20604D1DA897F2A01D9AA6951
:102A000032B1AB4202D0284600F008FB656170BDD0
:102A10006361FCE71809002038B590F90D20437B6D
:102A2000002A014604DA03F07F03437302F0CEF874
:102A30000D4D2A46AB6852F8184F944200D004B9A5
:102A4000EC688B4207D05A7BD20604D1DA897F2A00
:102A500001D9A2692AB1A34202D0204600F0DEFAD1
:102A600023466B6138BD00BF18090020B3F1FF3F5A
:102A700008BFB2F1FF3F03D00249183000F054BB49
:102A8000704700BF994C000070B590F90D20437B52
:102A9000002A014604DA03F07F03437302F096F83C
:102AA0004B7B1C4C63F07F0322464B7352F8183F5C
:102AB000E069934207D1C1E900200160E16111E0C2
:102AC0009842F8D01B68002BF5D091F90E5093F97D
:102AD0000E60B542F4D0AE42F2DD5868C1E9003074
:102AE00001605960A569A368954200D005B9E56801
:102AF0008B4207D05A7BD20604D1DA897F2A01D9CA
:102B0000AA692AB1AB4202D0284600F087FA2B46C8
:102B1000636170BD18090020F8B50E4B0C461146D4
:102B20000D4A98681060DDE90667EFF311822022F4
:102B300082F31288BFF36F8F9D68284602F058F821
:102B4000284632463B46FFF791FF2046BDE8F84055
:102B5000FFF708BF1809002038090020F8B504461F
:102B6000EFF31187202383F31288BFF36F8F437B2A
:102B700003F01F02002A0CBF0126002649B239D1FA
:102B800003F07F03437302F021F82C4D437B8173E4
:102B900063F07F032A46437352F8183F934227D1CC
:102BA000E869C4E900200460EC610FE09842F8D0C5
:102BB0001B68002BF5D093F90EC06145F6D08C450B
:102BC000F4DD5968C4E900310C605C60AC69944282
:102BD00000D004B9EC68AB689C4202D0204600F0FB
:102BE0001DFA6C6187F31188BFF36F8F3046F8BD13
:102BF000E869DEE79B071ED5856801F0E7FF817372
:102C00002B689D4209D16B68C4E900531C606C605D
:102C1000E8E76A689342F6D01B68002BF3D093F97B
:102C20000E209142F5D08A42F3DD5A68C4E90032A1
:102C300014605C60D6E78173D4E700BF18090020F8
:102C400049B9EFF3058030B9054B5A699B689A4240
:102C500001D0FFF787BE81F31188BFF36F8F7047F4
:102C600018090020034648B9EFF3058232B9064A35
:102C700051699268914201D0FFF774BE83F31188C5
:102C8000BFF36F8F704700BF18090020EFF3118169
:102C9000202383F31288BFF36F8F054B9A68D37B91
:102CA000013BD37381F31188BFF36F8F704700BF6F
:102CB0001809002070B5EFF31186202383F31288E2
:102CC000BFF36F8F144DAB68DA7B0132DA732A469B
:102CD00052F8184F944200D004B9EC685A7BD206DF
:102CE00004D1DA897F2A01D9A2692AB1A34202D08C
:102CF000204600F093F923466B6186F31188BFF3F9
:102D00006F8FEFF31180202383F31288BFF36F8F4F
:102D1000BDE87040FFF7A6BF18090020024B03F181
:102D20001802C3E9062270471809002070B5EFF3B6
:102D30001186202383F31288BFF36F8F1B4CA16889
:102D4000E0690B68814214BF1A46002249680B6093
:102D50005960A368E1692AB9154AC3E900210B60EB
:102D6000E3610CE093F90E0092F90E50A84218D0DE
:102D7000854216DD5168C3E900210B605360A569E7
:102D80000B4B9D4200D005B9E568A3689D4202D077
:102D9000284600F043F965613046BDE87040FFF712
:102DA000E1BD8A42D8D01268D5E700BF18090020DB
:102DB00030090020F8B550EA010306460C4603D15D
:102DC000FFF7B4FF0020F8BDEFF31187202383F352
:102DD0001288BFF36F8F124D124BA8681860FFF76F
:102DE0001BFEA868104923463246183000F09CF9B3
:102DF000AA68537B43F00403537304463846FFF735
:102E0000B1FDAB68D3E90A23B3F1004F08BF002A34
:102E1000D8D101F0ABFF201A20EAE070D3E700BF61
:102E20001809002038090020994C000038B50446E4
:102E3000EFF31185202383F31288BFF36F8F437B59
:102E40005B070FD5183001F069FF637B23F00403A3
:102E500020466373FFF79EFD29460548BDE83840CC
:102E6000FFF7EEBE85F31188BFF36F8F38BD00BF4B
:102E70001F0B0020014B9868704700BF1809002005
:102E80002DE9F8430446077BEFF31185202383F3F4
:102E90001288BFF36F8F437B190705D585F311881F
:102EA000BFF36F8FBDE8F883D90943F008025DD105
:102EB0004273A36813B1204601F090FE04F118009C
:102EC00001F02CFFA66D04F15808B04511D04FF069
:102ED000000976B1304601F081FE06F1180001F0DC
:102EE0001DFFC6F86C903046FFF754FDA66DB04547
:102EF000EFD1DFF8C080D8F808309C423ED1EFF324
:102F00000589B9F1000918BF4FF00109D8F8186018
:102F1000294A964200D00EB9D8F80C60B34202D0CC
:102F2000304600F07BF82046C8F8146001F04CF8F9
:102F3000B9F1000F02D02148FFF70AFDD8F8083098
:102F40009C4231D1EFF3058373BB227BD20718D4A7
:102F50002846FFF707FDFB07A4D5002383F311885C
:102F6000BFF36F8F0423184602DF9BE703F07F0354
:102F700043F00803437301F029FE9AE74FF000097C
:102F8000C4E785F31188BFF36F8F83F31188BFF314
:102F90006F8F0423184602DFEFF31180202383F3A1
:102FA0001288BFF36F8FD4E785F31188BFF36F8F5B
:102FB000D1E700BF1809002030090020900200204E
:102FC000044BC01A044BC0105843044B01221A543E
:102FD000704700BF00030020ABAAAAAA1F0B002065
:102FE000C3897F2B12D80A4B1B6863B1094B90F938
:102FF0000E201B689A4209DB437BDB0606D1064B99
:10300000C31A18BF012303F0010070470023FAE739
:10301000CC0000203C090020B001002070B50E4B10
:103020000E4C1E7C06EB460304EBC304054620460B
:1030300001F074FE0A4B002228469A55FFF7D0FF94
:1030400048B1084B08491A68013A2046D317BDE831
:10305000704000F069B870BD18090020000300201E
:103060001F0B0020CC000020C12F000038B5EFF36B
:103070001185202383F31288BFF36F8F104B114A01
:103080009C681068A04206D1FFF7C8FF85F311883D
:10309000BFF36F8F38BD00211B7C11600A4AD35CDF
:1030A000002BF3D02046FFF79BFF0028EED0637B78
:1030B000DB0602D12046FFF7E7FC2046E4E700BF2D
:1030C00018090020380900201F0B0020024B186847
:1030D000984208BF00207047D0000020034B1B68B7
:1030E0000BB9FEF785BD0020704700BF40090020E6
:1030F00030B570B10B4B5B6898420AD0036843B19E
:10310000D3E90421D0E90445121941EB0501C3E9D3
:103110000421D0E9003213605A600023C0E9003373
:1031200030BD00BFD0000020B3F1FF3F08BFB2F1B7
:10313000FF3F2DE9F84F0446994615461F467AD0C1
:103140008160EFF31188202383F31288BFF36F8F20
:10315000B9F1000FDFF8E4A020DBFFF7BFFFDAE9E9
:103160000027013549F100092D1849EBE073C4E946
:103170000453AD18064643EB07074FF00109FFF76C
:10318000A5FFDFF8BCE0DEF804A00346EBB9C4E914
:1031900000EACAF80040CEF8044028E0DAE900125C
:1031A0006FF001035B1A4FF0FF3161EB02025B1B12
:1031B00062EB0902012B72F10001BCBF0123002266
:1031C000C0E904324FF00009D9E7D3E9041CD4E97F
:1031D00004208A4270EB0C0B24DA891A5A686CEBD3
:1031E0000000C3E90410C4E9003214605C60FFF71A
:1031F0006DFF84420ED1134B1B685BB9B9F1000F10
:1032000002D1FFF76BFF0646304601F070FD00214A
:10321000FEF7C0FC88F31188BFF36F8F284639464C
:10322000BDE8F88F521A60EB0C009A45C4E90420FF
:10323000ADD01B68AAE700252F46EFE71803002052
:10324000D0000020400900202DE9F047EFF3118560
:10325000202383F31288BFF36F8FDFF8A490DFF889
:10326000A480C9F80000FFF731FF00260027D9F835
:103270000030D8E900ECD91750B1D0E90442A3429C
:1032800071EB020A1CDAE41A62EB0102C0E90442A3
:1032900013EB0E034FF000044CEB01012046C8E98C
:1032A0000031C9F8004001F022FD2146FEF772FC12
:1032B00085F31188BFF36F8FBDE8F047FFF7D6BEE7
:1032C00014EB0E024CEBE473C0E90467C8E9002379
:1032D000FFF70EFF85F31188BFF36F8F8368984760
:1032E000EFF31185202383F31288BFF36F8FD9F892
:1032F00000301B1BC9F80030FFF7E8FEB7E700BF3E
:10330000400900201803002010B5EFF3118420239A
:1033100083F31288BFF36F8FFFF7E0FE054A034681
:10332000D2E90001181841EBE37184F31188BFF36F
:103330006F8F10BD1803002010B50A4C23681BB115
:1033400001232360002010BD00F0EAF80028F7D028
:103350000138062803D8044B53F8200010BD034859
:1033600010BD00BF4409002024520000FE8FFFFF63
:10337000BFF34F8F0549064BCA6802F4E06213435E
:10338000CB60BFF34F8F00BFFDE700BF00ED00E053
:103390000400FA0510B4094B09490A4C4FF0FE32FB
:1033A000C3F800244968C3F80424C3F80824C3F808
:1033B0000C240023C4F8003510BC084700B00250AC
:1033C000D800002000A00250D0E90012014BC3E950
:1033D00000127047D800002010B5044650B1636851
:1033E00013F0685F05D0064A934202D000232360A1
:1033F000626010BD034B04485B689847EFE700BF6D
:103400002C5F5CA9D800002040520000C8B143687E
:103410000D4A934213D013F0685F0ED0012350E899
:10342000002F194640E8001C9CF0000FF7D1012A3C
:10343000F5D0BFF35F8F0020704704487047044801
:1034400070476FF4E04070472C5F5CA9E98FFFFF85
:10345000EA8FFFFF80B14368094A93420AD013F014
:10346000685F05D0BFF35F8F002303601846704785
:1034700004487047044870476FF4E040704700BF4D
:103480002C5F5CA9E98FFFFFEA8FFFFF10B50446B0
:1034900020B1044B63600022226010BD0248FFF798
:1034A00079FFF6E73A00003A6852000070B5D0E9BB
:1034B0000023174C174D6360D0E90230C4E9023095
:1034C00022604868D1F800C0134BC3E900C0D5F8AA
:1034D0001801D1F808C0C3F808C010F0685FD1F82F
:1034E0000CC00969C3F80CC0196110D00B49C5F8AC
:1034F000BC110023C5E9453105F58A70C5F8B8311E
:103500009047236805F5DC70BDE87040184770BD32
:10351000F40000205C090020E00000202C5F5CA982
:1035200038B500F02FF820B1032400F063F82046EE
:1035300038BD00F031F898B900F0ACF898B90F4DEB
:10354000D5F828391B0EF02B08D1D5F8242A0C4BBE
:103550009A420AD0072400F017F8E6E70624FAE7B3
:103560000424204638BD0024F5E7012000F092F83D
:1035700004460028F7D1C5F80C0AD8E700B002507D
:103580000000E0200020704700207047014BC3F886
:10359000040A704700B0025010B5114800F048F816
:1035A00000B110BD0F4800F043F80028F9D10E4CCF
:1035B000204600F03DF80028F3D10C4B0C481C606D
:1035C00000F036F801460028EBD100F02DF8044653
:1035D00008B1204610BD00F03FF82046FAE700BFD2
:1035E00034010020300100202C01002024010020A3
:1035F0002801002008B5084800F024F8074800F02A
:1036000021F8074800F01EF8064800F01BF8BDE856
:10361000084000F00BB800BF34010020300100204A
:103620002C0100202801002000207047704700BFB7
:1036300008B5034B02681B6810689847002008BD56
:10364000F400002008B5034B02685B6810689847D7
:10365000002008BDF400002070B5094C094D206918
:10366000AB68984718B1084B08485B689847084A08
:10367000EB68206900211160BDE87040184700BF69
:10368000E0000020F4000020D80000208C52000050
:1036900058090020F8B51A4D1A4E0446B268286938
:1036A0009047E8B9184F3B684CB1A3B1012B19D032
:1036B000013B3B602869F36898470020F8BD43B997
:1036C000124A0121C2F800151149D1F81029002A27
:1036D000FBD101333B60F368286998470020F8BDAF
:1036E0000C48F8BD0A4AD2F81039002BFBD1074A22
:1036F0006FF07E40C2F80035FFF748FF3B68D7E720
:10370000E0000020F40000205809002000A0025032
:1037100000B00250E98FFFFF2DE9F04F8DB04368F4
:103720000293837815469A07804640F10D81002464
:103730000E78002E00F00A81252E0BD04B1C03932F
:103740000134029B4146304698470028C0F2F6807B
:103750000399EDE74E788B1C252E0393F0D00027BC
:10376000B946BB46BBF11F0F38D8A6F12003102B7A
:103770000AD8DFE803F02A090930090909210909F3
:103780000928092D09091F00A6F13003092B33D997
:103790002A2E37D11BF0400F55F8043B40F08280B1
:1037A000002BA7BF4BF0200B9946C3F100094BF04B
:1037B000280B01E04BF0010B039B13F8016B039303
:1037C000002ECFD130E04BF0020B4BF0040BF3E7AF
:1037D0004BF0080BF0E74BF0100BEDE7BBF17F0F60
:1037E00019D8A6F13003092BD2D81BF0400F03D013
:1037F0000A2101FB0737DFE70A2101FB09394BF0FA
:10380000200BD9E72E2E06D11BF0400F40F09E80F2
:103810004BF0400BD0E76C2E31D02BD8682E36D031
:103820006A2E3CD04C2E3AD0002F46F02003B8BF71
:103830002BF04002A3F16501BCBF1FFA82FB0027F9
:10384000022901D9612B2FD1073525F00705DFF8B3
:10385000ACA2083507271BF0080F66D00AEB070B50
:1038600056465E4563D1A4EB0A0A06EB0A02A9EBB1
:1038700007096FE1742E9FD07A2E9DD0D4E71BF0FC
:10388000800F18BF4BF4007B4BF0800B94E71BF4C8
:10389000807F18BF4BF4007B4BF4807B8CE74BF4AC
:1038A000207B89E71F4687E7A6F16301122900F212
:1038B000F080DFE811F013004F00EE00EE00EE00A4
:1038C000EE004F00EE00EE00EE00EE00EE00FE0017
:1038D000E900EE00EE001B00EE00AF0055F8043BDF
:1038E0008DF8183001270DF1180AB4E755F804AB2C
:1038F000834BBAF1000F08BF9A461BF0400F14BF6C
:1039000039464FF0FF31504601F04AFA0746A2E728
:10391000029B41462020984700280FDB013EB7421A
:10392000F6D34C44A41BB14698E74E46F7E716F889
:10393000010B029B41469847002892DA98F8023022
:1039400043F0040388F802304FF0FF3420460DB0F6
:10395000BDE8F08F1BF0800F34D01BF4007F2CD01B
:10396000073525F00705AA4669685AF8080B2BF0B9
:1039700010050029ADB237DA404261EB410145F450
:1039800080650DF1180B0A235A4601F015FAA0EBD9
:103990000B0301936B0662D5019B25F001019F4249
:1039A00089B240F3A180002E00F0998015F010023A
:1039B00040F09C80BB460D4623E0AA465AF8040B13
:1039C000C117D4E7AA461BF4807F5AF8041B01D123
:1039D0000846F5E71BF4007F15BF48B208B241F373
:1039E000C01141F3C031C2E750EA0103C9D11BF055
:1039F000400FC6D0002FC4D12BF0110295B2BB46A8
:103A0000019740F2064115EA01021CBF0BF1010BC0
:103A100000222CE02BF010021FFA82FB0A231BF07D
:103A2000800C49D01BF400711DBF073525F0070538
:103A3000AA46AA461ABF5AF8080B69685AF8040B36
:103A400050EA010545D12BF016051BF0400FADB231
:103A500042D0002F40D12BF0170295B2019715F0FC
:103A6000100248D0019B002E42D103F1010B29071F
:103A70005AD4EB0706D5D9456FDD0199A9EB0B03A5
:103A80005F18CB465B4649E04BF0100B10237826BD
:103A9000C5E7782B04D1C6F1780343F01003BEE7E5
:103AA000029B4146252098470028FFF647AF023485
:103AB00047E608230026B2E7AA461BF480715AF8AD
:103AC000040BBDD01BF400711ABFC0B2614680B2B6
:103AD000B6E72BF0060295B20DF1180B54E725F06E
:103AE0001105ADB2BB468CE70D46B8E73B460D4627
:103AF00003F1020BBBE7DDF804B082E77758000062
:103B000070580000CDE904324146029B20209847BE
:103B10000028FFF613AF049B059A01339945F1DCA9
:103B2000A4EB0B01CC189B460AB3029B4146302004
:103B300098470028FFF602AF8EB901342744019B55
:103B4000391B994224DC1D465DBB019AA9EB0B0988
:103B5000224455461446914435E0019F92E70234D1
:103B600041463046029B98470028E7DAE6E640F2F5
:103B700006410D42E2D015F0020F14BF2B20202089
:103B800015F4806F04F10104414618BF2D20E9E7C8
:103B9000029B414630209847002804F10104CEDA08
:103BA000CCE606AB013D4146585D029B9847002894
:103BB000CADAC3E6029B414620209847002804F158
:103BC0000104FFF6BBAEA9EB0403002BF2DCBFE55A
:103BD0007047F0B403460A461979DB88006813433E
:103BE000DC028768066906D513F4402F03D0DA0794
:103BF00048BF83F44023346801258D4023F48012AC
:103C0000DB074CBF2C43AC4334603B68F0BC184727
:103C1000836800EBC101B3F5004F2CBF51F82200BF
:103C200031F81200704700EBC1018068B0F5004F19
:103C30002CBF41F8223021F81230704708B501221C
:103C4000FFF7E6FFD04008BD8368B3F5004F00EBF7
:103C5000C10108D34B681AB143F001034B607047B0
:103C600023F00103FAE74B881AB143F001034B80BC
:103C7000704723F00103FAE753000122FFF7D3BF97
:103C80008368B3F5004F34BF04230823481C08336E
:103C9000A0EBD300B0FA80F0C0F11F0070472DE90F
:103CA000F0410D4686680446FFF7C8FFB6F5004FA1
:103CB000014601D3012832D02046FFF7E1FF04EB93
:103CC00080010E6996B9E368012282401343E360E4
:103CD00002220D612B4629462046FFF7A4FF03224E
:103CE00029462046BDE8F041FFF79DBF022231463C
:103CF0002046FFF78DFF2946034607462046FFF77B
:103D000092FF0322334629462046FFF78CFF3946AF
:103D10002B462046FFF787FF02223146E1E7BDE848
:103D2000F081B2F5802F2CBF08230423D21A2DE98D
:103D3000F0418C18CD1D25F0070524F00704641B05
:103D40000026E40805602146AC60EE602846FFF7D7
:103D500097FF421D9200013002F107074FEAD70793
:103D6000A2F110023146B8BF324605F1100001F051
:103D70000FF83A4631462846FFF77EFF3346324673
:103D800031462846FFF74FFFA4EB07082846314687
:103D90000122FFF759FF42463946FFF76DFF3B46C8
:103DA000324639462846FFF73EFF21462846FFF7B0
:103DB00063FF4346324621462846FFF734FF21463B
:103DC00028460122FFF740FF3946BDE8F041FFF7E2
:103DD00066BF002070470FB407B504A951F8040B63
:103DE0000191FCF7FFF903B05DF804EB04B07047F4
:103DF000038B13F0070305D10368002B0CBF0020D1
:103E000003207047022B05D1408BB0FA80F04009A7
:103E100080007047012B05D10368002B0CBF0020E8
:103E2000052070470020704710B50C4600B111B94D
:103E30006FF0150010BD081D00F093F80028F9D1AF
:103E4000A368032BF6D9F3E72DE9F0410D460746A9
:103E50001946281D90461E4600F094F8044638B1D5
:103E60003346424629463846A446BDE8F0416047FD
:103E7000BDE8F08110B4EFF31182202484F312889E
:103E8000BFF36F8F416110BC0121FCF7DDB938B57C
:103E90000C46054658B151B10B6843B14B6833B17C
:103EA0001C22002100F074FF2C61002038BD6FF04F
:103EB0001500FBE770B505460E46FFF7B5FF041E7B
:103EC00014DBEFF31182202383F31288BFF36F8F8B
:103ED0006B8B2C8B4FF6FF718B4204F0070407D1DC
:103EE00082F31188BFF36F8F6FF00A04204670BD14
:103EF000022C0CD101336B8382F31188BFF36F8FD7
:103F00000023224631462846FFF79EFFEEE7062CA7
:103F100014D8DFE804F004131313041A0400002378
:103F200033606B683BB9C5E90066ACB9022128462D
:103F3000FCF78AF9DAE71E606E60F6E782F3118813
:103F4000BFF36F8F6FF00404D0E782F31188BFF3E3
:103F50006F8F6FF08504C9E782F31188BFF36F8F0D
:103F6000C4E7034658B1426802F00302012A03D0B5
:103F7000032A04D1026812B10020986070476FF0E4
:103F8000150070474268816002F00302032A4FF077
:103F9000000203460CBF006810465A607047704725
:103FA000FEE700F0F5BE00F0E5BE01460068FCF754
:103FB0007BBB08B5FCF7A8FBBDE80840FCF7C8BB15
:103FC00000210120FCF770BB6FF08500704761B6DF
:103FD00062B680F31188BFF36F8F704772B600230B
:103FE00083F31188BFF36F8FBFF34F8F30BF62B67B
:103FF000BFF36F8F704772B6002383F31188BFF34E
:104000006F8FBFF34F8F20BF80F31188BFF36F8F87
:1040100062B6704708B5FCF7F5FE002008BD0369DD
:10402000C9B20C2201FB0233186C00F00700704784
:1040300070B5C9B20369EFF31185202484F31288A7
:10404000BFF36F8F0C2606FB0134246C14F0C00400
:1040500008D0A24206D085F31188BFF36F8F4FF0CE
:10406000FF3070BD06FB013301221A6485F311880D
:10407000BFF36F8F436803EBC1035B689847002071
:10408000EFE78022FFF7D4BFF8B5069F0469C9B2F5
:10409000EFF31186202585F31288BFF36F8F0C256F
:1040A00005FB0144256C05F0070CBCF1010F0CD198
:1040B000276486F31188BFF36F8FC4E90E2343682A
:1040C00053F8313098470020F8BD05F0C005AF42E5
:1040D00086F31188BFF36F8F0CBF6FF077004FF03E
:1040E000FF30F1E713B580240094FFF7CDFF02B055
:1040F00010BD10B40069CBB21C2403FB04000021E6
:1041000010BC10471046FEF791BB00F0E0B9FDF778
:1041100063BF43685B68D3F810350B6000207047BD
:1041200043685B6802EA010021EA0201C3F808055E
:10413000C3F80C150020704743685B680020C3F883
:104140000815704743685B680020C3F80C1570477A
:1041500043685A68D2F8043521EA03000B40C2F8DC
:104160000805C2F80C350020704710B5036958687F
:10417000F8B1884219D19C6808685860A14200D102
:104180009860002008602AB15A680A609A685960ED
:1041900002B99960002010E0814206D108682060D1
:1041A00098688142EDD19C60EBE7044600680028E6
:1041B000F2D1002AE8D16FF0150010BDFEF720B84B
:1041C00030B543681360057A446804EBC504A34224
:1041D00002D36FF0010030BD5C798C4201D008330E
:1041E000F0E70020F7E743681B68D3F88004C3F8C2
:1041F0008004704742681368D3F8100150B1D26947
:10420000002012780A70C3F81001D3F8102101229F
:104210001A6070474FF0FF30704702680346D2F8CB
:10422000580140B95B68DB0706D4D2F8200100389A
:1042300018BF012070470120704743681B68D3F8FE
:104240000423D20517D5D3F82021A2B1EFF31182B0
:10425000202181F31288BFF36F8FD3F8201131B181
:104260000021C3F82011D3F820110121D96082F375
:104270001188BFF36F8FD3F85831704713B501AA77
:104280000446FFF79DFF002805DB019B2268197992
:104290001868FDF761F902B010BD6FF08500704736
:1042A000F8B50022054601210220FCF715FD022089
:1042B000FCF7F6FC6C680121E068FFF7DFFF6B6834
:1042C0001A682369C2F82435617D237D0B43A17DE3
:1042D0000B43C2F86C356E68D6E9004313F0010356
:1042E0003CD02F6904F10C0107F1080204F590702D
:1042F00000F0A5F8002830DB387AFDF78FFD0823A1
:10430000C4F80035B369C4F844350023C4F848350F
:104310000123A360D4F85831002BFBD00026C4F849
:1043200000656B683146D868FFF7A8FF6D683146B5
:104330002C68E868FFF7A2FF0823C4F800352A7A42
:1043400052B9EB69C4F834350123C4F83835C4F8E0
:104350001021D4F8102123600020F8BD0822C4F8F1
:104360000025B269C4F84425C4F848350123A36088
:10437000D4F82031002BFBD00023C4F82031D4F82E
:1043800020310123E3604FF48073C4F80433C1E7A4
:1043900000F150039B009BB203F1804303F5883387
:1043A00000221A601B687047FEF7C6BF08B5FCF70D
:1043B00067F8FCF73BF9BDE80840FEF7BDBF0346D0
:1043C0000020184700F051BB10B502461168B1B18A
:1043D000BFF35B8FB1FA81F3C3F11F000123834068
:1043E00021EA030352E8004F8C4204D142E8003C2A
:1043F000BCF1000FF6D1BFF35B8FE7D110BD6FF0BA
:104400000B00FBE710B50368CB40DB0714D4012396
:104410008B400268BFF35B8F43EA020150E8004F14
:10442000944204D140E8001CBCF1000FF6D1BFF368
:104430005B8FEED1002010BD6FF01500FBE770B56B
:104440000C460021054608461646FDF7D9FC002813
:104450000ADB3378DB0003F1804303F5F8330020F7
:10446000C3F81055C3F8144570BD10B1012802D02F
:104470007047FDF7B1BDFDF761BD18B1012803D14B
:1044800000F00AB800F023B8704708B5FDF772FDD8
:10449000BDE80840FDF7E0BDFDF716BD38B54FF0AB
:1044A00080440223C4F808330123E3600023C4F8E6
:1044B0000431D4F8043142F21075D4F81834DB0317
:1044C00004D50120FFF77EFF013DF6D138BDFFF78F
:1044D000E5BFF7B5019001A8DDE9084716461D467E
:1044E000FDF7F2FD019BB6F1000C18BF4FF0010C77
:1044F00000EB83000B1E18BF0123002D43EA4C0381
:1045000014BF4FF00C0C4FF0000C002C43EA0C03CE
:1045100014BF4FF4E06C4FF0000C002F43EA0C0383
:10452000D0F8002714BF4FF4403C4FF0000C43EA92
:104530000C0322EA030301B109780EB13678760044
:1045400019430DB12D78AD0031430CB1247824020C
:1045500029430FB13F783F040C433C43C0F8004768
:1045600003B0F0BD1FB50DF10F03019300238DF8CB
:104570000F1000931A461946FFF7ABFF05B05DF820
:1045800004FB10B504460846FDF7AEFD04EB4004FD
:10459000A08AC0F3401010BD10B504460846FDF7D0
:1045A000A3FD04EB4004A08AC0F3400010BD10B589
:1045B00004460846FDF798FD04EB4004A08A400B32
:1045C00010BD70B5044608461646FDF78DFD08304F
:1045D0000D4634F81030DA0509D5C3F3432304EB54
:1045E000C302314654F83330526828469847A368CE
:1045F0002BB1E26831462846BDE87040184770BDCF
:1046000010B504460846FDF76FFD00B204EB40000C
:10461000838ADA051DD5C3F3432123F4F85383823B
:1046200004F1120204F1720032F8023F13F4807FA9
:1046300003D0C3F3432399420BD08242F4D104EB5D
:10464000C10300225A6004F17800BDE81040FFF772
:10465000D9BE10BDF0B5034600F5807400200546B4
:104660000127844695420AD1D3F87C2132B1002239
:10467000C3F87C21D3F87C3140F00040F0BD25F038
:10468000404607FA06F6314209D0D4F800E0BEF100
:10469000000F04D0C4F800C0D4F800E03043013566
:1046A0000434DFE738B504460D46FFF76AFFB0B1C2
:1046B0002046FFF771FF90B92046FFF778FF226888
:1046C00001238340C2F80833236800B203EB800360
:1046D000D3F8102522F00302C3F8102538BD284670
:1046E0000021BDE83840FFF73DBF2DE9F0431746F4
:1046F00085B004460846FDF7F7FCD7F800800E4663
:104700000546B8F1000F1FD02046FFF745FF18B14E
:104710002046FFF736FF30BB0023CDE900338DF88C
:104720000E308DF80F300DF10F0243460DF10E01E2
:104730003046FFF7CEFE2AB204EB4202938A23F002
:10474000020343F0010393827B68002B34D031468F
:10475000204693F80080D3F80490FFF71DFF28B19E
:10476000B9F1000F1FD06FF0150028E028B204EB5C
:104770004000838A23F4604323F020038382B9F14D
:10478000000F10D0B8F1030FEDD87B6821685B688B
:1047900093F800C001EB8C01B8F1000F12D1C1F801
:1047A0001085C1F810852AB204EB4202938A23F0E7
:1047B0001C0343EA88039382BB684BBB002005B00F
:1047C000BDE8F083D1F8102522F00302C1F81025CE
:1047D000226802EB8C03D3F8102522F44F3222F426
:1047E0004072C3F810253202D3F8101502F47C523F
:1047F00042EA08420A43C3F8102504EB4C03A3F82D
:104800007C60838A43EA4C3343F020038382CAE707
:10481000D3E9007831462046FFF7F2FE002FCDD0D5
:1048200063689F4206D004F17800FFF7CDFD0028B1
:1048300004DAC4E7A3689845F5D1002004EBC0036F
:10484000C3E901782DB204EB4505C0B2AB8A43EA57
:10485000402343F48073AB82B0E72DE9F043054673
:1048600085B0084617461E46FDF73EFC0C468046BE
:1048700037B32846FFF790FE18B92846FFF781FEA8
:1048800028BB0FFA88F905EB4909B9F8143013F081
:104890001C0F02D07B78012B19D001238DF80F302B
:1048A0000023CDE900737A1CBB1C0DF10F012046DB
:1048B000FFF70FFEB9F8143043F00303A9F81430E2
:1048C000002E41D021462846FFF766FE20B96FF042
:1048D000150005B0BDE8F08337782B6803EB87033C
:1048E0000022C3F81025C3F810250FFA88F205EB53
:1048F00042024FEA870C938A23F4604323F020039B
:104900009382707800B32968B67861440004D1F8C6
:10491000103523F4991323F4F853C1F8103523020A
:1049200000F4403003F47C5303433005D1F81055B4
:1049300000F4801003432B43C1F81035938A43EAF7
:10494000473343F0200393820020C2E7C0E90312FB
:10495000704770B504461546FFF713FE48B1084688
:10496000FDF7C2FB04EB40040020A38A5B0B2B7015
:1049700070BD6FF01500FBE738B590F88C40054628
:104980009CB960222146143000F002FA2868C0F871
:104990007C41D0F87C3140F30730FCF781F90123EA
:1049A00085F88C30AB67204638BD6FF07700FBE7A9
:1049B00090F88C00003818BF01207047FDF7D0BB7D
:1049C0002DE9F34104461746FFF7DBFD0D46266847
:1049D00000B32046FFF7E0FD8046D8B92046FFF738
:1049E000E6FD05B2AD0005F5807246F8028021684B
:1049F000B2582944D1F8102542F00102C1F810251F
:104A00002FB12168012202FA00F3C1F8043302B089
:104A1000BDE8F081D6F80433002BA4BF4FF000436B
:104A2000C6F804332846FDF75FFB04EB4004A38A75
:104A3000C3F38203042B12D0052B12D001A80195D9
:104A4000FDF742FB019BD0F81015D94001F00101A0
:104A50000231284602B0BDE8F041FFF783BD0321D3
:104A6000F7E70221F5E7FFF71DBE08B1FCF712BA20
:104A7000704710B5436904463BB90020E26853789B
:104A800043F001035370404210BD98470028F4D012
:104A90000028B8BF4042E368FF28A8BFFF20187075
:104AA000ECE740B1C368587810F001001EBF1878D9
:104AB000B0FA80F040097047EFF31183202383F3AD
:104AC0001288BFF36F8FFEE708B5FFF7F5FF416966
:104AD000826842EA010313F003030FD1C360036944
:104AE000013B03FB0122002B01DA00207047C16863
:104AF00011604169C260013B521AF4E76FF0150082
:104B0000704710B5C0E90432002381608361044618
:104B1000FFF7DDFF0028A8BFC4E9004410BD2DE960
:104B2000F04105460F46EFF31188202383F31288E6
:104B3000BFF36F8FC668F6B90468A0421BD0D4B12A
:104B4000D4E9003213605A60637BA66023F002034D
:104B50006373C4E9006604F1180000F0DFF8204632
:104B6000E666276100F06CF8414605F10800BDE8F3
:104B7000F041FEF765B83E60AB69EF60013BAB61A9
:104B800088F31188BFF36F8FBDE8F08108B520244A
:104B9000EFF3118384F31288BFF36F8FFFF71EFAD0
:104BA000F6E790F90E308B4201D0FDF7D7BF002019
:104BB000704703460020C3E90200C3E90033704791
:104BC000EFF30580003818BF01207047D0E90032AC
:104BD00013605A600023C0E90033704708B5FFF73F
:104BE000F5FF437B23F0020343730023836008BD7A
:104BF00038B504460D46FDF70FFF637B43F0020313
:104C00006373E5B1A5602B689D4209D16B68C4E967
:104C100000531C606C6012E06A689A42F6D01B6810
:104C2000002BF3D094F90E2093F90E108A42F3D0A2
:104C30009142F1DD5A68C4E9003214605C6038BD0D
:104C400010B5EFF31184202383F31288BFF36F8F25
:104C5000FDF7A0FE84F31188BFF36F8F10BD10B570
:104C60000146EFF31184202383F31288BFF36F8F83
:104C7000437B13F0280F0AD183680BB1FFF7AEFF17
:104C80004B7B23F004034B730846FDF783FE84F34C
:104C90001188BFF36F8F10BD01211838FFF7DFBFF8
:104CA00038B504460D46FEF785F8B5F1FF3F08BF5D
:104CB000B4F1FF3F0246204618D000204FF47A742A
:104CC00047F6FF730146C2FB0431B3F5004F71F1A3
:104CD00000020BD36FF400429A4243F6FF728A41FE
:104CE00026BFD80B40EA41406FF0004038BD08B500
:104CF0000246FEF7EBF970B1D0E904319B1A61EB83
:104D0000E272B3F1004F72F1000104DA002AACBF85
:104D10001846002008BD6FF00040FBE738B502469A
:104D2000EFF31185202383F31288BFF36F8F03689D
:104D3000CBB1FEF7CBF904461046FEF7D9F90022B5
:104D40004FF000438442C0E9042306D1FEF7C6F9C0
:104D5000FFF7CDFF0021FCF71DFF002085F3118830
:104D6000BFF36F8F38BD6FF01500F7E708B5FEF79A
:104D7000CBFA08BD0A44914200F1FF3300D17047DD
:104D800010B511F8014B03F8014F9142F9D110BD54
:104D900002440346934200D1704703F8011BF9E730
:104DA00010B5024601448A42134603D01C780132F2
:104DB000002CF8D1181A10BDF0B5C3F1370704461E
:104DC000FFB203F01F031046082BE6B233D0102BBE
:104DD0003ED06508A40844EA817445EAC1752D19DE
:104DE0004FEA910242EB5102290941EA02716D1822
:104DF00042EB1212290A41EA02616D1842EB1222BB
:104E0000290C41EA02416D1842EB1242AD1842F101
:104E10000002EC0844EA4274D10804EB8402A6EBD9
:104E20004205EDB2092D0CD90134A5F10A0541F175
:104E30000001EDB212E0E40844EA417406F007050F
:104E4000C908303554EA010200F8015BBCD1F0BD5D
:104E5000240944EA017406F00F050909092D84BFED
:104E6000ED19EDB2EDE70000014800687047000061
:104E700048080020510E000000000000B90E00009C
:104E80000000000000000000D44E00001D260000BD
:104E90000000000000000000144F000000000000AF
:104EA000F44E0000A94300000000000000000000D4
:104EB000344F0000E511000000000000311A00002E
:104EC000000000002D0E000000000000AD430000B7
:104ED000000000000658000070510000F85000006B
:104EE0003801002078080020490F00000000000071
:104EF000000000001558000080510000D450000050
:104F00003A010020CC0800207D13000000000000C2
:104F1000000000002358000094510000D45000000D
:104F20003C010020D80800207D1300000000000094
:104F30000000000039580000A85100001451000082
:104F40003E010020E4080020A14200009B42000036
:104F5000000000008B440000BF4300000000000080
:104F6000C13F0000344F00003B4200000000000041
:104F7000C13F000000000000C13F00000000000031
:104F8000C13F000034000020BD41000000000000CF
:104F9000C13F000000000000C13F00000000000011
:104FA000C13F000000000000C13F00000000000001
:104FB000C13F000000000000C13F000000000000F1
:104FC000C13F000000000000C13F000000000000E1
:104FD000C13F000000000000C13F000000000000D1
:104FE000C11A000000000000C13F000000000000E6
:104FF000C13F000000000000C13F000000000000B1
:10500000C13F000000000000C13F000000000000A0
:10501000C13F000000000000C13F00000000000090
:10502000C13F000000000000C13F00000000000080
:10503000C13F000000000000C13F00000000000070
:10504000C13F000000000000C13F00000000000060
:10505000C13F000000000000C13F00000000000050
:10506000C13F000000000000C13F00000000000040
:10507000C13F000000000000C13F00000000000030
:10508000C13F000000000000C13F00000000000020
:10509000C13F000000000000C13F00000000000010
:1050A000C13F000000000000C13F00000000000000
:1050B000C13F000000000000C13F000000000000F0
:1050C000C13F000000000000C13F000000000000E0
:1050D000C13F0000B913000013410000214100004E
:1050E00039410000454100005141000035120000E7
:1050F0006B41000000000000A10F00008340000091
:10510000E5400000000000001F400000000000001B
:1051100000000000F54100001D170000E7410000FD
:105120000338FDD870470000144F00000D00010047
:10513000144F00000B00110000000000A13F000010
:105140001C000020140000200C00002000000000C3
:1051500004000020990500008D040000E104000017
:1051600041050000050F0000D50E00000000000002
:1051700055100000D50F00000F4100000B4100004A
:10518000FFFF00000003005034000020000000007A
:1051900001000000BCF801FF0000005034000020B6
:1051A000000000000000000000200040010000009E
:1051B00000000000C85100000000D60100000000FF
:1051C0001D0B00201C0B002000200040D4510000CB
:1051D00002000000F451000004000000E45100004F
:1051E0000401000006800000088000010580000224
:1051F0000780000306000000050000020806000109
:10520000070600030800000003000000744E0000C1
:10521000744E0000BC4E0000C44E0000D44E00008E
:10522000D44E0000FF8FFFFFFF8FFFFFFE8FFFFFB9
:10523000FE8FFFFFFD8FFFFFFC8FFFFFFC8FFFFF47
:105240006D757465785F667265652063616C6C6509
:10525000642077697468204E554C4C2070617261EF
:105260006D6574657200000043616E277420696E7D
:10527000697469616C697A65206D757465782C2034
:10528000776173204E554C4C0D0A0000436F756CCE
:1052900064206E6F74206C6F636B20706F77657223
:1052A0002073617665206D757465780043616C6369
:1052B000756C6174696E67207468652066616374DB
:1052C0006F7269616C73206F66206E756D626572B6
:1052D00073203120746F2025643A0A0054686520D9
:1052E000666163746F7269616C206F66202564204B
:1052F000697320256C640A00446F6E6520707269C2
:105300006E74696E670A006E524620436F6E6E655A
:1053100063742053444B2046756E64616D656E74F2
:10532000616C73202D204C6573736F6E2034202DBB
:1053300020457865726369736520310A002A2A2A3C
:1053400020426F6F74696E67206E524620436F6E05
:105350006E6563742053444B2076332E322E312DEC
:10536000643838383766366633326466202A2A2A2B
:105370000A002A2A2A205573696E67205A657068C8
:105380007972204F532076342E322E39392D6563B1
:1053900037383130346631353639202A2A2A0A0026
:1053A0006D757465785F696E69742063616C6C6596
:1053B000642077697468204E554C4C20706172618E
:1053C0006D6574657200436F756C64206E6F742038
:1053D000616C6C6F63617465206D757465782062B3
:1053E00065666F726520696E697469616C697A6956
:1053F0006E670072302F61313A20203078253038C6
:1054000078202072312F61323A20203078253038D0
:1054100078202072322F61333A20203078253038BE
:10542000780A0072332F61343A20203078253038E2
:1054300078207231322F69703A2020307825303848
:1054400078207231342F6C723A2020307825303831
:10545000780A0020787073723A202030782530382E
:10546000780A004661756C74696E6720696E7374A2
:1054700072756374696F6E20616464726573732002
:10548000287231352F7063293A20307825303878EA
:105490000A00556E68616E646C6564204952516EF5
:1054A0003A2025640A002A2A2A2A2A2055534147ED
:1054B00045204641554C54202A2A2A2A2A0A0020EF
:1054C000204469766973696F6E206279207A65720B
:1054D0006F0A002020556E616C69676E6564206DEF
:1054E000656D6F7279206163636573730A002020B4
:1054F0004E6F20636F70726F636573736F72206994
:105500006E737472756374696F6E730A002020493C
:105510006C6C6567616C206C6F6164206F66204500
:1055200058435F52455455524E20696E746F205057
:10553000430A002020496C6C6567616C20757365B7
:10554000206F662074686520455053520A00202061
:10555000417474656D707420746F2065786563752F
:10556000746520756E646566696E656420696E7326
:105570007472756374696F6E0A002A2A2A2A2A20B7
:10558000425553204641554C54202A2A2A2A2A0A99
:10559000002020537461636B696E67206572726FBF
:1055A000720A002020556E737461636B696E672008
:1055B0006572726F720A00202050726563697365AC
:1055C000206461746120627573206572726F720A63
:1055D0000020204246415220416464726573733A50
:1055E00020307825780A002020496D707265636943
:1055F0007365206461746120627573206572726FD7
:10560000720A002020496E737472756374696F6E3C
:1056100020627573206572726F720A002020466CDA
:105620006F6174696E672D706F696E74206C617A3A
:105630007920737461746520707265736572766128
:1056400074696F6E206572726F720A002A2A2A2AA4
:105650002A204D5055204641554C54202A2A2A2AAA
:105660002A0A002020537461636B696E672065729B
:10567000726F722028636F6E746578742061726532
:1056800061206D69676874206265206E6F74207692
:10569000616C6964290A00202044617461204163BF
:1056A000636573732056696F6C6174696F6E0A006D
:1056B00020204D4D46415220416464726573733A17
:1056C00020307825780A002020496E737472756343
:1056D00074696F6E204163636573732056696F6CE4
:1056E0006174696F6E0A0052657365727665642035
:1056F000457863657074696F6E2028005370757209
:10570000696F757320696E74657272757074202884
:105710004952512000535053454C20696E20746803
:1057200072656164206D6F646520646F6573206EBF
:105730006F7420696E646963617465205053500A08
:10574000002A2A2A2A2A2048415244204641554C00
:1057500054202A2A2A2A2A0A002020427573206609
:1057600061756C74206F6E20766563746F7220743F
:1057700061626C6520726561640A00202044656284
:105780007567206576656E740A0020204661756C29
:105790007420657363616C6174696F6E2028736532
:1057A000652062656C6F77290A00415243485F4566
:1057B0005843455054207769746820726561736F4F
:1057C0006E2025780A0A002A2A2A2A2A204465629D
:1057D0007567206D6F6E69746F7220657863657090
:1057E00074696F6E202A2A2A2A2A0A002A2A2A2A5B
:1057F0002A20257320256429202A2A2A2A2A0A00F9
:10580000000001000000636C6F636B403430303087
:1058100030303030006770696F40353030303033B1
:105820003030006770696F403530303030303030A4
:1058300000000102030405060775617274403430EC
:105840003030323030300000000000000101000034
:105850000000000101010000000020303030303035
:1058600030303030303030303000016D61696E00E2
:10587000286E756C6C29002A666C6F61742A0000B2
:10588000D33D0000540100203A00000068010020D0
:105890003A000000400100203A0000007C01002096
:1058A0003A00000000000000154000000000000069
:1058B0000000000000600040000000000000000048
:1058C00000000000000000000000000000000000D8
:1058D00000000000000000000000000000000000C8
:1058E00000000000000000000000000000000000B8
:1058F00000000000000000000000000000000000A8
:105900000000000000000000000000000000000097
:105910000000000000000000000000000000000087
:105920000000000000000000000000000000000077
:105930000000000000000000000000000000000067
:10594000000000000090D003FF0000009002000063
:10595000D0000020D00000200000000071330000C3
:105960001C010020140100200C0100200000000098
:10597000040100208D340000D93300000D340000F4
:1059800055340000480900203A00003A4C09002034
:105990003A00003A500900203A00003A5409002029
:1059A0003A00003A2C010020F0000020E80000201E
:1059B000E4000020E00000200000000000000000E3
:1059C0004001002040010020000000000000000015
:1059D0000E000000540100205401002000000000CF
:1059E000000000000E000000680100206801002097
:1059F00000000000000000000E0000007C010020FC
:105A00007C01002000000000000000000E000000EB
:045A100015E015E0A8
:00000001FF
